:10000000002000206D01000099010000990100000E
:100010009901000099010000990100009901000078
:100020009901000099010000990100009901000068
:100030009901000099010000990100009901000058
:100040009901000099010000990100009901000048
:100050009901000099010000990100009901000038
:100060009901000099010000990100009901000028
:100070009901000099010000990100009901000018
:100080009901000099010000990100009901000008
:100090009901000010B5064C2378002B07D1054BC1
:1000A000002B02D0044800E000BF0123237010BDE4
:1000B0007C000020000000004827000008B5084B25
:1000C000002B03D00748084900E000BF0748036839
:1000D000002B00D108BD064B002BFBD09847F9E759
:1000E0000000000048270000800000207800002069
:1000F00000000000164B002B00D1144B9D464022FF
:1001000092029A1A924600218B460F461348144ACF
:10011000121A02F04DFA0F4B002B00D098470E4BED
:10012000002B00D098470020002104000D000D484E
:10013000002802D00C4800E000BF02F013FA2000B3
:10014000290001F0A1FF02F0F7F9C0460000080005
:100150000020002000000000000000007C000020C3
:10016000C800002000000000000000000648804792
:100170000649074A074B9B1A03DD043BC858D05079
:10018000FBDCFFF7B7FF0000E5020000542700008A
:10019000000000207C000020FEE7C04680B582B051
:1001A00000AF00F01FF8031C7B60084B5B680F2258
:1001B00013401A1C7B68D3407B60054B7A681A6039
:1001C0007B68181CBD4602B080BDC04600800C4054
:1001D0000800002080B500AF014B181CBD4680BD53
:1001E00000366E0180B582B000AF344BDB6A344A12
:1001F000134080225201934215D080225201934233
:1002000004D880221201934211D017E0802292017B
:10021000934204D08022D20493420CD00EE0294BAA
:100220001B687B6039E080231B027B6035E0264B36
:100230001B687B6031E0254B7B602EE01F4BDA684A
:10024000E023DB00134080229200934218D08022EA
:100250009200934206D8002B18D08022520093427D
:1002600011D016E0C0229200934206D08022D20024
:1002700093420ED1164B7B600EE0164B7B600BE079
:10028000154B7B6008E0154B7B6005E0144B7B60F1
:1002900002E000237B60C046C046084B1A68E0239A
:1002A0005B0213409B0B01337868191C01F0C2FFFD
:1002B000031C181CBD4602B080BDC04600800C4027
:1002C000003C0004040000200000002000366E0105
:1002D000406F4001809FD500C0D8A70040B56400A2
:1002E000804F120080B500AFBD4680BD80B500AF25
:1002F00080231B02181CBD4680BDC04680B500AFE0
:10030000FA239B00181CBD4680BDC04680B500AFD7
:10031000024B1B68181CBD4680BDC046040000206F
:1003200080B582B000AF021C3960FB1D1A70FB1D46
:100330001B78002B0DD0FB1D1B78012B09D0FB1D5A
:100340001B78022B05D0FB1D1B78032B01D0FB1D56
:100350001B780949FB1D1A783B6801209840031C53
:10036000181C131CDB009B189B00CB181033586023
:10037000BD4602B080BDC0460060004080B582B07E
:1003800000AF021C3960FB1D1A70FB1D1B78002B8F
:100390000DD0FB1D1B78012B09D0FB1D1B78022BF8
:1003A00005D0FB1D1B78032B01D0FB1D1B780949D1
:1003B000FB1D1A783B6801209840031C181C131C75
:1003C000DB009B189B00CB1810331860BD4602B0B1
:1003D00080BDC0460060004080B588B000AF786046
:1003E000344B181C012100F071FA7B681B68324AFB
:1003F00093425BD1314BBB61BB69181C012100F0FA
:1004000065FA7B681A797B685B79101C191C0A22D3
:10041000012300F029FE7B689A797B68DB79101C48
:10042000191C0A22012300F01FFE0023FB6112E0C9
:100430007B681A797B685B79101C191CFFF79EFF9B
:100440007B681A797B685B79101C191CFFF768FFC1
:10045000FB690133FB61FB69082BE9DD7B681B68E5
:100460007A68127A1202111C03220A439A63082343
:10047000FB1801221A700823FB1801225A707B68AE
:100480001A690823FB189A607B68DA680823FB184E
:100490005A607B681A7D0823FB181A737B681A68F8
:1004A0000823FB18101C191C00F046FFBD4608B0BD
:1004B00080BDC0464081040000A0004000B204009E
:1004C00090B585B000AF78603960144BBB600F23E6
:1004D000FC187A683B68101C191C01F05DF9031CBC
:1004E000237007E00F23FC187B68181C00F052FFF4
:1004F000031C23700F23FB181B785BB2012B04D164
:10050000BB685A1EBA60002BECD10F23FB181B7876
:100510005BB2181CBD4605B090BDC046E093040018
:1005200080B586B000AFF860B9607A60FB681B6880
:100530007B61BB6801229A40131CDB431A1C7B6958
:100540001A407B6801211940BB6899400B1C1A4373
:10055000FB681A60BD4606B080BDC04680B582B05B
:1005600000AF786039607B681A683B68DA40131C1A
:1005700001221340181CBD4602B080BD80B500AFFB
:10058000034BDB6C1B0EDBB2181CBD4680BDC046A6
:10059000B081E00F80B582B000AF224B5A69E023F2
:1005A000DB0013408022920093421ED080229200F2
:1005B000934206D8002B26D08022520093421FD0AF
:1005C00027E0C0229200934204D0E022D20093425E
:1005D0001CD01EE0FFF7D2FF031E122B02D9124BD4
:1005E0007B6019E0114B7B6016E0FFF7C7FF031E2D
:1005F000122B02D90E4B7B600EE00E4B7B600BE0A2
:100600000D4B7B6008E00D4B7B6005E00C4B7B6085
:1006100002E000237B60C0467B68181CBD4602B028
:1006200080BDC04600800C40804F120040420F0049
:1006300040B56400C0CF6A00C0D8A700809FD50035
:10064000406F400190B583B000AFFC1C0E4B181CEE
:1006500000F036FA031C2370FB1C1B78072B06D016
:10066000092B09D1FFF7BEFD031C7B6007E0FFF7F4
:1006700091FF031C7B6002E000237B60C0467B6827
:10068000181CBD4603B090BD06000C0080B584B0B8
:1006900000AF78603960184BDA6B0B23FB18511EE2
:1006A0008A411A70144B154ADA63134B5B680722B0
:1006B0001340FB607B68124A934202D80023FB6020
:1006C00005E07B680F4A934201D80123FB600A4B87
:1006D000094A526807218A43111CFA680A435A6082
:1006E0000B23FB181B78002B02D0034B0022DA638C
:1006F000BD4604B080BDC04600000C40711B000028
:100700000024F4000048E80180B500AFFFF762FD67
:10071000031C181C0021FFF7B9FFBD4680BDC04671
:1007200080B582B000AF786039607A683B68101C91
:10073000191CFFF7ABFFBD4602B080BD80B584B089
:1007400000AF78600023BB607B68364A934206D0D6
:10075000354A934203D0354A934200D000E0C04668
:100760007B68181C00F0ACF9031CFB607B682D4A09
:1007700093420CD02C4A934210D02C4A934200D082
:1007800013E02B4B9B6A03221340FB600DE0284BC8
:100790009B6A0C2213409B08FB6006E0244B9B6A7B
:1007A000302213401B09FB60C046FB68012B05D0BB
:1007B00014D3022B07D0032B0AD02BE0FFF796FDB2
:1007C000031CBB6029E0FFF7A1FD031CBB6024E014
:1007D000FFF7E4FC031C5B08BB601EE00023BB606A
:1007E0007B68124A934203D07B680E4A934210D131
:1007F0000F4B9A6A7B680D498B4201D1102300E0B0
:100800001423DA40131E04D0FFF778FD031CBB60ED
:1008100003E002E00023BB60C046BB68181CBD4675
:1008200004B080BD03001C0004001E0002001A007A
:1008300000800C4080B582B000AF7860074B5B6DE4
:100840000122134000D005E0C046044B1B6D7A68BE
:100850001340FAD1BD4602B080BDC04600800C40B6
:1008600090B583B000AFFC1C164B181C00F028F9A3
:10087000031C2370FB1C1B78032B0DD002DC022B06
:1008800005D017E0092B10D00A2B0AD012E0FFF791
:100890003DFD031C7B6010E0FFF728FD031C7B601F
:1008A0000BE0094B1B687B6007E0FFF79BFC031C18
:1008B0007B6002E000237B60C0467B68181CBD465D
:1008C00003B090BD073322000C00002080B586B035
:1008D00000AF78600A1CFB1C1A7000233B617B6828
:1008E0001B0A0F2213400A2B36D89A001C4BD31830
:1008F0001B689F461B4B7B6118E01B4B7B6115E01F
:100900001A4B7B6112E01A4B7B6101233B610DE0C6
:10091000184B7B6110233B6108E0174B7B61802300
:100920005B003B6102E0154B7B61C0467B681B0BA3
:100930001F221340FB603B69002B03D03B69181C4E
:10094000FFF778FFFB1C1B787969FA68081C111CFB
:100950001A1CFFF7E5FD00E0C046BD4606B080BDAD
:10096000EC25000040800C4008800C4044800C4086
:1009700058800C4060800C4064800C4078800C40B3
:1009800080B584B000AF78607A68F8239B03134089
:10099000E0221203934200D179E0E0221203934255
:1009A00013D88022920293423BD08022920293423B
:1009B00002D8002B23D074E08022D202934223D0AD
:1009C000C022120393425DD06BE0D02252039342C7
:1009D0002CD0D0225203934208D880225203934253
:1009E0002BD0B022520393423DD05AE0E022520372
:1009F000934231D08822920393424DD051E0FFF7C9
:100A0000F1FB031CFB604FE0FFF7ECFB031CFB60FA
:100A1000284B9B680F2213401A1CFB68D340FB60D5
:100A200042E0FFF7BBFB031CFB603DE0224B181CC0
:100A3000FFF784FE031CFB6036E01F4B181CFFF71A
:100A40007DFE031CFB601B4B9B6E0F2213401A1C88
:100A5000FB68D340FB6027E0184B181CFFF76EFEC5
:100A6000031CFB6020E0154B181CFFF767FE031CFE
:100A7000FB60104B1B6F032213401A1CFB68D34012
:100A8000FB6011E0FFF7DEFD031CFB600CE0FFF7ED
:100A900081FD031CFB6007E0FFF7E2FE031CFB6027
:100AA00002E00023FB60C046FB68181CBD4604B092
:100AB00080BDC04600800C4002001A0003001C00EC
:100AC00080B584B000AF78600F23FB1801221A7044
:100AD0007B680F221340BB60BB68072B00D9CAE0BC
:100AE000BB689A006A4BD3181B689F46694BDB6A48
:100AF000694A134080225201934216D0802252014B
:100B0000934204D880221201934213D01CE0802229
:100B10009201934204D08022D20493420FD013E07A
:100B20000F23FB1802221A7013E00F23FB18032275
:100B30001A700EE00F23FB1804221A7009E00F232D
:100B4000FB180B221A7004E00F23FB1805221A7001
:100B5000C04695E04F4B9B6A03221340022B08D0FE
:100B6000032B0BD0012B0ED10F23FB1803221A707D
:100B700015E00F23FB1802221A7010E00F23FB1858
:100B800006221A700BE0434B9A6A80235B021340E3
:100B900004D00F23FB180C221A7000E0C0466FE04F
:100BA0003C4B9B6A0C221340082B08D00C2B0BD01B
:100BB000042B0ED10F23FB1803221A7015E00F230C
:100BC000FB1802221A7010E00F23FB1806221A707D
:100BD0000BE0304B9A6A80235B03134004D00F2351
:100BE000FB180C221A7000E0C04649E0294B9B6AB2
:100BF00030221340102B02D0202B05D009E00F2308
:100C0000FB1803221A7009E00F23FB1802221A7046
:100C100004E00F23FB1801221A70C04630E00F23B6
:100C2000FB1807221A702BE01A4BDA6AE023DB026A
:100C3000134080229202934212D08022D202934229
:100C400004D080225202934205D00EE00F23FB18FD
:100C50000A221A700EE00F23FB1802221A7009E014
:100C60000F23FB1803221A7004E00F23FB18012244
:100C70001A70C04604E00F23FB1800221A70C04609
:100C80000F23FB181B78181CBD4604B080BDC0465E
:100C90001826000000800C40003C000480B588B09D
:100CA00000AF78600A1CFB1C1A700323FB611B2336
:100CB000FB1803221A7000233B617B680F2213404C
:100CC000FB60FB68072B00D9F1E0FB689A007C4BC6
:100CD000D3181B689F46FB1C1B780C2B00D9E8E03F
:100CE0009A00784BD3181B689F460423FB611B2393
:100CF000FB1800221A701BE00323FB611B23FB1867
:100D000001221A7014E00223FB611B23FB1802224C
:100D10001A700DE00123FB611B23FB1803221A70DC
:100D200006E00523FB611B23FB1805221A70C04651
:100D30001B23FB181B78181C0121012200F0CEF8A0
:100D4000FFF7E2FC604BFA695A62FFF727FA031CCF
:100D5000BB60BB68181C0021FFF7E2FCACE0FB1C89
:100D60001B780C2B00D9A6E09A00584BD3181B68AF
:100D70009F4600237B611DE000200121012200F03D
:100D8000ADF802237B6115E001200121012200F072
:100D9000A5F801237B610DE04D4B181C02210122B7
:100DA000FFF7BEFB03237B6104E000237B6101238B
:100DB0003B61C046FB68022B0BD1434B424A926A0F
:100DC000444911407A6911433A6912040A439A620C
:100DD00072E03D4B3C4A926A3F4911407A69920069
:100DE00011433A6912050A439A6265E0FB1C1B78BD
:100DF000022B07D0032B0DD0012B00D05CE0002389
:100E00007B610FE000200121012200F067F802233E
:100E10007B6107E001200121012200F05FF801233E
:100E20007B61C046284B284A926A30218A43111CB4
:100E30007A6912010A439A623EE0FB1C1B78032B7D
:100E400014D00A2B22D0022B00D035E00020012143
:100E5000012200F043F81C4B40225A62C0461A4B54
:100E6000DA6A80235B021340F9D01FE001200121E0
:100E7000012200F033F8144B60225A62C046124B34
:100E8000DA6A80239B021340F9D00FE0052001218C
:100E9000012200F023F80C4B80225A62C0460A4B14
:100EA000DA6A8023DB021340F9D0C04604E0C04672
:100EB00002E0C04600E0C046BD4608B080BDC04666
:100EC000382600005826000000800C408C260000C8
:100ED00040800C40FCFFFEFFF3FFEFFF90B587B0B2
:100EE00000AF041C081C111CFB1D221C1A70BB1D2A
:100EF000021C1A707B1D0A1C1A70FB1D1B78052B27
:100F00004BD89A00274BD3181B689F4601233B619F
:100F10000223FB6001237B6126E004233B6108235D
:100F2000FB6003237B611FE010233B612023FB60F8
:100F300005237B6118E040233B618023FB6007238E
:100F40007B6111E080235B003B6180239B00FB60A1
:100F500009237B6108E08023DB003B6180231B01C8
:100F6000FB6016237B61C046BB1D1B78002B10D095
:100F70000D4B3A691A627B1D1B78002B0ED0C046C0
:100F80000A4A7B69101C191CFFF7E8FA031EF7D008
:100F900004E0054BFA681A6200E0C046BD4607B09F
:100FA00090BDC046C026000000800C402C800C4044
:100FB00080B582B000AF021C3960FB1D1A70FB1DAA
:100FC0001B78002B0DD0FB1D1B78012B09D0FB1DBE
:100FD0001B78022B05D0FB1D1B78032B01D0FB1DBA
:100FE0001B780949FB1D1A783B6801209840031CB7
:100FF000181C131CDB009B189B00CB181033586087
:10100000BD4602B080BDC0460060004080B582B0E1
:1010100000AF021C3960FB1D1A70FB1D1B78002BF2
:101020000DD0FB1D1B78012B09D0FB1D1B78022B5B
:1010300005D0FB1D1B78032B01D0FB1D1B78094934
:10104000FB1D1A783B6801209840031C181C131CD8
:10105000DB009B189B00CB1810331860BD4602B014
:1010600080BDC04600600040B0B584B000AFB9603C
:10107000111C7B600F23FB18021C1A700E23FB1837
:101080000A1C1A700F23FB181B78002B11D00F239A
:10109000FB181B78012B0CD00F23FB181B78022B9D
:1010A00007D00F23FB181B78032B02D00F23FB184C
:1010B0001B780E23FB181B78002B13D07B68002BAA
:1010C00008D00F23FB181A78BB68101C191CFFF7F7
:1010D0009DFF07E00F23FB181A78BB68101C191C32
:1010E000FFF766FFBB68072B22D8344C0F23FB1891
:1010F0001A7832480F23FB1819780B1CDB005B1899
:101100009B00C3185B68B9688900081C0F218140E7
:10111000C9430B400E2179180978B86880008140D6
:101120001943131CDB009B189B00E318596029E04E
:10113000224C0F23FB181A7820480F23FB1819782C
:101140000B1CDB005B189B00C31808331B68B968D5
:101150001B48844661448900081C0F218140C94313
:101160000B400E2179180978B868154DAC466044DB
:10117000800081401943131CDB009B189B00E3187F
:10118000083319600E23FB181B78002B13D17B68E2
:10119000002B08D00F23FB181A78BB68101C191CF1
:1011A000FFF734FF07E00F23FB181A78BB68101C09
:1011B000191CFFF7FDFEBD4604B0B0BD0060004045
:1011C000F8FFFF3F80B586B000AFF860B9607A6085
:1011D000FB681B687B61BB6801229A40131CDB43E0
:1011E0001A1C7B691A407B6801211940BB68994031
:1011F0000B1C1A43FB681A60BD4606B080BDC04692
:1012000080B584B000AFF860B9607A60FB681B6895
:10121000BA68D2431A407B681A43FB681A60BD461D
:1012200004B080BD90B589B000AFF860B9607A6055
:101230001A1CFB1C1A707B68002B00D166E0FB684F
:101240001B68344A1A40FB681A60FA68FB1C1B785A
:101250001B021C1CC0239B00101C191C221CFFF726
:10126000CFFFBB68002B05D12B4B181CFFF788FB69
:10127000031CBB6001235B42BB61FB681B6802224D
:10128000134012D0FB1C1B78012B07D0022B08D077
:10129000002B00D01AE0214BBB6105E0204BBB6165
:1012A00002E0204BBB61C04610E0FB1C1B78012B09
:1012B00006D0022B07D0002B08D11B4BBB6105E0E9
:1012C0001A4BBB6102E01A4BBB61C046FB1C1B788A
:1012D000184AD35C7B617B689B00BA68D11A7B6932
:1012E0007A685343081C191C00F0A4FF031C013B3F
:1012F000FB61FB681B680222134004D0FB69002BD2
:1013000001D10123FB61FA69FB681A61BD4609B08E
:1013100090BDC046FFFCFFFF408104004016400026
:10132000C0D8A7008050740180841E0040548900FA
:10133000002D3101D826000080B582B000AF786062
:1013400039607B6800225A637B68114A1A637A68A5
:101350003B685B78002B01D0002300E00123101CC8
:1013600001211A1CFFF72EFF3B6859683B689A68F9
:101370003B681B7B7868FFF755FF7A683B681B78F2
:10138000101C00211A1CFFF71DFFBD4602B080BDD6
:10139000CFFF010080B588B000AF78607B68BD4AA0
:1013A000934205D1BC4BBB61BB699B687B6101E08B
:1013B000FC23EBE17B689B6A3B613A69C023DB005D
:1013C000134014D03A6980239B00134003D0BB69BB
:1013D000FD225A7007E03A698023DB00134002D0F7
:1013E000BB69FE225A70BB6909221A70BAE1BB6957
:1013F0001B78082B00D9ADE19A00A84BD3181B68C5
:101400009F467B695B881A1C102313400AD07B69B6
:101410001B881B0A9BB21A1C06231340F02213439D
:10142000FB610FE07B691B881A1CFE231340FB61E4
:101430007B695B881A1C0223134003D0FB690122DD
:101440001343FB61BB6901221A707B68FA695A6217
:101450007B6801225A6085E13B69802213400CD0F1
:101460007B6880221A63BB69FF225A70BB6908221D
:101470001A707B6802225A6030E03B6940221340B8
:101480002CD07B6840221A637B695B881A1C10236E
:1014900013400AD0BB6902221A707B691B881A1C90
:1014A000FF231A407B685A6218E07B695B881A1C2C
:1014B000022313400ED0BB6907221A70BB691B7947
:1014C0007A69DB00D3181B89012B07D17B680822BE
:1014D0005A6047E1BB6905221A7042E142E13B696B
:1014E000802213400CD07B6880221A63BB69FF22E4
:1014F0005A70BB6908221A707B6802225A6014E095
:101500003B694022134010D07B6840221A637B69FC
:101510005B881A1C0223134003D0BB6903221A7094
:101520001FE1BB6905221A701BE11BE17B695B8827
:101530001A1C102313400AD07B691B881B0A9BB21C
:101540001A1C06231340F0221343FB6105E07B695C
:101550001B881A1CFE231340FB617B695B881A1CE5
:101560000423134003D0FB6901221343FB61BB69D1
:1015700004221A707B6801225A607B68FA695A62F9
:10158000F0E03B69802213400CD07B6880221A6314
:10159000BB69FF225A70BB6908221A707B6802225D
:1015A0005A6014E03B694022134010D07B6840220F
:1015B0001A637B695B881A1C0423134003D0BB6940
:1015C00007221A7003E0BB6905221A70C9E0C9E05E
:1015D000BB695A88BB691B797969DB00CB181B8909
:1015E0009A4224D3BB6900225A80BB691B7901331C
:1015F000DAB2BB691A717B695B881A1C0423134039
:1016000003D0BB6903221A70ABE07B695B881A1CAC
:101610000123134003D1BB691B79012B06D9BB6998
:1016200008221A707B6802225A609BE099E0BB692D
:101630001B797A69DB00D3185A68BB695B88591C2F
:1016400088B2B9694880D3181B781A1C7B685A6223
:10165000BB6906221A7085E03B69802213400CD0DA
:101660007B6880221A63BB69FF225A70BB6908221B
:101670001A707B6802225A600AE03B6940221340DC
:1016800006D07B6840221A63BB6905221A7068E0A5
:1016900068E0C04600A0004098000020DC26000062
:1016A0003B692022134046D0BB691B797A69DB0075
:1016B000D3181B89FB607B68DA690B23FB181A704F
:1016C000BB695B881A1EFB689A4210D2BB691B7902
:1016D0007A69DB00D3185A68BB695B88591C88B2E9
:1016E000B9694880D3180B22BA1812781A70BB69EE
:1016F0005B881A1EFB689A420CD3FB68012B02D14F
:101700007B6808225A60BB6908221A707B68022233
:101710005A6010E07B6804225A60FB68012B0AD9EA
:10172000BB695B881A1CFB68013B9A4203D17B684A
:1017300008225A6016E015E03A6980235B001340E6
:1017400007D07B68802252001A63BB6909221A7095
:1017500008E007E0BB69FB225A70BB6909221A70D6
:1017600000E027E6BB691B78092B0BD17B680022C0
:101770005A63BB695B785BB2012B05D1BB69002260
:101780005A7001E0012301E0BB695B785BB2181C71
:10179000BD4608B080BDC04680B584B000AF78605B
:1017A00039607B68294A934207D1294BFB607B68EB
:1017B0009B680122134005D001E0FC2340E07B68D8
:1017C00020225A603B685B881A1C0223134003D016
:1017D0003B681B89002B09D03B685B881A1C0423DB
:1017E000134005D03B681B8A002B01D1FC2327E066
:1017F000FB6800221A70FB6801225A70FB68002205
:101800005A80FB6800221A71FB683A689A607B680C
:10181000C0225A607B689B6A2022134001D07B68FB
:10182000DB697B680B4A1A637B685B6BFC22D20026
:101830001A437B685A637B68181CFFF7ABFD031CD7
:101840005BB2181CBD4604B080BDC04600A000407D
:1018500098000020CFFF010080B586B000AFF8608F
:10186000B9607A601A1CFB1C1A70BB68002B05D18A
:10187000294B181CFFF784F8031CBB60FB1C1B786A
:10188000202B0BD002DC002B05D041E0402B08D0F0
:10189000602B0ED03CE010237B610DE008237B61C0
:1018A0000AE0BB68181C062100F0C4FC06237B611B
:1018B00002E004237B61C046BB685A017B697968FA
:1018C0004B435B08D3183B617B697A6853433869A3
:1018D000191C00F0AFFC031C3B613B69203B3B61E2
:1018E0003B69DB003B613B690C4A13403B61FB6891
:1018F0001B68602293431A1CFB681A60FB681A6815
:10190000FB1C1B781A43FB681A60FB683A695A6132
:10191000BD4606B080BDC04640810400F8FF1F00F0
:1019200080B584B000AF78600A1CFB1C1A707B681D
:101930000D4A934203D07B680C4A934200D1C046C3
:10194000FB1C1B78DB43FB60FB6805221340FB603C
:10195000FB685A007B68DA60FB1C1A787B68DA60E7
:10196000BD4604B080BDC04600C0004000C4004079
:1019700080B582B000AF786039607B681F4A9342BF
:1019800003D07B681E4A934200D1C0467B68181C76
:1019900000F038F83B689B7C002B06D07B681B6806
:1019A0008022D2051A437B681A603B68DB7C002BDF
:1019B00007D03B681B7D10221343DBB21A1C7B68E7
:1019C0009A653B685B7B1A1C3B681B8A13433A6829
:1019D000D2891A437B685A603B6859683B689A68A9
:1019E0003B681B7B7868FFF737FF3B681B781A1C46
:1019F0007B68DA60BD4602B080BDC04600C00040D2
:101A000000C4004080B582B000AF78607B681E4A99
:101A1000934203D07B681D4A934200D1C0467B6845
:101A20001B4ADA607B6800221A607B68194A5A6098
:101A30007B6800229A607B6800225A617B680022E2
:101A4000DA647B68144A9A647B6800225A657B6872
:101A50000D4A934203D07B680C4A934202D17B68C3
:101A600000221A657B6800229A657B68064A9342C9
:101A700003D07B68054A934202D17B680022DA6575
:101A8000BD4602B080BDC04600C0004000C400405A
:101A9000AA0E000005100000F91F000090B58DB0DF
:101AA00000AFF8607A600B23FB180A1C1A70182329
:101AB000FB18EC221A801823FB1804225A801023EA
:101AC000FB180B22BA1812781A701823FB18102270
:101AD000BA185A601823FB1801221A811823FB1820
:101AE0001422BA18DA601823FB1801221A822F2355
:101AF000FC18FA681823FB18101C191CFEF7E0FCF0
:101B0000031C23702F23FB181B785BB2002B04D01F
:101B10002F23FB181B785BB208E07B68002B04D0F6
:101B20001423FB181A787B681A700023181CBD4612
:101B30000DB090BD90B58BB000AF7860081C111C43
:101B4000FB1C021C1A70BB1C0A1C1A701023FB1809
:101B5000EC221A801023FB1801225A800823FB185C
:101B6000FA1C12781A700823FB18BA1C12785A70E3
:101B70001023FB180822BA185A601023FB180222FF
:101B80001A811023FB180C22BA18DA601023FB18F4
:101B900000221A822723FC187A681023FB18101CD5
:101BA000191CFEF78DFC031C23702723FB181B78E0
:101BB0005BB2002B04D02723FB181B785BB200E03C
:101BC0000023181CBD460BB090BDC04680B584B044
:101BD00000AF78600F23FB1800221A707A680F2379
:101BE000FB18101CF3211A1CFFF758FF0F23FB18DA
:101BF0001B781A1C012313405A1E9341DBB2181C98
:101C0000BD4604B080BDC04690B593B000AF7860CB
:101C10003023FB18EC221A803023FB1804225A8050
:101C20000823FB1888221A703023FB180822BA18E0
:101C30005A603023FB1801221A813023FB1814222A
:101C4000BA18DA603023FB1818221A824723FC18CE
:101C50007A683023FB18101C191CFEF731FC031C9A
:101C600023704723FB181B785BB2002B04D047235B
:101C7000FB181B785BB208E10823FB18E1221A70FD
:101C80003023FB180822BA185A603023FB180122AF
:101C90001A813023FB180C22BA18DA603023FB18A3
:101CA00008221A824723FC187A683023FB18101C7C
:101CB000191CFEF705FC031C23704723FB181B7837
:101CC0005BB2002B04D04723FB181B785BB2DCE02F
:101CD0001423FB185B781B029AB21423FB181B78A1
:101CE0009BB213439BB29AB26A4B1A801423FB181F
:101CF000DB781B029AB21423FB189B789BB2134328
:101D00009AB2644B5A801423FB185B791B029AB277
:101D10001423FB181B799BB213439AB25D4B9A8034
:101D20001423FB18DB791B029AB21423FB189B794E
:101D30009BB213439BB29AB2564BDA801423FB1822
:101D40005B7A1B029AB21423FB181B7A9BB21343D3
:101D50009AB2504B1A811423FB18DB7A1B029AB2F9
:101D60001423FB189B7A9BB213439AB2494B5A81B6
:101D70001423FB185B7B1B029AB21423FB181B7BFA
:101D80009BB213439AB2434B9A811423FB18DB7B1B
:101D90001B029AB21423FB189B7B9BB213439AB28B
:101DA0003C4BDA811423FB185B7C1B029AB2142390
:101DB000FB181B7C9BB213439AB2364B1A82142336
:101DC000FB18DB7C1B029AB21423FB189B7C9BB292
:101DD00013439AB22F4B5A821423FB185B7D1B02CC
:101DE0009AB21423FB181B7D9BB213439AB2294B62
:101DF0009A821423FB18DB7D1B029AB21423FB1872
:101E00009B7D9BB213439AB2224BDA821423FB18B8
:101E10005A7E204B1A760C23FB185B781B029AB271
:101E20000C23FB181B789BB213439AB2194B5A83AD
:101E30000C23FB189A78174B1A770C23FB18DB78C6
:101E40001B019AB20C23FB185B799BB2191C0F2360
:101E50000B409BB213439AB20E4BDA830C23FB1850
:101E60009B791B019AB20C23FB185B791B09DBB22F
:101E70009BB213439AB2074B1A840C23FB18DB79ED
:101E8000D9B2044B222299540023181CBD4613B02A
:101E900090BDC046A400002080B582B000AF78603D
:101EA0007B68181CF2210122FFF744FE7B68181C96
:101EB000F4212522FFF73EFE7B68181CF521A022A5
:101EC000FFF738FE0023181CBD4602B080BDC04697
:101ED00080B584B000AF78600F23FB1800221A7021
:101EE0007A680F23FB18101CD0211A1CFFF7D6FDAF
:101EF0000F23FB181B78602B01D000231DE07B68AB
:101F0000181CE021B622FFF715FE96235B00181C73
:101F100000F038F802E0642000F034F87B68181C08
:101F2000FFF754FE031EF6D17B68181CFFF76CFE0A
:101F30007B68181CFFF7B0FF0123181CBD4604B0D6
:101F400080BDC04680B500AF0A4B181C0121FEF7CA
:101F5000BDFC094B181C0321FEF7A0FE074B181C03
:101F60000121FEF7B3FC064B181C0121FEF7AEFC65
:101F7000BD4680BD0023020002001A00600610006A
:101F80000002040080B584B000AF78607B68DB039A
:101F9000181CFA23990000F0DDF9031CFB600C4BC0
:101FA00000225A600A4B0A4A126801210A431A6049
:101FB000C046074B5A68FB689A42FAD3044B044A5E
:101FC000126801218A431A60BD4604B080BDC04634
:101FD0000000084080B500AF034BDB6C1B0EDBB28A
:101FE000181CBD4680BDC046B081E00F80B582B0F0
:101FF00000AF021C3960FB1D1A70FB1D1B78002B03
:102000000DD0FB1D1B78012B09D0FB1D1B78022B6B
:1020100005D0FB1D1B78032B01D0FB1D1B78094944
:10202000FB1D1A783B6801209840031C181C131CE8
:10203000DB009B189B00CB1810331860BD4602B024
:1020400080BDC0460060004090B583B000AFFC1D6D
:10205000FFF7C0FF031C2370FB1D1B78812B08D8E2
:10206000054B064A1A60064B054A126805490A40A4
:102070001A60BD4603B090BD18600C400500000416
:10208000E4800C40FFFFFFFE90B58BB000AF102343
:10209000FB181A4A13CA13C313CA13C3FFF7D4FF9A
:1020A000FFF750FF164B181C0121FEF70FFC022012
:1020B000022104220023FEF7D7FF1023FB18181C6F
:1020C000FEF78AF91023FB181B68181CFFF700FFA6
:1020D00000F03CF802200221FFF788FF3B1C094A70
:1020E00013CA13C312881A803B1C181C00F074F822
:1020F000FA239B00181CFFF745FFEFE700270000BD
:10210000008204001827000080B582B000AF021CD6
:10211000FB1D1A700649FB1D1B781A1C1F23134058
:1021200001229A40C0235B00CA50BD4602B080BD68
:1021300000E100E080B582B000AF786039607B6874
:102140003A689A64BD4602B080BDC04690B587B07B
:1021500000AF1C4B181C0121FEF7B8FB1A4B181CD2
:102160000121FEF7B3FB04200A2104220123FEF71C
:102170007BFF04200B2101220023FEF775FF3B1C8F
:10218000124A13CA13C313CA13C3114A3B1C101CAF
:10219000191CFFF7EDFB0E4B03225A650C4A0D4B41
:1021A000101C191CFFF7C6FF1120FFF7ADFF12200E
:1021B000FFF7AAFF064B181C0521FFF7B1FBBD4630
:1021C00007B090BD408104000032040028270000C1
:1021D00000C00040FF1F000090B585B000AF7860E0
:1021E0000F23FB1800221A7014E0C046104B1B6925
:1021F00040221340FAD00E4B0F22BA181278796899
:102200008A1812785A630F23FB181A780F23FB18C9
:1022100001321A700F23FB181C787B68181C00F021
:10222000CFF9031C9C42E0D3BD4605B090BDC0462B
:1022300000C00040002243088B4274D303098B4244
:102240005FD3030A8B4244D3030B8B4228D3030C86
:102250008B420DD3FF22090212BA030C8B4202D328
:102260001212090265D0030B8B4219D300E0090A50
:10227000C30B8B4201D3CB03C01A5241830B8B4259
:1022800001D38B03C01A5241430B8B4201D34B0342
:10229000C01A5241030B8B4201D30B03C01A5241A7
:1022A000C30A8B4201D3CB02C01A5241830A8B422C
:1022B00001D38B02C01A5241430A8B4201D34B0215
:1022C000C01A5241030A8B4201D30B02C01A524179
:1022D000CDD2C3098B4201D3CB01C01A524183092D
:1022E0008B4201D38B01C01A524143098B4201D367
:1022F0004B01C01A524103098B4201D30B01C01A92
:102300005241C3088B4201D3CB00C01A524183080B
:102310008B4201D38B00C01A524143088B4201D338
:102320004B00C01A5241411A00D201465241104698
:102330007047FFE701B5002000F0FCF802BDC04681
:102340000029F7D003B5FFF775FF0EBC4243891A89
:102350001847C04603460B437FD4002243088B42F4
:1023600074D303098B425FD3030A8B4244D3030B1C
:102370008B4228D3030C8B420DD3FF22090212BAE1
:10238000030C8B4202D31212090265D0030B8B425D
:1023900019D300E0090AC30B8B4201D3CB03C01A47
:1023A0005241830B8B4201D38B03C01A5241430B22
:1023B0008B4201D34B03C01A5241030B8B4201D312
:1023C0000B03C01A5241C30A8B4201D3CB02C01A7D
:1023D0005241830A8B4201D38B02C01A5241430AF5
:1023E0008B4201D34B02C01A5241030A8B4201D3E4
:1023F0000B02C01A5241CDD2C3098B4201D3CB018B
:10240000C01A524183098B4201D38B01C01A524139
:1024100043098B4201D34B01C01A524103098B423D
:1024200001D30B01C01A5241C3088B4201D3CB0028
:10243000C01A524183088B4201D38B00C01A52410B
:1024400043088B4201D34B00C01A5241411A00D2BB
:1024500001465241104670475DE0CA0F00D0494224
:10246000031000D34042534000229C4603098B4294
:102470002DD3030A8B4212D3FC22890112BA030A1C
:102480008B420CD3890192118B4208D3890192119E
:102490008B4204D389013AD0921100E08909C30923
:1024A0008B4201D3CB01C01A524183098B4201D325
:1024B0008B01C01A524143098B4201D34B01C01A10
:1024C000524103098B4201D30B01C01A5241C30888
:1024D0008B4201D3CB00C01A524183088B4201D3F7
:1024E0008B00C01A5241D9D243088B4201D34B0012
:1024F000C01A5241411A00D20146634652415B1054
:10250000104601D34042002B00D549427047634634
:102510005B1000D3404201B5002000F00BF802BD73
:102520000029F8D003B5FFF715FF0EBC4243891A06
:102530001847C0467047C046084B10B5041C002B16
:1025400002D0002100E000BF054B1868836A002B11
:1025500000D09847201C00F03BF8C0460000000067
:10256000442700000E4B70B500251E1C0D4CE41ACC
:10257000A410A54204D0AB00F35898470135F8E702
:1025800000F028F8084B00251E1C084CE41AA41083
:10259000A54204D0AB00F35898470135F8E770BD69
:1025A00070000020700000207000002074000020E7
:1025B000031C8218934202D019700133FAE7704766
:1025C0000023C25C0133002AFBD1581E7047000073
:1025D000FEE7C046F8B5C046F8BC08BC9E4670474A
:1025E000F8B5C046F8BC08BC9E46704758090000C4
:1025F000FA08000000090000F40800005809000073
:102600005809000006090000100900001A0900001E
:102610005809000026090000760C0000EC0A0000B2
:10262000540B0000A00B0000EC0B0000760C000027
:102630001E0C0000280C0000AE0E0000D60C00009E
:102640005E0D00005E0D0000EC0D0000AE0E0000FF
:10265000AE0E00003A0E0000B20E0000B20E0000F6
:10266000EA0C0000F80C0000060D0000140D00003C
:10267000B20E0000B20E0000B20E0000B20E00005A
:10268000B20E0000220D0000B20E0000B60E0000D7
:10269000720D0000780D0000880D0000B60E0000DD
:1026A000B60E0000980D0000B60E0000B60E000039
:1026B000B60E0000B60E0000B60E0000AA0D000017
:1026C000440F0000360F00001A0F00000C0F00002E
:1026D000280F0000560F000008091108021400001E
:1026E00058140000DE1400002C15000082150000B4
:1026F000D015000058160000A01600003817000082
:1027000000A00040030703060100000000000000D5
:10271000486B010000000000737973206765742026
:102720007665720D0A000000000000000000000045
:1027300000E10000000500000010000000000000A3
:0C2740004300000010000020000000001A
:08274C00A8D9FF7F0100000085
:1027540000366E0100800000809FD500006CDC0212
:102764000000000000000000000000000000000065
:102774000000000000000000000000000000000055
:1027840040270000000000000000000000000000DE
:102794000000000000000000000000000000000035
:1027A4000000000000000000000000000000000025
:1027B4000000000000000000000000000000000015
:0C27C400BD0000009500000000000000B7
:040000030000016D8B
:00000001FF
