:10000000002000206D01000099010000990100000E
:100010009901000099010000990100009901000078
:100020009901000099010000990100009901000068
:100030009901000099010000990100009901000058
:100040006D14000099010000990100009901000061
:100050009120000099010000990100009901000021
:100060009901000099010000990100009901000028
:100070006109000099010000990100009901000048
:100080009901000099010000990100009901000008
:100090009901000010B5064C2378002B07D1054BC1
:1000A000002B02D0044800E000BF0123237010BDE4
:1000B0000001002000000000F46D000008B5084BAE
:1000C000002B03D00748084900E000BF0748036839
:1000D000002B00D108BD064B002BFBD09847F9E759
:1000E00000000000F46D00000401002084000020E6
:1000F00000000000164B002B00D1144B9D464022FF
:1001000092029A1A924600218B460F461348144ACF
:10011000121A05F02EFF0F4B002B00D098470E4B04
:10012000002B00D098470020002104000D000D484E
:10013000002802D00C4800E000BF05F0D7FE2000E8
:10014000290002F02BFD05F0BBFEC04600000800B0
:10015000002000200000000000000000000100203E
:100160005005002000000000000000000648804705
:100170000649074A074B9B1A03DD043BC858D05079
:10018000FBDCFFF7B7FF000035030000006E000046
:100190000000002088000020FEE7C046284B10B574
:1001A000DA6A284B134080225201934233D019D986
:1001B00080229201934212D08022D204934218D11D
:1001C00021481F4B19685C68C903490F013103F0CE
:1001D0001FFA0F231C40E0401C4B186010BD1C4B45
:1001E0001868EEE780221201934202D1194B186879
:1001F000E7E7134BDA68E023DB001340802292002C
:10020000934215D00AD8002B16D0013AFF3A9342F8
:1002100010D11148D5E780200002D2E7C022920019
:1002200093420BD00132FF32934203D10B48C8E70F
:100230000B48C6E70020C4E70A48C2E70A48C0E7FF
:1002400000800C40003C000400366E0108000020D5
:10025000000000200400002040B56400406F400111
:10026000C0D8A700804F1200809FD500004870477B
:1002700000366E0108B5254BDA6A254B1340802203
:10028000520193422DD013D98022920193420CD077
:100290008022D204934212D11E481C4B1968C90314
:1002A000490F013103F0B4F908BD1B4B1868F4E79E
:1002B00080221201934202D1184B1868EDE7134BCC
:1002C000DA68E023DB00134080229200934215D0CD
:1002D0000AD8002B16D0013AFF3A934210D11048A9
:1002E000DBE780200002D8E7C022920093420BD0C7
:1002F0000132FF32934203D10A48CEE70A48CCE7E5
:100300000020CAE70948C8E70948C6E700800C4052
:10031000003C000400366E010000002004000020B4
:1003200040B56400406F4001C0D8A700804F120064
:10033000809FD5007047C046802000027047C046AD
:10034000FA2080007047C046014B18687047C046CD
:100350000000002030B5041C85B04048012100F0A9
:1003600061FD3F4B22689A4201D005B030BD3D4847
:10037000012100F057FD207961790A22012301F063
:100380001DFAA079E1790A22012301F017FA01236D
:10039000191C6079344D8140081CAC461D1C227923
:1003A000D1008A183149920051180861607962447D
:1003B000854055601D1C607985400D611D1C60796C
:1003C000854055601D1C607985400D611D1C60795C
:1003D000854055601D1C607985400D611D1C60794C
:1003E000854055601D1C607985400D611D1C60793C
:1003F000854055601D1C607985400D611D1C60792C
:10040000854055601D1C607985400D611D1C60791B
:10041000854055601D1C607985400D611D1C60790B
:10042000854055601D1C60798540181C0D616179FF
:10043000884003215060227A206812020A438263B6
:100440006A4613705370236969460293E368019307
:10045000237D137301F00EFA87E7C0464081040044
:1004600000A0004000B204001060004000600040A6
:1004700038B5051C01F0B6FB012809D1054C02E096
:10048000013C002C04D0281C01F03AFA0128F7D0D6
:1004900040B238BDE0930400A023F0B557469A4619
:1004A00000234E46051C9946C0B42A4C83B0A24492
:1004B0004B466377237F002B10D0226863682E1C85
:1004C0000027002B12D1AA4210D8E17F002912D1B7
:1004D0002177A369002B01D0012363772834544589
:1004E000E6D103B00CBC91469A46F0BD921BBB41CD
:1004F00022606360F2E7A068E16800900191281C27
:10050000391C801A9941009A019B03F045FA009822
:100510000199801A99412369206061606269002B0A
:100520000FDD94469C4463466361F32BD1D90122CD
:100530000023801859416346F43B20606160636189
:10054000C7E7D31A9C466361F32BC2D901225242FA
:10055000D317EEE72001002010B5041C00F07EFF49
:10056000134B9A7F002A1DD046229A5C002A1BD08A
:100570006E229A5C002A09D096229A5C0321002AF6
:1005800005D00C4C00F06EFF201C10BD0221002C89
:100590000CD08A005218D2009B1801229A77216051
:1005A0000024EFE70021F2E70121F0E7024CE9E740
:1005B00020010020011000F0041000F01A4B10B5CB
:1005C0001C78002C2ED10122184801211A7000F04D
:1005D00029FC1748022100F017FE1648082100F0F8
:1005E0005DFB0121134800F01DFC134801F018FDCC
:1005F0000721124BDA698A43DA61996101F020FD23
:100600008022C0210E4B520149005A500D481A60F9
:100610000021A02205F0ADFC0B4B1C700B4B1C7095
:100620000B4B1C60002010BD1D01002000230200A8
:1006300002001A0060061000606800000000084018
:1006400000E100E0200100201E0100201C0100202C
:10065000C0010020F0B55F4656464D464446F0B412
:100660009B4683B0041C0E1C151C032807D9B248F6
:1006700003B03CBC90469946A246AB46F0BD00F0A4
:10068000EDFEAE4B00909946A3001F19FF004F44AA
:100690009846BB7F002B49D0002D4BD0A84BFA22A7
:1006A0005B6812019A465B46BB610023690CE80354
:1006B00080185941FA220023520103F06DF9B86005
:1006C000F960012E3DD001225242D31712184B413E
:1006D000BA60FB6001200021801859414346012582
:1006E0001B19DB004B440C9A186059601D77DE77AC
:1006F0001A62944B1B78002B13D1934E336801334D
:1007000002D0336801333360904D2B78002B24D016
:100710003368012B3ED03368002B02D03368013B95
:100720003360009800F09EFE0020A1E700F09AFEE2
:1007300087489DE75B46002BF3D0201C0C99D847D7
:10074000EFE7FA239B005D43F4234343ED1A7A233A
:100750003D617B61021C0B1CBCE753467D4A1B02BA
:100760001B0A13600222764B9A61031C002902D1F6
:10077000794A904200D9784B53441902090A002063
:1007800001F040FC02236E4AD1690B43D36101237F
:100790002B70C0E74444E400231C00214B4419772C
:1007A0008B465146090288466A4F01933A68120205
:1007B00002206349CB698343CB614346981A674B58
:1007C000000AC3185A1E93415B421840FFF764FEAB
:1007D0004B465B7F002B00D095E045234A46D35C17
:1007E000002B00D08AE06D234A46D35C002B00D05A
:1007F0007FE095234A46D35C002B73D15B46002BE8
:1008000002D1019A0133137701239C464B461B7F8B
:10081000E344002B62D04B464A461B685268442191
:100820004846415C002905D04946C96A806A8A4227
:1008300076D873D06C214846415C002905D04946E2
:10084000496D006D8A4270D86DD094214846415C54
:10085000002905D04946C96F806F8A425BD858D0BD
:1008600000212970591C63D0002A35D13A4A93429D
:1008700032D8344A11785246002901D14246120A30
:1008800002243A6053442E4A19029461090A002056
:10089000904601F0B7FB01232B704346DB691C43F4
:1008A0004346DC61264B00205B689A461B02984653
:1008B0003B681C0243461C1B01F096FB3A68000291
:1008C00012022B78801A240A000A002B00D122E79A
:1008D000844200D96CE71EE71F4BCAE701235B4245
:1008E0001A1C9CE79823D158083BD35803209847FB
:1008F00084E70220116F936E98477AE70120916C8C
:10090000136C98476FE74B460020196A9B6998471C
:1009100063E78342A4D9031C0A1CA1E7834289D957
:10092000031C0A1C86E783428FD9031C0A1C8CE730
:10093000511C99D1B6E7C046021000F020010020FA
:10094000000008401E010020C00100201C01002002
:10095000031000F0C40100209BFFFF00010000FF16
:10096000F0B55F4656464D464446F0B4724F83B0EC
:1009700000F074FDFA693B6901901340191C0322D1
:100980009143B9619B0700D48DE001236B4A7C68D9
:100990001370220290466A4A4646924602229346C5
:1009A000684B694D99461B681B025946FA69F01A53
:1009B0008A43FA61000AFFF76FFD6B7F002B00D0BE
:1009C00087E04523EB5C002B00D08BE06D23EB5CD4
:1009D000002B00D08FE09523EB5C002B00D071E062
:1009E0002B7F002B6AD029686B684422AA5C002AFE
:1009F00006D0EA6AA86A934200D984E000D17FE079
:100A00006C22AA5C002A06D06A6D286D934200D938
:100A10007FE000D17AE09422AA5C002A06D0EA6F37
:100A2000A86F934200D97AE000D175E000225046C9
:100A300002704A1C00D17AE0002B3DD1434B994211
:100A40003AD83E4B1A78231C002A00D1330A4A4672
:100A500013605B4661180902BB61090A002001F0BE
:100A6000D1FA0123524613705A46FB691343FB61C6
:100A70004B467C681B6826021B02F31A1B0A0020E7
:100A8000984601F0B1FA4B4652461B6800021B0221
:100A90001278C01A000A002A01D0804585D80023A8
:100AA000264A0198137000F0DDFC03B03CBC904670
:100AB0009946A246AB46F0BD2449C2E7012149420E
:100AC0000B1C92E79823E958083BEB580320984702
:100AD00086E7AB690020296A98474523EB5C002B29
:100AE00000D173E72B6C0120A96C98476D23EB5C58
:100AF000002B00D16FE70220296FAB6E98476AE7A1
:100B0000814200D87CE7011C131C79E7814200D8A0
:100B100081E7011C131C7EE7814200D886E7011C97
:100B2000131C5046002202704A1C00D084E75A1C55
:100B300000D081E79CE7C046000008401E0100206D
:100B40001C010020C4010020200100209BFFFF00A9
:100B500070B50E79051C0C1C1C48002E23D100F02A
:100B600019FA1B4B1B499C46604402F051FD0028BA
:100B700023D10A236B602278FE2113066278C90311
:100B800012011A43A3781A43101CE3781B040B408C
:100B90001A1C031C134362793343002A01D0082234
:100BA00013432B6070BD00F0F5F9084800F0F2F92E
:100BB000FE233602DB011E40DBE7FE260138F6018C
:100BC0007F28D6D800020640D3E7C0464081040003
:100BD0003F5DC600405DC60002234360294B70B5EF
:100BE0008C78456B984223D04B781A050B781B07FD
:100BF0001343CA78120113430A79120213438A7904
:100C0000002A02D0802252041343CA79002A01D05C
:100C1000042213434A79002A01D0022213430A7A9C
:100C2000002A01D00122134324042343C36070BD72
:100C3000062C25D8144AA300D3589F467F22134B75
:100C40001B681340124A2A4013430E4A5363CBE7F2
:100C5000104A136812685B005B0E1E0253025B0EA3
:100C60003343EFE70B4A7F26136812681640FE22D3
:100C7000D20113403343E5E7074AEAE7064AF2E7C1
:100C80000023DFE70020004064680000BC81E00F23
:100C90008080FFFFB881E00FB481E00F38B5030614
:100CA0001B0F072B45D8564A9B00D3580C1C9F4658
:100CB000FFF7DCFA534B544ADD6BDA635A68534B47
:100CC0000021984206D9524B0131984202D907239C
:100CD0001340191C07204B4A536883430B4353604E
:100CE000002D01D00023D3634A4A013C11684A4BCE
:100CF000A4030B40211C19431160FFF74FFA414B2D
:100D0000414ADC6BDA635A68404B0021984206D9AD
:100D10003F4B0131984202D907231340191C072089
:100D2000384A536883430B435360002C01D000239F
:100D3000D36338BD394B9842FBD1364A536DDB073C
:100D400058D5201C02F0E6FD1F223249101A0B6F05
:100D50001C3A934318430867EBE7081C02F0DAFDDE
:100D60001F222C49101A8B68103A9343184388604D
:100D7000DFE7FFF77BFA234B234ADD6BDA635A6820
:100D8000224B0021984203D9214B0131984228D8A7
:100D900007201C4A536883430B435360002D01D046
:100DA0000023D363201C02F0B5FD1F221949101A3D
:100DB0004B68103A9343184348609EE7184B98429B
:100DC000B7D1144A536DDB070FD5201C02F0A2FDEA
:100DD0001F221049101A8B6E103A934318438866ED
:100DE000A7E707231340191CD2E70421136D19420A
:100DF000FCD1EAE74021136D1942FCD1A1E7C046BE
:100E00008068000000000C40711B00000024F4000A
:100E10000048E80100800C40FF3FFEFF700716000D
:100E200060061000030530B51B0F0A2B14D8164AB4
:100E30009B00D3589F468025144C6D00144AC00374
:100E4000536DC00EDB0708D5012281408240081C8B
:100E5000236893431843206030BD136D2B42F3D0B9
:100E6000136D2B42F9D1EFE70A4CC003C00EEBE73C
:100E7000094CFAE7094CF8E7094CF6E70125094C5B
:100E8000DCE71025084CD9E7A068000064800C401E
:100E900000800C4044800C4040800C4078800C4026
:100EA00008800C4058800C4060800C400F23184094
:100EB000072857D8334B80001B589F4607207047A0
:100EC000314BD86AE023DB02184080239B02984212
:100ED0004AD08023DB02984252D02C4B9C4660447F
:100EE000434258410130EAE7274BDA6A284B134066
:100EF00080225201934237D03CD9802202209201B5
:100F00009342DCD080220930D2049342D7D005200E
:100F1000D5E70C211C4A936A0B40082B28D00C2BD8
:100F200024D0042B20D0936ADB0219D50C20C6E70D
:100F30003020154B9B6A1840102815D020384342AA
:100F400058410130BBE703210F4A936A0B40022B43
:100F50000ED0032B0AD0012B06D0936ADB03E5D415
:100F60000120ACE70020AAE70320A8E70620A6E7B7
:100F70000220A4E780220420120193429FD0C6E7FA
:100F80000A209CE7CC68000000800C400000FFFFB6
:100F9000003C000408B5F8239B031840E0231B0322
:100FA000984200D1ACE02CD9D0235B03984200D109
:100FB00093E03ED880235B03984200D16AE0B023DF
:100FC0005B0398425CD18248FFF770FF814A936AC5
:100FD0001B079B0F022B00D1F1E0032B00D1B5E0E2
:100FE000012B00D1E7E0926A0023120D02D0FFF737
:100FF000A7F9031C0320774A126F1040C340181C46
:1010000047E080239B02984264D060D98023DB02B2
:10101000984237D0C0231B03984231D16E48FFF766
:1010200045FF072800D19BE0092829D1FFF722F9C5
:101030002FE0E0235B03984212D088239B03984261
:101040001ED16648FFF732FF032800D16AE000D8BE
:101050006BE00928EAD00A2812D1614B186818E021
:101060005B48FFF723FF5B4A936A1B079B0F022B2A
:101070005DD0032B66D0012B54D0936A1B0D3CD15D
:10108000002006E0FFF7F6F80F22524B9B68134052
:10109000D84008BD5348FFF709FF03214D4A936A22
:1010A0000B40022B00D17EE0032B53D0012B00D14B
:1010B0007DE0926A0023120C02D0FFF741F9031C75
:1010C0000F20444A926E1040C340181CE1E70028EC
:1010D000ACD0D5E7FFF762F8DBE74248FFF7E6FE62
:1010E00003213C4A936A0B40022B20D0032B29D0CA
:1010F000012B17D0936A1B0CC2D0FFF721F9C8E768
:10110000E0218022334BC9005B6992000B4093427F
:101110003BD00FD8002B21D0013AFF3A9342AFD1F8
:101120003148B6E7FFF708F9B3E70228A8D1FFF77F
:101130000BF9AEE7C022920093422DD08B429FD193
:101140002A48A6E7FFF72AF84008A2E7FFF726F8A3
:1011500043084FE7FFF722F84308B1E7244898E730
:101160001C4B5A69E023DB0013408022920093421B
:101170000BD0CFD9C022920093420DD0E022D200F2
:10118000934200D07CE7194883E71A4BDB6C1B0EB7
:10119000122B1AD918487CE7164BDB6C1B0E122B4E
:1011A00011D9164875E7FFF7CFF8031C88E7FFF75A
:1011B000C3F8031C84E7FFF7BFF8031C1AE7FFF727
:1011C000C3F8031C16E70E4863E70E4861E7C04604
:1011D00003001C0000800C4006000C0007332200B6
:1011E0000C00002002001A00C0D8A700406F400188
:1011F000809FD500B081E00F40B56400804F1200A1
:1012000040420F00C0CF6A0038B50F2318400728AE
:1012100049D8824A8300D3589F46012201240123E2
:101220007F490B62012393401A1C7E490B681342CD
:10123000FCD0FFF71BF87C4B7C4ADD6BDA635A6805
:101240007B4B0021984206D97A4B0131984202D952
:1012500007231340191C0720734A536883430B4329
:101260005360002D01D00023D3636D4B5C62FEF709
:1012700095FF6D4B6D4ADC6BDA635A686C4B00214D
:10128000984206D96B4B0131984202D9072313408B
:10129000191C0720644A536883430B435360002C96
:1012A00001D00023D36338BD03293AD00A2953D093
:1012B0000229F8D180225A4B52005A491A629218D8
:1012C0000B681342FCD040238021554A49025362E7
:1012D000D36A0B42FCD0E6E7022911D0032931D0B2
:1012E0000129E0D1002015E00C29DCD8524B8900FF
:1012F0005B589F460B29D6D8504B89005B589F46B8
:101300008022474B520047491A6292180B681342D9
:10131000FCD020203021424A936A8B4303439362DE
:10132000C1E740223E4B3F491A6240320B681A42E5
:10133000FCD0602380213A4A89025362D36A0B426F
:10134000FCD0B0E74022364B36491A6240320B6877
:101350001A42FCD01020DDE78022314BD2001A6205
:1013600080223049D2030B681342FCD080238021B5
:101370002B4AC9025362D36A0B42FCD093E7002484
:1013800000220021022840D025492D4A8B6A1340B3
:1013900023438B6287E7802316220524DB003FE787
:1013A00080248022640352020021EBE70423254AB3
:1013B0000C2411680B43136003210022E2E7402252
:1013C000174B18491A6240320B681A42FCD00424A9
:1013D00000220121D6E78022114B520011491A62E6
:1013E00092180B681342FCD0082400220221C9E79E
:1013F00007220324402313E78023092204245B00EF
:101400000EE70322022404230AE705480E4B846AF0
:101410000A4323401A43826245E7C046EC68000055
:1014200000800C402C800C4000000C40711B000020
:101430000024F4000048E8010C6900004069000045
:10144000F3FFEFFF40800C40FCFFFEFFEFF3108046
:1014500072B67047002800D162B67047EFF3108073
:1014600072B67047002800D162B67047F0B5574693
:101470004E4645468023E0B41E4F5B01FA581E4B92
:101480000126FB581340BA6B141C1C409343994629
:1014900002239A460025002C1FD0184B984626425E
:1014A00017D0331C4146AB40BA687B502B01D31890
:1014B000DB68002B0DD00122197A4A401A721A6893
:1014C0009446002A05D04A1E9141281CC9B25A6888
:1014D000E04764080135002CE1D15346012B03D0CD
:1014E00001234C469A46D5E71CBC90469946A24635
:1014F000F0BDC04600200C400C1000000810000099
:10150000F0B5234E0701B4683C19251C002901D110
:10151000F5687D19E468002C00D02172059C002C30
:101520000BD0AC682401A40F032C2DD0069EA6403E
:10153000341C059EB44664442C60002B07D0AC6874
:10154000A40F032C02D0069EA6409B196B600123BA
:101550008340181C0E4B002A10D098610C4B0029B8
:1015600010D11863AA680B4B134001221343069A4B
:1015700016011E43064BAE609862F0BDD861044B65
:101580000029EED05863EDE7059C2C60D5E7C046F6
:1015900000200C4008C0FFFF154A30B594680301D5
:1015A000E3188C68DC600B78002B11D0012383409A
:1015B00093638822D2000E4C82184D689200155118
:1015C0004A78002A08D10B490A689A430A6030BD5C
:1015D00001238340D363ECE7074A0649A3500A6816
:1015E0009A4301238340181C10430860EFE7C0466C
:1015F00000200C400C300C400810000030B50D4BA2
:10160000002915D1DB68D17800018C0311791818F5
:10161000890493782143147852781D07A4072C433A
:10162000920614431A06231C13430B43836030BDF8
:101630009B68E8E700200C40034B9B6AC340181CE2
:10164000012318407047C04600200C40F8B5012126
:10165000051C1848FFF7E6FB0121802300223F20EC
:10166000154C164EE150164B164F5A60D861586211
:10167000D8625863D8631448D9649A511F50882798
:1016800012487F01DA51C251114FC251114FC2515C
:10169000114FC251114FC2518132FF32A1508022ED
:1016A000120621609A516A689A602A7852011143A1
:1016B0005960F8BD0013020000E100E00C100000CA
:1016C00000200C403F0000800810000004200C4067
:1016D00004110000081100000C110000101100009E
:1016E000F0B5474680B4002811D104232E4A116971
:1016F0000B431361FFF7AAFE041C05F0A9F8201C98
:10170000FFF7A8FEFEF74AFD04BC9046F0BD274B4C
:10171000274D9846DB6A042711202B60FFF7C6FB94
:10172000214A244E136930703B431361FFF78EFE4C
:10173000041C05F08DF8201CFFF78CFE8423424624
:101740004146D4581C4A0120CA5040222968743BA3
:1017500004400B4008400A40034313430F401F431B
:1017600080235B000B4080221F430B1C920313401D
:1017700001D08023DB000D4A31783B4313620529F9
:1017800005D01120FFF740FD0123286818400028EC
:1017900006D0002CB8D000218423044AD150B3E7EE
:1017A0000222024B1A62F4E700ED00E000800C40D8
:1017B000C8010020CC0100200E580000F0B54746BB
:1017C000C40080B49846002A0AD00126C400251817
:1017D0008E40AD00002B37D0234B9C4665442E61D4
:1017E00007291FD8204B8E009C460F23B340251895
:1017F000AD0065446F689F43131CB3401E1C3E43FD
:101800006E60002A0BD14346002B22D101238B406E
:10181000191C164B20189C4680006044416004BC93
:101820009046F0BD104B26189C46114BB600CD18C3
:101830000F23AD00AB406644B7689F43131CAB4019
:101840001D1C3D43B560DCE7084B9C4665446E605B
:10185000C6E701238B40191C034B20189C468000CF
:1018600060440161DBE7C04600600040106000405A
:10187000F8FFFF3FF8B50023022243631C4B0D1C09
:1018800003630368041C9343191C6B78013A5340AB
:101890005B000B430360AE6868682F7B002E06D1A7
:1018A0000122236893432A7813432360F8BD2268FA
:1018B000104B1A402260226813403A0213432360FF
:1018C000002810D02368B300C01A0B4BD95D7143B8
:1018D00001F09EFE236801389B0702D5002800D145
:1018E00001302061DCE70548FFF754FBEAE7C0461A
:1018F000CFFF0100FFFCFFFFB8690000408104003A
:10190000F0B55F4656464D464446B34BF0B4984258
:1019100000D0F2E0B14B9A685E889446B04A1C79D8
:10192000904680229246403A91463C3A9346197836
:10193000826AC027151CFF003D4000D00AE108293B
:1019400000D9DDE047468D007D59AF4607215E8016
:1019500019701C71920619D5E40064449E4D2289C9
:101960005988EE698A4200D8EDE06468481C80B26C
:1019700058806654824200D8E5E004236B60012A57
:1019800004D0013A904201D104336B60012013E08E
:1019900008211970F8315E801C710A42F6D08E4A17
:1019A0001163092258781A7000228B4940B24A63A9
:1019B000012801D100205A703CBC90469946A246AD
:1019C000AB46F0BD62465E801C715088C20600D4F2
:1019D000AAE0624606211288120A0A40EA310A4346
:1019E000410701D501210A43042119707A4B0339BB
:1019F000596001205A62DFE75146114200D0B7E03A
:101A00004946114200D1CFE06246016359465288EF
:101A1000114270D007225E801C711A700120CBE742
:101A2000E20062441589B54200D9B2E062465688A8
:101A30005A460134E4B2324000D07AE001252E400B
:101A400000D0C6E0012C00D872E75E801C7108222D
:101A50001A70614B063A5A600120ADE751461142B7
:101A600000D085E04946114200D1ACE04A4602630D
:101A7000624652885849D50600D59BE092073AD570
:101A800007221C71E4005E801A7064442389012BD4
:101A900000D07BE707334B6001208DE762465E8014
:101AA0001C715188CA0636D5624606211288120A70
:101AB0000A40EA310A4301211970474B01205A625A
:101AC000596079E75146114252D14946114233D10A
:101AD00002225E801A701C7101206DE7514611428E
:101AE00046D14946114205D106225E801A701C710A
:101AF000012061E7016305211AE7042040425BE70A
:101B0000FB2205205A70F23A5E801C711A70324B2B
:101B100040425D6350E76246FE201288024089071A
:101B2000C9D501210A43C6E76246FE2112880A4050
:101B300056E700260321FBE66246016352889207BE
:101B4000D9D50321F4E6012A00D080E70821224AF2
:101B500051607CE75E801C71910505D5FD22FD205A
:101B60005A7009221A701FE752050ED45878F8E708
:101B70008021194A5E801C7111637F315970F739D9
:101B8000197002230120536016E7FE22FE205A70CE
:101B9000E7E75268711C5980915D0F4A1C715162D0
:101BA000062201201A7007E704225E801A701C7159
:101BB000012001E702225E801A701C7163461B78C7
:101BC00001204B62F8E601225E801A701C71012030
:101BD000F2E65A801C713AE700A00040D0010020D4
:101BE00070690000F0B55F4656464D464446F0B475
:101BF000BE4B83B0984243D18368DB0701D52023D5
:101C000043604B889A0702D50A89002A38D05B07BF
:101C100002D50B8A002B33D000220120B44B1A715D
:101C20001A705A80B14A5870BF3099605060906AFB
:101C3000800623D4FC24AD4AAE48E4001063506B08
:101C40002043E13CFF3CA446AB4C5063A0468024BB
:101C5000A246403CA1463C3CA34618785E881D79CC
:101C600001926746019A946A274000D008E108284B
:101C700000D9C8E042468700D759BF46D269D9E7A4
:101C80000420404203B03CBC90469946A246AB4675
:101C9000F0BD5246224200D000E14A46224200D125
:101CA000D0E04A46019802630520DAE708221A705C
:101CB000F8325E801D7114421FD08C490A63587837
:101CC000F73A1A700022894940B24A630128D9D1F3
:101CD0005A700020D6E75E801D714888C20600D584
:101CE000A3E00A88FE210A40810701D501210A43A9
:101CF000012119707D4B5A6259600120C2E752469A
:101D0000224200D0CAE04A46224200D1F6E00198C1
:101D1000764C02634888C20600D5DFE08207C3D54F
:101D200007221D71ED005E801A7049190B89012B85
:101D3000E3D1073363600120A4E75246224200D07A
:101D4000ACE04A46224200D176E04A46019802635E
:101D500048888207A8D5032083E707225E801A708F
:101D60001D71A206C9D5ED004919604C0A89B0B2AF
:101D7000E56982426FD8012A00D19CE008221A70DE
:101D80005A4B063A5A6001207CE75E801D714888F4
:101D9000C20643D40A88FE210A40410701D5012129
:101DA0000A4304211970514B0339596001205A62CA
:101DB00068E75246224271D14A46224200D1A3E04E
:101DC0004A46019802635A464888024200D16BE7AE
:101DD00007225E801D711A70012053E7EC000C1978
:101DE0002789B7426FD85C464E880135EDB2344042
:101DF0002ED10122164000D08CE0012D00D830E712
:101E00005E801D71BAE7FB2205205A70F23A5E80AF
:101E10001D711A70354B40425F6333E70A88062113
:101E2000120A0A40EA310A43B7E70A880621120A71
:101E30000A40EA310A435BE702225E801A701D7194
:101E400001201FE706225E801A701D71012019E72C
:101E50000026032005E74E68411C89B2598035549D
:101E60008A4200D887E704236360012A00D144E74F
:101E7000013A914200D040E704336360012001E75A
:101E80005E801D71A20505D5FD22FD205A70092234
:101E90001A7017E7620512D45878F8E78021134AC0
:101EA0005E801D7111637F315970F73919700223FB
:101EB00001205360E6E608210C4A51605EE7FE22ED
:101EC000FE205A70E3E76268711C5980915D074AF1
:101ED0001D715162062201201A70D3E602225E8033
:101EE0001D711A700B7801206362CBE600A00040E0
:101EF000D0010020CFFF01009469000001225E8024
:101F00001A701D710120BDE604225E801A701D71D9
:101F10000120B7E65C801D7130E7C04605238B4386
:101F20005B001943036CDB0703D40222436C1A42A3
:101F3000FCD141607047C046036C70B5041C0D1C99
:101F4000DB0703D40222636C1A42FCD10A236360CC
:101F5000636C002BFCD11C210133236423682A7B92
:101F60008B4313436A7B68681343AA7BAE681343B1
:101F7000236000280AD10E4B9C4204D02B7863606A
:101F80000023236470BD0B48FFF704F84001311CA7
:101F900001F03EFB084B2038C0001840236CDB07E3
:101FA00003D40422636C1A42FCD1E060E6E7C04629
:101FB0000040084070071600F87F0000036CDB0744
:101FC00003D40122436C1A42FCD1002904D10268D7
:101FD000044B13400360704780220368520113438F
:101FE0000360F8E7FFEFFFFF002806D0012801D0CB
:101FF00000207047024BD868FBE7014B9868F8E770
:1020000000000840002804D0012801D1024B1960CB
:102010007047024B1960FBE70C00084008000840BD
:1020200042780378002A01D0022213438278002AE2
:1020300001D004221343014A136070470000084096
:102040000123044A116899431160116899430B43B5
:1020500013607047000008400023012209490B70FB
:10206000094B5A600B78002B08D10420074A1369EA
:102070008343136130BF0B78002BF8D0024B586AB2
:102080007047C046DC0100200020004000ED00E069
:10209000034B9A691A620122024B1A707047C046BC
:1020A00000200040DC01002000231F2270B5184EE4
:1020B00086B003AC01AD17480121EA702B706B703C
:1020C000AB702B716B7123706370A370E37023711D
:1020D0006371A371E3712372FEF7A4FE301C291C07
:1020E000FEF736FD01250423211C301C6370257189
:1020F000FEF772FDC0211022074B4900736373691C
:102100001D43064B75615A501A6006B070BDC0463B
:102110000020004000A204007C1F000000E100E05D
:10212000F0B54746EC2380B490B004AC2380E83B84
:1021300001AE638084333370873B98462381182334
:1021400009AD211C071C6660E5602382FEF790F94B
:10215000002803D010B004BC9046F0BDE1233370DA
:102160004346238108236660381C02AE211CE660CA
:102170002382FEF77DF90028ECD16A7829782A4B72
:1021800012020A431A80EA78A97812020A435A8096
:102190006A79297912020A439A80EA79A9791202A6
:1021A0000A43DA806A7A297A12020A431A81EA7AA1
:1021B000A97A12020A435A816A7B297B12020A43D6
:1021C0009A81EA7BA97B12020A43DA816A7C297C24
:1021D00012020A431A82EA7CA97C12020A435A823A
:1021E0006A7D297D12020A439A82EA7DA97D120244
:1021F0000A43DA826A7E31781A76727812020A43CA
:102200005A83B2781A77F178727908010F21114058
:102210000143D983B179120909010A431A842222A0
:10222000F1790020995495E700040020F0B5444668
:102230005F4656464D46EC23F0B489B003AC9B464E
:10224000238001239A466380F22302AD2B70012381
:102250006B70022399462381002301AF211C98460D
:10226000061C23826560E760FEF702F95B46238067
:1022700053466380F4232B70CF3B6B704B46238116
:102280004346211C301C23826560E760FEF7F0F8AE
:102290005B46238053466380F5232B70553B6B7060
:1022A0004B4623814346301C211C6560E760238236
:1022B000FEF7DEF8002009B03CBC90469946A246E5
:1022C000AB46F0BDF0B544464D465F465646EC235E
:1022D000F0B489B003AC23809946042301266380BF
:1022E00002ADCC3301AF211C2B7080466560268186
:1022F000E7602682FEF7BCF80023002803D13A7875
:10230000031C602A07D0181C09B03CBC90469946B3
:10231000A246AB46F0BD4B462380E0232B702A3B00
:102320006B702082B43B211C40462381668065602F
:10233000E760FEF79DF89620400000F0A3FAEC233A
:102340009B46E83B9A46EF33994605E03B781E42B0
:1023500013D0642000F096FA5B4623805346012692
:1023600063804B464046211C2B7065602681E760E8
:102370002682FEF77DF80028E8D04046FFF7D0FE21
:102380004046FFF753FF0123BDE7C046F0B5444682
:102390005F4656464D46EC23F0B489B003AC23802B
:1023A000EB3B02AD6380F3332B70CB3B6B70273B71
:1023B0002381002301AE211C238280466560E660F4
:1023C000FEF756F8EC239B46E83B9A46EF3300278E
:1023D00099465B462380534663804B462B7001230E
:1023E0004046211C65602381E6602382FEF740F8A9
:1023F000002800D13778012000F044FA3B07E8D4E8
:10240000002009B03CBC90469946A246AB46F0BDC0
:10241000EC23FA2270B588B00C1C03A90B80E83BB2
:102420004B8001AB1A704B60012302AE0B8102336B
:10243000CE600B82FEF71CF8002806D13578737841
:102440002D041B021D43B3781D4380231B049D42B2
:102450001AD00F492A0A0B88ED09D21A5B00ED1A2F
:1024600002200B5E00205D43131C534304228A5E4E
:102470001B0B5343ED0A9B0BEB189A00D3188033C8
:102480001B12236008B070BD01204042FAE7C0462D
:1024900000040020F0B544464D465F465646EC2306
:1024A000F0B48FB009AC2380E83B07AE6380F33310
:1024B0003370F63B238108AD02338B466660E560DE
:1024C0002382211C8146FDF7D3FF002807D12B78FA
:1024D0001A046B781B021343AA7813430293EC236C
:1024E0002380E83B6380F6333370F93B238102336A
:1024F0006660E56023824846211CFDF7B9FF00288D
:1025000007D12B781A046B781B021343AA78134364
:10251000984680231B04984518D04246414673488C
:10252000120A0388C909D21A5B00CB1A0221475E3E
:102530007B43DF0A131C53430421425E1B0B5343AE
:102540009B0BFB189F00FF1880373F128023029AD5
:102550001B049A4200D1C6E03A1CFB170127644EC7
:102560007F42B6185F41321C3B1C301C391C01F005
:1025700033FA5E4B0090019198461B8A321C0393FC
:102580004346DB89049343469B89059343460820D1
:10259000185E3B1CC11701F01FFA030D0D031D430C
:1025A00043460A229A5E0403D3170098019901F06A
:1025B00013FA0B069C46020A60460B120243802166
:1025C000A4185D41002043460902DA8800196941D8
:1025D000002301F001FA4B109A46CB179946534657
:1025E0004A46134300D17AE0009801996B460C22C9
:1025F0009A5ED31701F0F0F96B46041C1020185EA8
:10260000321C3B1C0D1CC11701F0E6F9C60B4B0434
:1026100033434204A4185D41029B1A1180235B03DB
:102620009B1ADE175A08D8076B46F10711430022A0
:1026300014269E5FF300A4185D412E4A001BA94199
:10264000002301F0C9F952464B4601F081F9CB0451
:10265000460B1E434346041C1620185E4F130D1CE8
:10266000321C3B1CC11701F0B7F9021C0B1C301CBB
:10267000391C01F0B1F9CB01460E1E43434614202C
:10268000185E221C2B1C4F16C11701F0A5F9361934
:102690006F41C20C4C032243CB14B6185F413B067A
:1026A000300A1843434612241C5F3912E617250FDF
:1026B00033012B4322018018594101F0D5F90E4B0B
:1026C000002202F0E9F902F0FBFF5B4618600020EF
:1026D0000FB03CBC90469946A246AB46F0BD5A4668
:1026E00000201360F4E701204042F1E700040020DD
:1026F000000CFEFF350C00000000703FF0B54D46A9
:1027000056465F464446EC23F0B489B003AD2B80B7
:10271000E83B01AF6B80F6333B70F93B2B8102AE97
:1027200002330C1C6F60EE602B82291C8246FDF781
:102730009FFE002807D133781A0473781B021343D5
:10274000B27813439B4680231B049B451BD05A46FB
:1027500059464348120A0388C909D21A5B00CB1AAA
:102760009C460223C15E63464B43D90A131C534364
:102770000422825E1B0B53439B0BCB189A00D31889
:1027800080331B129846EC232B80E83B6B80F93397
:102790003370FC3B2B8101336E60EF602B8250461F
:1027A000291CFDF765FE002804D13B7879781B02CF
:1027B0001943894680231B0299454ED04A46284D2D
:1027C00090031E22A95E274B0905421A2020295E8C
:1027D00043445943511A8022D20194462222A856DA
:1027E0002A7F58435A4380231B0261449C46D212DD
:1027F0006244131C802292039446801243431A20A1
:102800002A5E9B12634453438022920194466344A0
:102810009B13C9135943CB135B43287EDB114343FE
:102820001B11C91AC843C823C01701405B05994250
:1028300011DC081302F07AFF0B4A0C4B01F008FE82
:1028400002F03EFF2060002009B03CBC9046994653
:10285000A246AB46F0BD191CEBE701204042F3E76E
:102860000004002000D4FEFF9A9999999999594043
:1028700008B5FDF7A3FE0248FDF76EFE08BDC04691
:1028800024040020074B021C1868002300B583B005
:1028900000930021FDF7DEFE0120FEF721FF03B0CB
:1028A00000BDC0462404002000B5064B83B0009351
:1028B0000023012001930022034BFEF721FE03B009
:1028C00000BDC0461C4008402804002000B5124B43
:1028D00083B0DB69DBB20A2B0ED0104B1A78302A9A
:1028E0000CD91A780E4901208A18002151700D4A1E
:1028F0001070197003B000BD084BF2E71A78012080
:102900000132D2B21A701B78054AD3180022009205
:102910000192FEF7F5FDEDE700400840F8010020C8
:1029200028040020DD010020F0B500248DB0204BEC
:1029300004A804704360FEF789FE1E4D1E4B06A9D5
:10294000EB6080235B034B602B1C01270C332C6155
:10295000012003260C704F708B60FEF71DFE6B4646
:102960006A46012001211E705E709C70DC701C7133
:10297000FEF744FE00216A460120FEF73FFE0F4BA2
:1029800009A92B600E4B6C6000204B600C704F70DF
:102990008D60FEF701FE02AA00200121167054701E
:1029A0009470D4701471FEF729FE0DB0F0BDC046CE
:1029B00000030020E0010020CD280000A92800002D
:1029C0000100100000B50A4A83B0536C002BFCD103
:1029D000013900900191002001210022054BFEF7F2
:1029E0008FFD0020FEF728FE0028FAD103B000BDBD
:1029F000004008402840084030B5244885B00121F7
:102A0000FEF710FA22480121FEF70CFA03200421F8
:102A100004220123FEF7D2FE032005210122002318
:102A2000FEF7CCFE6A461B4B6C4623CB23C21B68C9
:102A3000194D136019480121FEF7F4F918480221D5
:102A4000FEF7E2FB281C0121FEF7ECF9281C01210E
:102A5000FEF724F90023134D6946281C2370FFF765
:102A60006BFA0323281C6B650121FFF7A7FA0423E7
:102A700080216B630C4A7D33FF33C900D150281C81
:102A80000521FFF74BFA05B030BDC0464081040078
:102A900000820400BC6900007007160000230200D9
:102AA00003001C000040084000E100E008B50421DC
:102AB000042201230320FEF781FE1420FFF7E2FE2B
:102AC0000422002303200421FEF778FE1420FFF7E0
:102AD000D9FE1022014BDA6708BDC04600600040F5
:102AE00030B5151C134A83B0536C002BFCD101394F
:102AF000009001910020012100220F4BFEF700FD04
:102B00000020FEF799FD0028FAD10C4C2378002B09
:102B100005D10120FEF7E4FD2378002BF9D0281C15
:102B2000074903F03DFB0023064A2370137003B0EE
:102B300030BDC0460040084028400840DD0100206C
:102B400028040020F801002070B5104B82B00093DB
:102B500000230F4D0193061C2B1C01200121002294
:102B6000FEF7CEFC0B4C2378002B05D10120FEF79D
:102B7000B7FD2378002BF9D0301C291C03F010FB83
:102B80000023054A2370137002B070BD1C4008403A
:102B900028040020DD010020F8010020F0B54446A3
:102BA0005F4656464D46F0B4B5B018AD2A1C724B80
:102BB00013CB13C213CB13C227AB9B4600235A4639
:102BC000279353609360D360136153619361D36122
:102BD000136253629362D36213860EAB98464246E9
:102BE000664B43CB43C2196813AE11601B79137156
:102BF000321C634B83CB83C219681EAF11601B79F3
:102C000013713A1C5F4B13CB13C213CB13C203CB0C
:102C100003C21B7813705C4BDB6C1B0E812B07D837
:102C20005A4A5B4B1A605B4A5B4B11680B4013605E
:102C300001215A48FEF7F6F8FFF71AFEFA20400085
:102C4000FFF720FE281CFDF785FB1898FFF73AFBDD
:102C5000FFF72AFA3221584600F0A8F8FA2080003F
:102C6000FFF710FE322342460093301C5B46391CAE
:102C700000F0E4F80023059098460AAC13E0002326
:102C80001621E37232235A46201C00F0FFFB404617
:102C90000A21013000F032FECBB298464048594636
:102CA000322200F0B3F82868FFF770FB07A9286804
:102CB000FFF7AEFB079801F05BF83A4900F020FF00
:102CC00002F0A2FD00F04EFC061C0F1C286808A9AB
:102CD000FFF7E0FB089801F04BF8324900F010FFD5
:102CE00002F092FD00F03EFC0290039109A92868D1
:102CF000FFF704FD099B9946FFF7AEF9059B824655
:102D0000002BCBD0391C301C02F0DAFC86B20298C2
:102D1000039902F0D5FC0123237066336370330AF4
:102D2000A370E6706823022687B2052148466371C6
:102D3000267100F0FDFC0323E371703323723B0A1C
:102D400063724346A071A772002B98D1504602F0DF
:102D500029FD154B002201F09FFE00F067FE0423C1
:102D6000E372FF231B0203401B0A6373434626736F
:102D7000A073E3731E2185E7CC690000E4690000BD
:102D8000F86900000C6A0000B081E00F0500000443
:102D900018600C40E4800C40FFFFFFFE008204003E
:102DA00040771B00000020410000B93F10B50A2108
:102DB000042200230020FEF701FD1420FFF762FD2E
:102DC00001230A2104220020FEF7F8FCFA20FFF775
:102DD00059FD0C4C00215022201C03F0CAF8FFF7CB
:102DE000A3FDFFF763FEFFF707FE0222201C064942
:102DF00003F0B6F8201C0121FFF7E4FD1420FFF7D3
:102E000041FD10BD80040020306A0000031C70B535
:102E1000084C0E1C151C08491A1C201C03F09EF9B6
:102E2000201C03F0C5F9321CC1B22B1C201CFFF77B
:102E300057FE70BD80040020346A0000F0B54E4695
:102E400045465746E0B41D1C904684B00CAB8F4CF1
:102E50001E78102281460F1C201C8D4903F080F83B
:102E6000331C201C0F212A1CFFF73AFE4346002B7F
:102E700000D1EBE0404603F09BF9864B9A461028C0
:102E800000D1DAE084495246201C03F067F9201C87
:102E900003F08EF9331CC1B22A1C201CFFF720FE60
:102EA000484603F085F97D4B9846102800D1BBE0D9
:102EB0007B494246201C03F051F9201C03F078F9AD
:102EC0002A1CC1B2331C201CFFF70AFE381C03F079
:102ED0006FF98146202800D19AE0724B984642460D
:102EE0007149201C03F03AF9201C03F061F9331CEE
:102EF000C1B22A1C201CFFF7F3FD6C490122201CE3
:102F000003F02CF9201C03F053F9331CC1B22A1C26
:102F1000201CFFF7E5FD66491222201C03F020F873
:102F2000331C201C11212A1CFFF7DAFD61491122F4
:102F3000201C03F015F8331C201C10212A1CFFF75D
:102F4000CFFD5D491122201C03F00AF8331C2A1C16
:102F50001021201CFFF7C4FD03F0B2F8052100F09A
:102F6000CDFCFF22201C0A40544903F0F7F8201C36
:102F700003F01EF9331CC1B22A1C201CFFF7B0FD60
:102F80004F499622201C03F0E9F8201C03F010F9A9
:102F9000331CC1B22A1C201CFFF7A2FD49490B2299
:102FA000201C02F0DDFF2A1C331C201C0A21FFF725
:102FB00097FD0122444B0A271A70444B9946444B13
:102FC000984649461022201C02F0CAFF201C0F21FF
:102FD0002A1C331CFFF784FD281C311CFFF7B4FDAD
:102FE000281C414600F070FA002809D06420FFF741
:102FF00049FC012004B01CBC90469946A246F0BD95
:103000003448013FFFF73EFC002FDAD10020F1E702
:10301000244B391C9846181C212202F0A1FF0023E2
:103020004246494653545AE7181C1122494602F0B9
:1030300097FF0023424613743AE7181C11224146B9
:1030400002F08EFF0023524613741BE7224911221F
:10305000201C02F085FF331C2A1C201C1021FFF7C6
:103060003FFD291C684603F09BF8684603F0A0F872
:10307000084B9A46102800D004E7181C1122694614
:1030800002F06EFF534642461A74FBE680040020AD
:103090007C6A0000080500208C6A0000D004002033
:1030A000A06A00005C040020B46A0000106B0000FD
:1030B000246B0000386B00006C6B00004C6B000050
:1030C000806B0000946B0000F9010020A06B0000F1
:1030D000B06B000088130000446A0000F8B55F463A
:1030E00056464D464446F0B41D1C93460AAB684C08
:1030F0001E781022071C8946201C664902F030FF0A
:10310000201C0F212A1C331CFFF7EAFC584603F051
:103110004FF88246202800D1A2E05F4B98465F49D5
:103120004246201C03F01AF8201C03F041F82A1C28
:10313000C1B2331C201CFFF7D3FC484603F038F81B
:103140008246202800D197E0554B98464246554983
:10315000201C03F003F8201C03F02AF8331CC1B232
:103160002A1C201CFFF7BCFC381C03F021F84E4B36
:10317000984608286BD042464C49201C02F0EEFFCE
:10318000201C03F015F8331CC1B22A1C201CFFF7C9
:10319000A7FC47490122201C02F0E0FF201C03F09D
:1031A00007F8331CC1B22A1C201CFFF799FC4149C7
:1031B0001222201C02F0D4FE331C201C11212A1CD8
:1031C000FFF78EFC3C491122201C02F0C9FE331C83
:1031D000201C10212A1CFFF783FC38490B22201CDD
:1031E00002F0BEFE2A1C331C201C0A21FFF778FCCB
:1031F0000022334B0A271A70324B9946324B9846BD
:1032000049460F22201C02F0ABFE201C0E212A1C76
:10321000331CFFF765FC281C311CFFF795FC281CAC
:10322000414600F051F9002809D03220FFF72AFB6F
:1032300001203CBC90469946A246AB46F8BD3220E0
:10324000013FFFF71FFB002FDAD10020F1E7181C28
:103250000922391C02F084FE0023424613728AE7D9
:103260000D4B59469846181C212202F079FE002386
:1032700042465146535452E7094B4946181C2122F5
:10328000984602F06DFE00225146104B5A545DE7FD
:10329000800400207C6A000028050020E06A00000D
:1032A000E4040020C86A00001C050020F86A000041
:1032B000106B0000246B0000386B0000946B000062
:1032C000F9010020BC6B0000B06B00005C04002022
:1032D000F0B55F4656464D4644460023F0B485B0EF
:1032E0000393544B0C1C9846534B161C9946534B56
:1032F0001E259A46524B534F9B462DE0201C311CF5
:10330000FFF722FC201C504900F0DEF8002800D016
:103310007EE0201C4D4900F0D7F8002800D079E06D
:10332000201C4B4900F0D0F8002842D1201C49490C
:1033300000F0CAF800284BD1201C474900F0C4F81F
:10334000002865D1201C454900F0BEF8002830D186
:10335000013DEDB2002D3BD0381C02F029FF221CAC
:10336000C1B2331C381CFFF7BBFB201C414600F0E8
:10337000ABF80028C2D1201C494600F0A5F800286F
:1033800026D1201C514600F09FF8002811D1201CA6
:10339000594600F099F8002835D1201C304900F03A
:1033A00093F8002805D1201C2E4900F08DF8002844
:1033B0001DD02D4B1B780096002B11D1013D2B48C1
:1033C0002B492C4A231CEDB2FFF788FE002DC3D1F8
:1033D000002005B03CBC90469946A246AB46F0BDE5
:1033E0002549264A231C2648FFF728FDB0E7201C64
:1033F000244900F069F800280ED0039B0133DBB2AA
:103400000393092BD5D8FA204000FFF73BFA9FE73A
:103410000120DEE70220DCE7201C1B4900F054F805
:103420000028C6D1201C0B4900F04EF80028C0D05F
:10343000CEE7C046CC6B0000186C0000286C000082
:10344000346C000080040020D06B0000DC6B0000B6
:10345000E46B0000EC6B0000006C00000C6C0000E2
:10346000406C0000486C0000F90100201C050020A1
:10347000E4040020280500205C040020080500204A
:10348000D0040020686C0000706C000070B50C1C4B
:103490001D1C161C82B001AA490800F029F8019AE7
:1034A0000749084802F05AFE1234019802F04EFD16
:1034B000E0B2311C2A1CFFF70BFF02B070BDC04602
:1034C0007C6C00008004002038B5051C081C0C1C16
:1034D00002F06EFE002305E0E95CE25C914205D15A
:1034E0000133DBB28342F7D3012038BD0020FCE773
:1034F000F0B54F464646C0B487B001AD161C2A1C35
:103500000C1C174B814683CB83C2196811601B7951
:1035100013716300581C984602F00EFD30600028BD
:103520001CD0002342468354002C17D04B46002267
:103530000F2719191C7824092C5D84541C783068D5
:103540003C402C5D801844700133023230688B425D
:10355000F0D107B00CBC90469946F0BD0020F8E7CA
:10356000A46C0000F8B5254A4B005B0D9A18071CA7
:103570000C1C132A15DC002A37DB214B051C1341D8
:103580001C1C0C4004430E1C002C07D08024240378
:103590001441002064189C43051C261C281C311C67
:1035A000F8BD332A0EDD8023051C0E1CDB009A4279
:1035B000F4D1381C211C3A1C231C00F021FC051CF2
:1035C0000E1CEBE70F4A0E1C9D1801225242EA40E6
:1035D000051C0242E2D00C4DEB1A01259D40281833
:1035E000874200D94C1C9043D6E7C90FCC07002076
:1035F000531CD1D1054B1C43CEE7C04601FCFFFF55
:10360000FFFF0F00EDFBFFFF320400000000F03F62
:10361000002243088B4274D303098B425FD3030A11
:103620008B4244D3030B8B4228D3030C8B420DD324
:10363000FF22090212BA030C8B4202D312120902B2
:1036400065D0030B8B4219D300E0090AC30B8B42F0
:1036500001D3CB03C01A5241830B8B4201D38B039E
:10366000C01A5241430B8B4201D34B03C01A524143
:10367000030B8B4201D30B03C01A5241C30A8B4286
:1036800001D3CB02C01A5241830A8B4201D38B0271
:10369000C01A5241430A8B4201D34B02C01A524115
:1036A000030A8B4201D30B02C01A5241CDD2C30987
:1036B0008B4201D3CB01C01A524183098B4201D303
:1036C0008B01C01A524143098B4201D34B01C01AEE
:1036D000524103098B4201D30B01C01A5241C30866
:1036E0008B4201D3CB00C01A524183088B4201D3D5
:1036F0008B00C01A524143088B4201D34B00C01AC1
:103700005241411A00D20146524110467047FFE72C
:1037100001B5002000F0FCF802BDC0460029F7D03A
:1037200003B5FFF775FF0EBC4243891A1847C04620
:1037300003460B437FD4002243088B4274D3030912
:103740008B425FD3030A8B4244D3030B8B4228D3B3
:10375000030C8B420DD3FF22090212BA030C8B42D9
:1037600002D31212090265D0030B8B4219D300E079
:10377000090AC30B8B4201D3CB03C01A5241830BFE
:103780008B4201D38B03C01A5241430B8B4201D3AE
:103790004B03C01A5241030B8B4201D30B03C01AD7
:1037A0005241C30A8B4201D3CB02C01A5241830A51
:1037B0008B4201D38B02C01A5241430A8B4201D380
:1037C0004B02C01A5241030A8B4201D30B02C01AAA
:1037D0005241CDD2C3098B4201D3CB01C01A524111
:1037E00083098B4201D38B01C01A524143098B429A
:1037F00001D34B01C01A524103098B4201D30B0183
:10380000C01A5241C3088B4201D3CB00C01A5241A7
:1038100083088B4201D38B00C01A524143088B426C
:1038200001D34B00C01A5241411A00D20146524105
:10383000104670475DE0CA0F00D04942031000D324
:103840004042534000229C4603098B422DD3030A79
:103850008B4212D3FC22890112BA030A8B420CD389
:10386000890192118B4208D3890192118B4204D3B2
:1038700089013AD0921100E08909C3098B4201D332
:10388000CB01C01A524183098B4201D38B01C01A6C
:10389000524143098B4201D34B01C01A52410309E3
:1038A0008B4201D30B01C01A5241C3088B4201D392
:1038B000CB00C01A524183088B4201D38B00C01A3F
:1038C0005241D9D243088B4201D34B00C01A524116
:1038D000411A00D20146634652415B10104601D3A3
:1038E0004042002B00D54942704763465B1000D32D
:1038F000404201B5002000F00BF802BD0029F8D0CD
:1039000003B5FFF715FF0EBC4243891A1847C0469E
:103910007047C0461C2101231B04984201D3000CB0
:1039200010391B0A984201D3000A08391B09984232
:1039300001D30009043902A2105C40187047C04648
:103940000403020201010101000000000000000068
:10395000002B15D1002A13D1002906DB01DC002839
:1039600006D00020C043410802E080210906002063
:1039700007B4024801A14018029003BD95FFFFFF64
:1039800003B4684601B5029800F084F8019B9E4696
:1039900002B00CBC7047C046002B11D1002A0FD1D9
:1039A000002900D1002802D00021C943081C07B417
:1039B000024802A14018029003BDC04655FFFFFF18
:1039C00003B4684601B5029800F080F8019B9E465A
:1039D00002B00CBC7047C046F0B54F4646460504E1
:1039E0002D0C2C1CC0B41704160C3F0C9946030C6C
:1039F0007C4375435F4373437D19260CAD199C4688
:103A0000AF4203D980235B029846C4444B465143DE
:103A1000434324042E0C240C2D0466442C195918FD
:103A20008919201C0CBC90469946F0BD38B500227F
:103A30000C4B041C0D1C01F06FFF002804D1201C4E
:103A4000291C01F03DFE38BD064B0022201C291C1C
:103A500001F0BCFA01F034FE80231B069C46604452
:103A6000F1E7C0460000E04170B5061C081C01F0FB
:103A70005DFE0022064B01F00FF80D1C041C301CEB
:103A800001F090FE2B1C221C00F0BAF970BDC0465C
:103A90000000F041F0B583B0161C1F1C009001918E
:103AA00001F044FF041C0D1C221C2B1C301C391C73
:103AB000FFF792FF009A019B121A8B410899201C74
:103AC0000A604B60291C03B0F0BDC046F0B5141C61
:103AD00083B01D1C0090019102F020F8221C2B1CC9
:103AE000061C0F1CFFF778FF009A019B121A8B41EE
:103AF0000899301C0A604B60391C03B0F0BDC04609
:103B0000F0B556464D465F464446F0B44302450084
:103B1000C70F83B08A465C0A2E0EB94641D0FF2EED
:103B200026D080231B042343DC00002398469B46B9
:103B30007F3E53465B025D0A53465A00DB0F120E6E
:103B40009A4639D0FF2A33D080231B042B43DD0053
:103B500000237F3A5146B21A46467940081C01922A
:103B60001E430F2E00D976E07E4AB6009659B7461E
:103B7000002C30D108239846063B9B46D9E780238A
:103B80000021DB03FF245B02E4055B0AC907234332
:103B90000B43181C03B03CBC90469946A246AB466A
:103BA000F0BD002C28D104239846033B9B46C0E778
:103BB000002D1FD1022302E0002D11D10123B21AE2
:103BC00050464646784001921E430F2E27D866493C
:103BD000B60089598F460C239846093B9B46A8E7B7
:103BE000281CFFF797FE7622431F52429D40121A6F
:103BF0000023AFE70323ADE7201CFFF78BFE431F35
:103C00009C4076235B421E1A002398469B4690E711
:103C10000025D1469B465B464846022B6FD10121C9
:103C2000FF2401400023AEE77E23019A5B429B1AEA
:103C30001B2B6DDD01214B46194000240023A2E718
:103C40008023DB031C4249D18023DB0323435B0237
:103C50005B0A391C96E763016D01AB4237D3894695
:103C60001A2001215B1B01241E1C49005B00002E51
:103C700001DBAB4201D35B1B214301380028F3D1A8
:103C8000581E83410B431D1C019C7F34002CCBDD4F
:103C90006B0704D00F232B40042B00D004352B01DD
:103CA00004D5019A314B8032141C1D40FE2C07DDD7
:103CB0004B460121FF241940002364E7251CAAE795
:103CC00001214A46AB015B0AE4B211405BE7019A6D
:103CD0008946013A01921B200021C4E71D4207D00A
:103CE00023435B025B0A391C4CE700256302ABD51A
:103CF0008023DB032B435B025B0A514642E7032B25
:103D000025D0012BC0D101210024014000233AE736
:103D1000291CD9402B1C019A9E3293405D1EAB4159
:103D20000B435A0704D00F221A40042A00D0043350
:103D30005A0105D54B46012101241940002322E7F1
:103D400001214A469B015B0A114000241BE78023A6
:103D500001214A46DB032B435B020A405B0A111C2C
:103D600010E7C046B86C0000F86C0000FFFFFFF7DA
:103D700070B5041E39D0C50F00D04442201CFFF797
:103D8000C9FD9E23261C1B1A962B07DC082801DD83
:103D9000083884406402640AD8B21EE0992B0ADD18
:103DA0000522211C121AD1400A1C011C1B318E4015
:103DB000711E8E411643052801DD421F96400F4CAF
:103DC0003440720704D00F221640042E00D0043471
:103DD00062010ED4A401640AD8B26402C005640A68
:103DE000ED0704432C43201C70BD00250020002457
:103DF000F3E7024B1C409F231B1AEBE7FFFFFFFB7F
:103E0000F0B5454657464E4694464C000A03C90F46
:103E1000E0B488460E1C1903470FC500480A6146E6
:103E2000490F01436046520A1743C0005A00640D0F
:103E3000520DDB0F8446984500D1A7E0A01A002858
:103E400000DC01E1002A3DD163460B4300D0D4E001
:103E50006B0700D188E00F232B40042B00D183E0B7
:103E60002A1DAA42AD4180236D427F191B043B40AD
:103E70004646151C002B00D17CE0CC4B01349C4203
:103E800000D1FDE03A1CCA4BED081A40500764050A
:103E900052020543120B640D002112030B0D1B058A
:103EA0006405120B1A436308C24CF60714401C4306
:103EB000640064083443281C211C1CBC90469946AD
:103EC000A246F0BDB94B9C42C2D080231B041943CB
:103ED000382800DDECE01F2800DD21E120220E1C47
:103EE0006346121A9640C340334366469640321CDE
:103EF000561EB24113430A1CC240EB1A9D42B64102
:103F00001D1CBA1A7642971B3B0200D497E07A0236
:103F1000560A002E00D1B6E0301CFFF7FBFC031C54
:103F2000083B1F2B00DDB7E09E40371C28262A1CCB
:103F3000361AF240161C9D403E439C4200DDB2E022
:103F40001C1B621C1F2A00DDD8E01F23291C1C1B20
:103F5000331CA540A340D1406C1EA541D640194357
:103F60000D43371C002473E780231B043B40464667
:103F700000D082E78D4BED0878070543FA089C4294
:103F800032D012036405120B640D85E7A31A002BCF
:103F900000DC94E0002A3CD0844A944200D157E7E8
:103FA000802212041143382B00DC05E163461943DB
:103FB000481E81410022C8B24019A8429B41051CFD
:103FC000D2195B42D7183B0239D5784B01349C4259
:103FD00000D14CE10120764A6B083A402840184352
:103FE000D5070543570833E72B1C134348D08023DC
:103FF0001B031A431203120B4EE70138002878D135
:104000006346EE1AB5429B417A1A5B42D71A351CB9
:104010007AE7021C0A4300D11AE7013B002B00D0CB
:10402000F2E04019A8429B41CA195B42D718051C0F
:10403000C9E7131C334300D118E1171C351C464651
:104040006B0700D007E795E700287AD1621C52057C
:10405000520D012A00DCFBE06246AA1A9542B641E5
:104060009146781A7242861A320200D493E0624670
:10407000551BAC458041CF1B40423E1A984648E74D
:104080000022002508E7281CFFF744FC2030031C11
:10409000083B1F2B00DC47E7283885402E1C0025F5
:1040A0009C4200DC4CE7424AE41A1640371CCFE63B
:1040B000634619434B1E99410022CBB21DE7002BEA
:1040C00000D0F2E0601C43055B0D012B00DCA4E096
:1040D000364B984200D121E163465C19AC429B41CA
:1040E000CF195B42FA186408D50725435708041C0A
:1040F000AEE62E4B9C4200D0EAE6A9E6211C331C1A
:104100001F39CB40191C202A00D182E03F231C1B01
:10411000A64035436E1EB54100270D4300248EE7AF
:10412000031C0E1C203BDE40202874D040231B1AA9
:1041300099400B1C62461343591E8B4100223343A6
:10414000DBE6002C50D0194CA24200D1A8E080241C
:10415000240440422743382800DDD9E01F2800DD31
:1041600039E120243E1C241AA640B0462E1CA1464C
:10417000C640444626434C46A5406C1EA541C74058
:1041800035436046451BCF1BAC45894149427F1AE8
:10419000141C9846B8E64B464D46334300D0B8E66B
:1041A0000026002700240025E4E6C046FF070000A3
:1041B000FFFF7FFFFFFF0F801F2B5BDC2022081C0F
:1041C000D21A9040814660469246D8404A461043F3
:1041D0008146524660469040021C501E824148462D
:1041E00010430A1CDA40E7E63C1C2C4358D0C0437D
:1041F000002851D16046451BAC458041CF1B404251
:104200003F1A141C98467FE68F4A944200D0CAE6B3
:104210001EE600267DE700238CE73B1C2B43002C89
:1042200000D0BDE0002B00D1F5E063460B4300D188
:104230000EE663465B19AB428041CA19404217182B
:104240003A0200D4FCE0814A1D1C17400134FFE50E
:104250003A1C2A43002C51D1002A00D085E0624646
:104260000A4303D00F1C65469846F1E50026002757
:1042700000257FE6181C0A1C2038C240202B00D1E4
:10428000A7E04020C01A8140081C63461843411E25
:104290008841104300228FE66B4CA24200D05AE7BF
:1042A0000F1C6546141C9846D2E5002C3AD1381CE8
:1042B000284371D0DB43002B18D0634882426BD077
:1042C000382B00DD9DE01F2B00DDA7E020203C1CEB
:1042D000C01A8440A1462C1C8246DC404846044358
:1042E00050468540681E8541DF402543654465454D
:1042F0009B417F185B42FF18141C64E6002A19D109
:1043000062460A4377D00F1C654698464E4C9FE59F
:104310003D436F1EBD410027EDB232E7041C00276C
:10432000002527E64848824236D0802000045B42C0
:104330000743C5E762460A4349D08024ED08780761
:10434000FA0824032843224209D0CE08264206D187
:1043500062464F07381CD20810439846321CD200E0
:10436000470F1743C500384C72E562460A4300D137
:104370006EE56246AE1AB5429241781A5242821AEE
:10438000100200D455E66246551BAC458041CA1B5D
:104390004042171A98465BE50F1C6546141C57E50A
:1043A000002B34D063460B4311D08024ED087807EE
:1043B000FA08240328432242D1D0CB082342CED18D
:1043C00062464F07381CD20810431A1CC7E71E4C20
:1043D0003EE5002059E7041C3E1C203CE640341C0E
:1043E00020282BD04026301A87403D436F1EBD4108
:1043F00000272543C5E680270026FF03124C002531
:10440000B8E53D436F1EBD410027EDB26EE70F1CBE
:1044100065460D4C1CE50F1C654619E51C1C381C37
:10442000203CE040041C202B0CD04020C31A9F40AD
:104430003D436F1EBD410027254357E70027D4E7C2
:104440001D1CFCE50027F3E7FF070000FFFF7FFFCF
:10445000F0B55F4656464D464446F0B40F0387B06C
:1044600098464D003B0BCC0F061C924681469B465E
:104470006D0D01946BD0664B9D4235D080275B4615
:104480007F031F43F3009946624BFF00400F9C4699
:1044900007430023BB4600266544009342461703AA
:1044A0005000D20F53463F0B400D904600D172E0B2
:1044B000574A904267D080235B031F435346554AB7
:1044C0005B0FFF001F43944653460021DB0060440E
:1044D0004246624092462D1A0E430F2E00D9A1E0AB
:1044E0004D48B600805987465B461E4300D076E0B3
:1044F00000239B469946023308260093CEE799464F
:104500004346BB4601930091009B022B6BD1019B5C
:104510009A46002153460122002789461A403C4B07
:1045200000213F030C0D24053F0B27433B4C1B058B
:1045300027401F437F00D2077F0817434846391C96
:1045400007B03CBC90469946A246AB46F0BD03433B
:104550003ED05B46002B00D19CE15846FFF7DAF9CC
:104560002823311C1B1A021C5F46D940083A974089
:104570000B1C96403B439B46B1460023284D00262A
:104580002D1A00938AE7524603213A43A0D100270F
:10459000002302219CE752463A4315D0002F00D158
:1045A00085E1381CFFF7B6F9021C28215046891A0C
:1045B000131CC8405146083B99409F400B1C0743C1
:1045C00017480021801A83E70027002301217FE795
:1045D00000239B4699460133042600935EE703239C
:1045E0000C2600935AE7032B00D13CE2012B00D0AC
:1045F000BFE11A1C019B1A400021002300278946B5
:104600008EE700238027994600223F03004B87E76F
:10461000FF07000001FCFFFF386D0000FFFF0F8067
:104620000DFCFFFFBB4500D951E100D14CE14A46EA
:10463000039200225C469046013D180E3F0238432B
:104640001B020193030C994603041B0C4946061CEC
:10465000201C1F1C0093FEF7DBFF021C7A43029014
:104660004946201C171CFFF759F8039B09041B0C33
:1046700019438F420CD9029B8919013B8E4200D904
:1046800052E18F4200D84FE1029B8919023B02930D
:10469000CC1B201C4946FEF7BBFF009F83464743C7
:1046A0004946201CFFF73AF8039A0B041404240C23
:1046B00023439F420DD95A469B19013A9E4200D985
:1046C00030E19F4200D82DE10222524294469B19CC
:1046D000E344029ADB1B17045A463A439346019C73
:1046E000170C220C101C04925A4611042204120CBE
:1046F000141C090C7C4305924A434143474361180B
:10470000100C09188C4203D980204002844667446B
:104710000C0C12040804120C3C198118A34200D29C
:10472000E5E000D1DFE01F1B43465C1AA045924143
:104730005242BF1AB74200D10EE1381C4946FEF77B
:1047400067FF009B029043434946381C9846FEF79A
:10475000E5FF230C0F041F43B8450CD9029BBF197A
:10476000013BBE4200D9FBE0B84500D8F8E0029B0F
:10477000BF19023B02934346FF1A4946381CFEF715
:1047800047FF009B039043434946381C9846FEF779
:10479000C5FF24040904240C214388450CD9039B3C
:1047A0008919013B8E4200D9DCE0884500D8D9E068
:1047B000039B8919023B03934346C91A029B039A40
:1047C0001B04059C1A43100C13049146221C049FE1
:1047D0001B0C5A4344437B437843E318170CDB1903
:1047E0009C4203D980246402A44660441C0C120439
:1047F0001B04120C00199B18814200D296E000D1D4
:10480000FCE04A4601231A4391469B4BEB18002BD0
:1048100000DC99E04A4652070AD00F2249460A4076
:10482000042A05D0043149459241894652429344B5
:104830005A46D20106D55A46904B1A4080239346D9
:10484000DB00EB188E4A934200DD62E64A46594689
:10485000D208490711435A46894657025146012258
:104860005B053F0B5B0D0A405AE680205A46000369
:10487000024208D0074206D107433F0399463F0B47
:104880004246804B4CE65F4607433F033F0B221CEA
:104890007C4B45E6FFF73EF8031C2030272800DC60
:1048A0005EE6083B9E400023B346994665E65046C7
:1048B000FFF730F8021C2032272A00DC75E6574645
:1048C0000838874000237BE6994500D2AFE65A4678
:1048D000594654084A46C8075208024303924A46BA
:1048E000D2079046A9E60027884500D31CE7019F20
:1048F0005A46BC46E044B845BF417F42BF19FF1845
:10490000013ABE4206D2BC425FD800D19FE03F1BB5
:10491000934609E7B742FAD1019B4345F3D9371BC8
:10492000934601E79346D4E60293B1E64A468919D5
:10493000013A8E4218D99146814200D061E7019A2E
:104940009A4200D05DE760E74F4F7F1B382F13DDA1
:10495000012253461A404FE601235B42994654E731
:10496000029308E7039327E788423CD874D0914626
:1049700047E7019B9A4648E71F2F44DC434B4A46D2
:104980009C465B466544FA40AB4013434A46AA4006
:10499000151C6A1E95415A46FA402B43171C5A07AC
:1049A00009D00F221A40042A05D01A1D9A429B41B1
:1049B0005B42FF18131C3A023ED5534601220021E8
:1049C0001A40002701238946AAE502235B429C4640
:1049D000019AE3449446E04490459B415B429B1915
:1049E000DF193F1BA0E6019F4A467C00BC42BF4145
:1049F0007F42BF19023AC91901949CE7002B95D157
:104A0000002201929BE75A46214B5B1BDA40202F84
:104A100027D0204B9C465B466544AB4049460B4340
:104A2000591E8B411343072200271A4007D00F223B
:104A300000271A40042AB8D17A077F023F0BDB080F
:104A400013439946012253461A40002368E5414525
:104A5000BBD89346002767E6019C9C42C3D391468E
:104A60006DE70023DAE780275B463F031F433F03E0
:104A70003F0B019A034B53E5FF030000FFFFFFFECE
:104A8000FE070000FF07000002FCFFFF1E040000FD
:104A9000E2FBFFFF3E040000F0B55F4656464D4680
:104AA0004446F0B4051C061C080387B099464F0025
:104AB000030BCC0F92469B467F0D019467D06C4B45
:104AC0009F4236D080205B4640031843C0006B0FE6
:104AD0001843684B83469C4600239846EE00674483
:104AE00000934B4649461D03C90F5B0052462D0BF0
:104AF0005B0D894600D16EE05D498B4264D0802019
:104B00005C4940038C4600210543ED00500F0543EE
:104B1000D20063444846FF187B1C9A46009B6040C5
:104B200002900B430F2B00D9ACE053489B00C358B5
:104B30009F465B461D4300D082E00823009300237C
:104B40009B46023300269846CBE7029B01934346DF
:104B5000022B59D1012400250026019B1C40444B07
:104B600000212D030A0D12052D0B1543434A1B0589
:104B700015401D436D00E4076D082543301C291CBA
:104B800007B03CBC90469946A246AB46F0BD2B43CD
:104B90004ED05B46002B00D185E15846FEF7BAFEA9
:104BA000021C2823291C9B1A161C5846D940083E73
:104BB000B0400B1CB54003439B462E1C0023304FD6
:104BC0000093BF1A98468CE7514629432ED1002501
:104BD000002202219EE75146294323D0002D00D117
:104BE00054E1281CFEF796FE031C28215046C91AE2
:104BF0001A1CC8405146083A914095400A1C05438A
:104C00001F480021C31A85E7032B00D1C2E1012B05
:104C100000D06DE14446019B00251C40E4B2002316
:104C200000269DE700250022012173E7032171E79B
:104C30000423009300239B4601330026984650E747
:104C40000C230093093B98464BE7802500242D0355
:104C50000026074B84E74B46AB46161C019388465B
:104C600075E7029BAB46161C019388466FE7C0466A
:104C7000FF07000001FCFFFF786D0000FFFF0F80C1
:104C80000DFCFFFF330C3604360C9C46331C140C11
:104C90001204120C534398466346534399466346A5
:104CA00063430193331C41466343090C4B445B1837
:104CB000994505D9802040028146019949440191D6
:104CC000190C039141460904090C1B045B18049359
:104CD0002B0C9846331C2D04290C4B436046009343
:104CE0004346654658435E43009B4D431B0C994623
:104CF000AE194E448446B54203D980235B029946DF
:104D0000CC44350C2B1C0398634484460593009BCC
:104D100036041B041B0CF3189C4460460390584651
:104D20000504060C280C84465043351C8146604619
:104D3000654344434846000C8346724314195C445F
:104D4000A24203D98022520293465D44220CAD1840
:104D50004A461204120C24044046A41862464A43F0
:104D60007143464360460096464670438046100CA9
:104D700084468844E044414505D9802149028C4657
:104D800000996144009101980399844661449942D5
:104D90009B415B4299460598434684461204120C97
:104DA0001B049B1863449C46AB4683429B41404690
:104DB0000A19CC44A2428941E344CC45B6415C4641
:104DC000000C8046494276425B4264183343984463
:104DD0008C428941AB459B4149425B4219430D1CC2
:104DE000009B4544EE187602E50D2E43B346049B26
:104DF00056021E43731E9E415B46D20D324366022D
:104E00001643DB010AD50123334076081E435B4677
:104E1000DB071E435B465B089B465746634BFB180C
:104E2000002B5ADD720709D00F223240042A05D028
:104E3000321DB242B6417642B344161C5A46D201E4
:104E400006D55A465A4B1A4080239346DB00FB187E
:104E5000584A934234DD0124029B00251C40002661
:104E6000554B7DE680205B460003034208D0054297
:104E700006D105432D032D0B4C46161C4E4B6FE6F9
:104E80005D4605432D032D0B4B4B69E65046FEF75F
:104E900041FD031C2033272B00DCA6E655460838CD
:104EA00085400022ACE6281CFEF734FD021C2032AF
:104EB000272A00DC75E6083885400026AB467DE6EB
:104EC0005A46F608520716435A4601245502029ADA
:104ED0005B052D0B5B0D144042E6384DED1B382D64
:104EE0000ADD0124029B00251C400026002337E632
:104EF000019B5746029391E71F2D25DC304B321C56
:104F00009C466744BE405B46BB40371CEA407E1E61
:104F1000B74113433B431E1C5B46EB401D1C73070C
:104F200009D00F233340042B05D0331DB342B641C3
:104F30007642AD191E1C2B0220D50124029B0025B0
:104F40001C40002601230BE65A461E4BDB1BDA40B1
:104F5000131C202D1CD01C4A94465A466744BA4064
:104F6000171C3E43721E96411E4307230025334003
:104F700007D00F2300253340042BD6D16B076D02D9
:104F80002D0B0124F6081E43029B1C400023E7E57D
:104F90000027E6E780255B4601242D031D43019B86
:104FA0002D0323401C1C2D0B034BD9E5FF030000F0
:104FB000FFFFFFFEFE070000FF07000002FCFFFFEF
:104FC0001E040000E2FBFFFF3E040000F0B54D466A
:104FD00044465F465646F0B40E1C111C3203520A7A
:104FE000470F1743C5001A035800DB0F9946520AB2
:104FF0004B0F83B01A43CB000193CF4B7400F60FD5
:10500000640DB046400D984200D1E8E001234946C6
:1050100059400B1C9E4200D1B1E0261A002E00DC44
:105020001CE1002842D1131C01990B4300D0E6E09B
:105030006B0700D18EE00F232B40042B00D189E0B9
:105040002A1DAA42AD418023012641466D427F19A7
:105050001B043B400E40151C002B00D183E0B64BD7
:1050600001349C4200D116E13A1CB44BED081A40C1
:105070005007640552020543120B640D0021120310
:105080000B0D1B056405120B1A436308AC4CF607A5
:1050900014401C43640064083443281C211C03B0E2
:1050A0003CBC90469946A246AB46F0BDA24B9C4202
:1050B000BED080231B041A43382E00DD03E11F2ECF
:1050C00000DD3FE12020831B9946131C49468B409D
:1050D0009C46019B6046F34003430198F2408840A0
:1050E000011C481E81410B43EB1A9D4280411D1C4F
:1050F000BA1A4042171A3B0200D4A8E07A02560AB4
:10510000002E00D1CAE0301CFEF704FC031C083B53
:105110001F2B00DDCBE02822291C121AD1409E4013
:105120000A1C9D4032439C4200DDC8E01C1B671CEA
:105130001F2F00DDEDE01F23291C1C1B131CA540A5
:10514000A340F9406C1EA541FA4019430D43171CBA
:1051500000246DE78023012642461B043B40164095
:10516000002B00D07BE7744BED0878070543FA0865
:105170009C423BD012036405120B640D7EE7231A98
:105180009A46002B00DCA5E0002844D06A488442FF
:1051900000D14DE78020000402435346382B00DC49
:1051A0001CE1019B1A43511E8A41D1B200224919C8
:1051B000A94280410D1CD219404217183B0246D526
:1051C0005D4B01349C4200D169E101205B4A6B08D0
:1051D0003A4028401843D5070543570828E7131CD1
:1051E00001990B4300D111E74B4613E72B1C1343E6
:1051F00051D080231B031A431203120B3EE7013EDA
:10520000002E00D080E0691A8D429B41BA1A5B42A1
:10521000D71A0D1C6FE7101C019B184300D107E73C
:1052200001235B429C46E2445346002B00D002E13E
:10523000019BD2195919A9429B415B42D7180D1CF9
:10524000BCE76346034300D128E1071C65466B07B2
:1052500000D0F0E6012643461E4084E7002E00D031
:1052600081E0601C4005400D012800DC07E1019948
:10527000681A84466545B641B81A7642861B3002E4
:1052800000D4A1E08C464D1BAC458941D21B49425C
:10529000561A984634E700220025EFE6281CFEF750
:1052A00039FB2030031C083B1F2B00DC33E7021CBA
:1052B000283A95402A1C00259C4200DC36E71F4F07
:1052C000E41A1740B4E6019B1A43511E8A41D3B237
:1052D000002209E7002B00D001E1601C43055B0DB3
:1052E000012B00DCB0E0144B984200D11EE1019B81
:1052F000D2195919A9429B415B42D2184908D507D6
:105300000D435708041C93E60B4B9C4200D0D3E698
:105310008EE6211C131C1F39CB40191C202F00D1F5
:105320008EE03F231C1BA24015436A1E95410027B7
:105330000D4300248BE7C046FF070000FFFF7FFFFF
:10534000FFFF0F80331C101C203BD840202E79D04B
:1053500040239B1B9A40131C019A1343591E8B41F7
:1053600000220343C0E6002C53D0C74CA04200D11A
:10537000B0E08024714289462404274349463829F5
:1053800000DDCDE01F2900DD59E120243E1C611A1B
:105390008E408A46B04649462E1CCE405146B44601
:1053A0008D4064464646494626436C1EA541CF4083
:1053B00035430199D71B8C464D1BAC459241524257
:1053C000BF1A041C984696E663466546334300D0F0
:1053D00096E60026002700240025C4E61F2B61DC8A
:1053E0002020C31A9B46131C59468B4051469946B0
:1053F000019BCB409C464B46604603439C465B4624
:10540000019999406346481E814119435346DA4049
:10541000CDE63C1C2C435DD0F1438946002955D193
:105420000199D21B8C464D1BAC4589414942571A04
:10543000041C98465FE69448844200D0ADE6F7E548
:10544000002271E7002387E73B1C2B43002C00D090
:10545000DAE0002B00D113E1131C01990B4300D1BA
:10546000E6E54919A9429B41D2195B42D7183B0294
:1054700000D421E1854B0D1C1F40041CD8E5381CCD
:105480002843002C40D1002800D083E0101C019953
:10549000084303D0171C0D1C9846C9E500260027B9
:1054A000002560E65046131C2038C340181C5346A4
:1054B000202B00D1C1E0402351465B1A9A4001994C
:1054C00011434A1E91410022014370E66E4CA042F6
:1054D00000D053E7171C019D041C9846A8E5002C3A
:1054E00028D13C1C2C4300D18AE0DB439A46002B98
:1054F00000D082E0019BD2199C4665449D428941BF
:1055000049425718041C59E600285BD1101C019928
:10551000084300D1A4E0171C0D1C98465A4C87E59F
:105520003D436F1EBD410027EDB242E7041C00273A
:10553000002518E6544CA04262D0534680245B42BA
:105540009A46240427435346382B00DD8EE01F2B58
:1055500000DD9DE02024E31A9B463B1C59468B400E
:10556000514699462B1CCB409C464B4664462343F0
:105570009C465B469D4063466C1EA541CF401D4343
:10558000019BBF189C4665449D4292415242BF1800
:10559000041C13E6101C0199084300D148E5681A61
:1055A000844685428041BE1A4042301A060200D429
:1055B00047E68C464D1BAC458941D21B4942571AE0
:1055C000984635E5101C0199084334D080247807AB
:1055D000ED08FF0824032843274208D0D6082642B6
:1055E00005D1C90852070A43101C371C9846FF0012
:1055F000420F1743C500244C1AE5234CA042A2D108
:10560000171C019D041C13E5002B35D0131C0199B8
:105610000B4310D080247807ED08FF0824032843AB
:105620002742E4D0D3082342E1D1C90852070A43F4
:10563000101C1F1CDBE7144CFAE400223FE74C4629
:105640003E1C203CE6404946341C202932D04026EE
:10565000761AB7403D436F1EBD4100272543A8E69B
:1056600080270026FF03084C00257CE53D436F1E84
:10567000BD410027EDB283E7171C019D024CD7E422
:10568000171C019DD4E4C046FF070000FFFF7FFF09
:1056900054463B1C203CE3401C1C5346202B0DD0A1
:1056A000402351465B1A9F403D436F1EBD4100277A
:1056B000254365E70027CDE70D1CC8E50027F3E784
:1056C0000B0330B5134C1A0B4B00051C5B0DC90FB7
:1056D0000020A34210DD104883420EDC80200F4CD6
:1056E00040030243E41A1F2C0ADD0D48C31ADA40B6
:1056F000131C48424340581830BD0A4BC818FBE7FA
:10570000281CE040084CA44663449A40131C034301
:10571000EFE7C046FE0300001D0400003304000054
:1057200013040000FFFFFF7FEDFBFFFF38B5041EF1
:1057300016D0C50F00D04442201CFEF7EBF8174BE3
:105740001B1A0A2821DC021C211C153291400A1C5C
:105750000B21081AC4405B052403240B5B0D03E0F6
:1057600000250023002400220021101C24030A0D20
:105770001205240B14430A4A1B0514401C43640001
:10578000ED0764082C43211C38BD0B3884405B05B1
:105790002403240B5B0D0022E6E7C0461E04000034
:1057A000FFFF0F8010B5041E10D0FEF7B3F8144AA7
:1057B000121A0A281ADC0B23211C1B1AD940153097
:1057C0000B03520584401B0B520D01E00022002305
:1057D00000211B03201C1C0B0B0D1B052343094C34
:1057E0001205234013435B00590810BD031C0B3BFB
:1057F0009C40520523031B0B520D0024E8E7C046D2
:105800001E040000FFFF0F804200120E511C38B52D
:10581000C9B243025D0AC40F012915DDE0218900E8
:105820008C466D071B0B62440021281C0D0D2D05B5
:105830002B431C4D52052B40520813435B00E407D9
:105840005B082343191C38BD002A15D1002D1FD039
:10585000281CFEF75FF80A281DDC0B232A1C1B1AE4
:10586000DA40131C021C153295400F4A1B03121A12
:1058700052051B0B520DD7E7002D06D080221B0BC3
:10588000120313436D07094ACEE7084A0023CBE70A
:1058900000220023C8E7031C0B3B9D402B1C002566
:1058A000E3E7C046FFFF0F8089030000FF07000009
:1058B0008446101C62468C46191C634600E0C046B4
:1058C0001FB500F08BFA002801D40021C8421FBD8B
:1058D00010B500F0CFF94042013010BD10B500F016
:1058E0007DFA002801DB002010BD012010BDC0465C
:1058F00010B500F073FA002801DD002010BD012072
:1059000010BDC04610B500F0F9F9002801DC0020F8
:1059100010BD012010BDC04610B500F0EFF9002801
:1059200001DA002010BD012010BDC046F0B544468C
:105930005F4656464D46F0B41C1C85B0002900DA7F
:10594000A9E00F1C0021061C8846101C191C002C05
:1059500000DA97E0341C3D1C82468946B94273D870
:1059600070D04946504600F09FFA8346391C301CDF
:1059700000F09AFA5B46181A031C8346203B9C46AB
:1059800000D59CE00023002251460092019363461B
:105990009940019151468140019B0091BB4200D941
:1059A00083E000D17EE0009A019B341C3D1CA41AC8
:1059B0009D416346002B00DA9AE0002600270296FC
:1059C000039701369E4003960126864002960028E2
:1059D00000D171E00099019AD30799464B464E08D1
:1059E0001E435708002301220CE0AF4201D1A6421A
:1059F0000AD8A41BBD4124196D410138A4185D418A
:105A0000002806D0AF42F0D9013824196D41002892
:105A1000F8D12022029E039F5B46524236196F4105
:105A200099185AD4281CC8402C1C5B46DC4000291D
:105A300068DB041C8C40231C59468840021CB61AA3
:105A40009F4103E0B0428CD90026002741464B1EFF
:105A50009941002300910193009A019B0025544233
:105A60009D41331C6340181C3B1C6B40191C009B60
:105A7000019CC018614105B03CBC90469946A246C5
:105A8000AB46F0BD4346DB430C1C9846131C00217B
:105A90005842A1415EE7002746428F410121494219
:105AA000884652E7B14200D87DE7002600270296DB
:105AB0000397002800D08DE7029E039FC6E72021B0
:105AC0005346091ACB400022191C0023009201936F
:105AD0004B4683400B4301935CE75A4620239B1AB5
