:10000000002000206D01000099010000990100000E
:100010009901000099010000990100009901000078
:100020009901000099010000990100009901000068
:100030009901000099010000990100009901000058
:100040006D140000A92D0000990100009901000025
:10005000792C000099010000792D00009901000021
:100060009901000099010000990100009901000028
:100070006109000099010000990100009901000048
:100080009901000099010000990100009901000008
:100090009901000010B5064C2378002B07D1054BC1
:1000A000002B02D0044800E000BF0123237010BDE4
:1000B0000001002000000000745A000008B5084B41
:1000C000002B03D00748084900E000BF0748036839
:1000D000002B00D108BD064B002BFBD09847F9E759
:1000E00000000000745A0000040100209C00002061
:1000F00000000000164B002B00D1144B9D464022FF
:1001000092029A1A924600218B460F461348144ACF
:10011000121A04F074FD0F4B002B00D098470E4BC1
:10012000002B00D098470020002104000D000D484E
:10013000002802D00C4800E000BF04F01DFD2000A4
:10014000290002F0A9FC04F001FDC04600000800EF
:10015000002000200000000000000000000100203E
:10016000AC050020000000000000000006488047A9
:100170000649074A074B9B1A03DD043BC858D05079
:10018000FBDCFFF7B7FF000035030000805A0000DA
:1001900000000020A0000020FEE7C046284B10B55C
:1001A000DA6A284B134080225201934233D019D986
:1001B00080229201934212D08022D204934218D11D
:1001C00021481F4B19685C68C903490F013103F0CE
:1001D000D9F80F231C40E0401C4B186010BD1C4B8D
:1001E0001868EEE780221201934202D1194B186879
:1001F000E7E7134BDA68E023DB001340802292002C
:10020000934215D00AD8002B16D0013AFF3A9342F8
:1002100010D11148D5E780200002D2E7C022920019
:1002200093420BD00132FF32934203D10B48C8E70F
:100230000B48C6E70020C4E70A48C2E70A48C0E7FF
:1002400000800C40003C000400366E0108000020D5
:10025000000000200400002040B56400406F400111
:10026000C0D8A700804F1200809FD500004870477B
:1002700000366E0108B5254BDA6A254B1340802203
:10028000520193422DD013D98022920193420CD077
:100290008022D204934212D11E481C4B1968C90314
:1002A000490F013103F06EF808BD1B4B1868F4E7E5
:1002B00080221201934202D1184B1868EDE7134BCC
:1002C000DA68E023DB00134080229200934215D0CD
:1002D0000AD8002B16D0013AFF3A934210D11048A9
:1002E000DBE780200002D8E7C022920093420BD0C7
:1002F0000132FF32934203D10A48CEE70A48CCE7E5
:100300000020CAE70948C8E70948C6E700800C4052
:10031000003C000400366E010000002004000020B4
:1003200040B56400406F4001C0D8A700804F120064
:10033000809FD5007047C046802000027047C046AD
:10034000FA2080007047C046014B18687047C046CD
:100350000000002030B5041C85B04048012100F0A9
:1003600061FD3F4B22689A4201D005B030BD3D4847
:10037000012100F057FD207961790A22012301F063
:100380005BFAA079E1790A22012301F055FA0123F1
:10039000191C6079344D8140081CAC461D1C227923
:1003A000D1008A183149920051180861607962447D
:1003B000854055601D1C607985400D611D1C60796C
:1003C000854055601D1C607985400D611D1C60795C
:1003D000854055601D1C607985400D611D1C60794C
:1003E000854055601D1C607985400D611D1C60793C
:1003F000854055601D1C607985400D611D1C60792C
:10040000854055601D1C607985400D611D1C60791B
:10041000854055601D1C607985400D611D1C60790B
:10042000854055601D1C60798540181C0D616179FF
:10043000884003215060227A206812020A438263B6
:100440006A4613705370236969460293E368019307
:10045000237D137301F04CFA87E7C0464081040006
:1004600000A0004000B204001060004000600040A6
:1004700038B5051C01F0F4FB012809D1054C02E058
:10048000013C002C04D0281C01F078FA0128F7D098
:1004900040B238BDE0930400A023F0B557469A4619
:1004A00000234E46051C9946C0B42A4C83B0A24492
:1004B0004B466377237F002B10D0226863682E1C85
:1004C0000027002B12D1AA4210D8E17F002912D1B7
:1004D0002177A369002B01D0012363772834544589
:1004E000E6D103B00CBC91469A46F0BD921BBB41CD
:1004F00022606360F2E7A068E16800900191281C27
:10050000391C801A9941009A019B03F0DBF800988E
:100510000199801A99412369206061606269002B0A
:100520000FDD94469C4463466361F32BD1D90122CD
:100530000023801859416346F43B20606160636189
:10054000C7E7D31A9C466361F32BC2D901225242FA
:10055000D317EEE72001002010B5041C00F07EFF49
:10056000134B9A7F002A1DD046229A5C002A1BD08A
:100570006E229A5C002A09D096229A5C0321002AF6
:1005800005D00C4C00F06EFF201C10BD0221002C89
:100590000CD08A005218D2009B1801229A77216051
:1005A0000024EFE70021F2E70121F0E7024CE9E740
:1005B00020010020011000F0041000F01A4B10B5CB
:1005C0001C78002C2ED10122184801211A7000F04D
:1005D00029FC1748022100F017FE1648082100F0F8
:1005E0005DFB0121134800F01DFC134801F06AFD7A
:1005F0000721124BDA698A43DA61996101F072FDD1
:100600008022C0210E4B520149005A500D481A60F9
:100610000021A02204F0F3FA0B4B1C700B4B1C7052
:100620000B4B1C60002010BD1D01002000230200A8
:1006300002001A0060061000F0540000000008409C
:1006400000E100E0200100201E0100201C0100202C
:10065000C0010020F0B55F4656464D464446F0B412
:100660009B4683B0041C0E1C151C032807D9B248F6
:1006700003B03CBC90469946A246AB46F0BD00F0A4
:10068000EDFEAE4B00909946A3001F19FF004F44AA
:100690009846BB7F002B49D0002D4BD0A84BFA22A7
:1006A0005B6812019A465B46BB610023690CE80354
:1006B00080185941FA220023520103F003F8B86070
:1006C000F960012E3DD001225242D31712184B413E
:1006D000BA60FB6001200021801859414346012582
:1006E0001B19DB004B440C9A186059601D77DE77AC
:1006F0001A62944B1B78002B13D1934E336801334D
:1007000002D0336801333360904D2B78002B24D016
:100710003368012B3ED03368002B02D03368013B95
:100720003360009800F09EFE0020A1E700F09AFEE2
:1007300087489DE75B46002BF3D0201C0C99D847D7
:10074000EFE7FA239B005D43F4234343ED1A7A233A
:100750003D617B61021C0B1CBCE753467D4A1B02BA
:100760001B0A13600222764B9A61031C002902D1F6
:10077000794A904200D9784B53441902090A002063
:1007800001F092FC02236E4AD1690B43D36101232D
:100790002B70C0E74444E400231C00214B4419772C
:1007A0008B465146090288466A4F01933A68120205
:1007B00002206349CB698343CB614346981A674B58
:1007C000000AC3185A1E93415B421840FFF764FEAB
:1007D0004B465B7F002B00D095E045234A46D35C17
:1007E000002B00D08AE06D234A46D35C002B00D05A
:1007F0007FE095234A46D35C002B73D15B46002BE8
:1008000002D1019A0133137701239C464B461B7F8B
:10081000E344002B62D04B464A461B685268442191
:100820004846415C002905D04946C96A806A8A4227
:1008300076D873D06C214846415C002905D04946E2
:10084000496D006D8A4270D86DD094214846415C54
:10085000002905D04946C96F806F8A425BD858D0BD
:1008600000212970591C63D0002A35D13A4A93429D
:1008700032D8344A11785246002901D14246120A30
:1008800002243A6053442E4A19029461090A002056
:10089000904601F009FC01232B704346DB691C43A1
:1008A0004346DC61264B00205B689A461B02984653
:1008B0003B681C0243461C1B01F0E8FB3A6800023F
:1008C00012022B78801A240A000A002B00D122E79A
:1008D000844200D96CE71EE71F4BCAE701235B4245
:1008E0001A1C9CE79823D158083BD35803209847FB
:1008F00084E70220116F936E98477AE70120916C8C
:10090000136C98476FE74B460020196A9B6998471C
:1009100063E78342A4D9031C0A1CA1E7834289D957
:10092000031C0A1C86E783428FD9031C0A1C8CE730
:10093000511C99D1B6E7C046021000F020010020FA
:10094000000008401E010020C00100201C01002002
:10095000031000F0C40100209BFFFF00010000FF16
:10096000F0B55F4656464D464446F0B4724F83B0EC
:1009700000F074FDFA693B6901901340191C0322D1
:100980009143B9619B0700D48DE001236B4A7C68D9
:100990001370220290466A4A4646924602229346C5
:1009A000684B694D99461B681B025946FA69F01A53
:1009B0008A43FA61000AFFF76FFD6B7F002B00D0BE
:1009C00087E04523EB5C002B00D08BE06D23EB5CD4
:1009D000002B00D08FE09523EB5C002B00D071E062
:1009E0002B7F002B6AD029686B684422AA5C002AFE
:1009F00006D0EA6AA86A934200D984E000D17FE079
:100A00006C22AA5C002A06D06A6D286D934200D938
:100A10007FE000D17AE09422AA5C002A06D0EA6F37
:100A2000A86F934200D97AE000D175E000225046C9
:100A300002704A1C00D17AE0002B3DD1434B994211
:100A40003AD83E4B1A78231C002A00D1330A4A4672
:100A500013605B4661180902BB61090A002001F0BE
:100A600023FB0123524613705A46FB691343FB6173
:100A70004B467C681B6826021B02F31A1B0A0020E7
:100A8000984601F003FB4B4652461B6800021B02CE
:100A90001278C01A000A002A01D0804585D80023A8
:100AA000264A0198137000F0DDFC03B03CBC904670
:100AB0009946A246AB46F0BD2449C2E7012149420E
:100AC0000B1C92E79823E958083BEB580320984702
:100AD00086E7AB690020296A98474523EB5C002B29
:100AE00000D173E72B6C0120A96C98476D23EB5C58
:100AF000002B00D16FE70220296FAB6E98476AE7A1
:100B0000814200D87CE7011C131C79E7814200D8A0
:100B100081E7011C131C7EE7814200D886E7011C97
:100B2000131C5046002202704A1C00D084E75A1C55
:100B300000D081E79CE7C046000008401E0100206D
:100B40001C010020C4010020200100209BFFFF00A9
:100B500070B50E79051C0C1C1C48002E23D100F02A
:100B600019FA1B4B1B499C46604402F00BFC002801
:100B700023D10A236B602278FE2113066278C90311
:100B800012011A43A3781A43101CE3781B040B408C
:100B90001A1C031C134362793343002A01D0082234
:100BA00013432B6070BD00F0F5F9084800F0F2F92E
:100BB000FE233602DB011E40DBE7FE260138F6018C
:100BC0007F28D6D800020640D3E7C0464081040003
:100BD0003F5DC600405DC60002234360294B70B5EF
:100BE0008C78456B984223D04B781A050B781B07FD
:100BF0001343CA78120113430A79120213438A7904
:100C0000002A02D0802252041343CA79002A01D05C
:100C1000042213434A79002A01D0022213430A7A9C
:100C2000002A01D00122134324042343C36070BD72
:100C3000062C25D8144AA300D3589F467F22134B75
:100C40001B681340124A2A4013430E4A5363CBE7F2
:100C5000104A136812685B005B0E1E0253025B0EA3
:100C60003343EFE70B4A7F26136812681640FE22D3
:100C7000D20113403343E5E7074AEAE7064AF2E7C1
:100C80000023DFE700200040F4540000BC81E00FA7
:100C90008080FFFFB881E00FB481E00F030670B5DC
:100CA0001B0F072B45D8564A9B00D3580C1C9F4658
:100CB000544D554BEE6BEB63FFF7D8FA534B6A6814
:100CC0000021984206D9524B0131984202D907239C
:100CD0001340191C07204B4A536883430B4353604E
:100CE000002E01D00023D3634A4A013C11684A4BCD
:100CF000A4030B40211C19431160FFF74FFA414B2D
:100D0000414ADC6BDA635A68404B0021984206D9AD
:100D10003F4B0131984202D907231340191C072089
:100D2000384A536883430B435360002C01D000239F
:100D3000D36370BD394B9842FBD1364A536DDB0704
:100D400058D5201C02F0A0FC1F223249101A0B6F4C
:100D50001C3A934318430867EBE7081C02F094FC25
:100D60001F222C49101A8B68103A9343184388604D
:100D7000DFE7244D244BEE6BEB63FFF777FA234B51
:100D80006A680021984203D9214B0131984228D842
:100D900007201C4A536883430B435360002E01D045
:100DA0000023D363201C02F06FFC1F221949101A84
:100DB0004B68103A9343184348609EE7184B98429B
:100DC000B7D1144A536DDB070FD5201C02F05CFC31
:100DD0001F221049101A8B6E103A934318438866ED
:100DE000A7E707231340191CD2E70421136D19420A
:100DF000FCD1EAE74021136D1942FCD1A1E7C046BE
:100E00001055000000000C40711B00000024F4008D
:100E10000048E80100800C40FF3FFEFF700716000D
:100E200060061000030530B51B0F0A2B14D8164AB4
:100E30009B00D3589F468025144C6D00144AC00374
:100E4000536DC00EDB0708D5012281408240081C8B
:100E5000236893431843206030BD136D2B42F3D0B9
:100E6000136D2B42F9D1EFE70A4CC003C00EEBE73C
:100E7000094CFAE7094CF8E7094CF6E70125094C5B
:100E8000DCE71025084CD9E73055000064800C40A1
:100E900000800C4044800C4040800C4078800C4026
:100EA00008800C4058800C4060800C400F23184094
:100EB000072857D8334B80001B589F4607207047A0
:100EC000314BD86AE023DB02184080239B02984212
:100ED0004AD08023DB02984252D02C4B9C4660447F
:100EE000434258410130EAE7274BDA6A284B134066
:100EF00080225201934237D03CD9802202209201B5
:100F00009342DCD080220930D2049342D7D005200E
:100F1000D5E70C211C4A936A0B40082B28D00C2BD8
:100F200024D0042B20D0936ADB0219D50C20C6E70D
:100F30003020154B9B6A1840102815D020384342AA
:100F400058410130BBE703210F4A936A0B40022B43
:100F50000ED0032B0AD0012B06D0936ADB03E5D415
:100F60000120ACE70020AAE70320A8E70620A6E7B7
:100F70000220A4E780220420120193429FD0C6E7FA
:100F80000A209CE75C55000000800C400000FFFF39
:100F9000003C000408B5F8239B031840E0231B0322
:100FA000984200D1ACE02CD9D0235B03984200D109
:100FB00093E03ED880235B03984200D16AE0B023DF
:100FC0005B0398425CD18248FFF770FF814A936AC5
:100FD0001B079B0F022B00D1F1E0032B00D1B5E0E2
:100FE000012B00D1E7E0926A0023120D02D0FFF737
:100FF000A7F9031C0320774A126F1040C340181C46
:1010000047E080239B02984264D060D98023DB02B2
:10101000984237D0C0231B03984231D16E48FFF766
:1010200045FF072800D19BE0092829D1FFF722F9C5
:101030002FE0E0235B03984212D088239B03984261
:101040001ED16648FFF732FF032800D16AE000D8BE
:101050006BE00928EAD00A2812D1614B186818E021
:101060005B48FFF723FF5B4A936A1B079B0F022B2A
:101070005DD0032B66D0012B54D0936A1B0D3CD15D
:10108000002006E0FFF7F6F80F22524B9B68134052
:10109000D84008BD5348FFF709FF03214D4A936A22
:1010A0000B40022B00D17EE0032B53D0012B00D14B
:1010B0007DE0926A0023120C02D0FFF741F9031C75
:1010C0000F20444A926E1040C340181CE1E70028EC
:1010D000ACD0D5E7FFF762F8DBE74248FFF7E6FE62
:1010E00003213C4A936A0B40022B20D0032B29D0CA
:1010F000012B17D0936A1B0CC2D0FFF721F9C8E768
:10110000E0218022334BC9005B6992000B4093427F
:101110003BD00FD8002B21D0013AFF3A9342AFD1F8
:101120003148B6E7FFF708F9B3E70228A8D1FFF77F
:101130000BF9AEE7C022920093422DD08B429FD193
:101140002A48A6E7FFF72AF84008A2E7FFF726F8A3
:1011500043084FE7FFF722F84308B1E7244898E730
:101160001C4B5A69E023DB0013408022920093421B
:101170000BD0CFD9C022920093420DD0E022D200F2
:10118000934200D07CE7194883E71A4BDB6C1B0EB7
:10119000122B1AD918487CE7164BDB6C1B0E122B4E
:1011A00011D9164875E7FFF7CFF8031C88E7FFF75A
:1011B000C3F8031C84E7FFF7BFF8031C1AE7FFF727
:1011C000C3F8031C16E70E4863E70E4861E7C04604
:1011D00003001C0000800C4006000C0007332200B6
:1011E0000C00002002001A00C0D8A700406F400188
:1011F000809FD500B081E00F40B56400804F1200A1
:1012000040420F00C0CF6A000F2370B51840072876
:1012100049D8824A8300D3589F46012201240123E2
:101220007F490B62012393401A1C7E490B681342CD
:10123000FCD07D4D7D4BEE6BEB63FFF717F87C4BDD
:101240006A680021984206D97A4B0131984202D946
:1012500007231340191C0720734A536883430B4329
:101260005360002E01D00023D3636D4B5C62FEF708
:1012700095FF6D4B6D4ADC6BDA635A686C4B00214D
:10128000984206D96B4B0131984202D9072313408B
:10129000191C0720644A536883430B435360002C96
:1012A00001D00023D36370BD03293AD00A2953D05B
:1012B0000229F8D180225A4B52005A491A629218D8
:1012C0000B681342FCD040238021554A49025362E7
:1012D000D36A0B42FCD0E6E7022911D0032931D0B2
:1012E0000129E0D1002015E00C29DCD8524B8900FF
:1012F0005B589F460B29D6D8504B89005B589F46B8
:101300008022474B520047491A6292180B681342D9
:10131000FCD020203021424A936A8B4303439362DE
:10132000C1E740223E4B3F491A6240320B681A42E5
:10133000FCD0602380213A4A89025362D36A0B426F
:10134000FCD0B0E74022364B36491A6240320B6877
:101350001A42FCD01020DDE78022314BD2001A6205
:1013600080223049D2030B681342FCD080238021B5
:101370002B4AC9025362D36A0B42FCD093E7002484
:1013800000220021022840D025492D4A8B6A1340B3
:1013900023438B6287E7802316220524DB003FE787
:1013A00080248022640352020021EBE70423254AB3
:1013B0000C2411680B43136003210022E2E7402252
:1013C000174B18491A6240320B681A42FCD00424A9
:1013D00000220121D6E78022114B520011491A62E6
:1013E00092180B681342FCD0082400220221C9E79E
:1013F00007220324402313E78023092204245B00EF
:101400000EE70322022404230AE705480E4B846AF0
:101410000A4323401A43826245E7C0467C550000D8
:1014200000800C402C800C4000000C40711B000020
:101430000024F4000048E8019C550000D05500004D
:10144000F3FFEFFF40800C40FCFFFEFFEFF3108046
:1014500072B67047002800D162B67047EFF3108073
:1014600072B67047002800D162B67047F0B5574693
:101470004E4645468023E0B41E4F5B01FA581E4B92
:101480000126FB581340BA6B141C1C409343994629
:1014900002239A460025002C1FD0184B984626425E
:1014A00017D0331C4146AB40BA687B502B01D31890
:1014B000DB68002B0DD00122197A4A401A721A6893
:1014C0009446002A05D04A1E9141281CC9B25A6888
:1014D000E04764080135002CE1D15346012B03D0CD
:1014E00001234C469A46D5E71CBC90469946A24635
:1014F000F0BDC04600200C400C1000000810000099
:10150000F0B5234E0701B4683C19251C002901D110
:10151000F5687D19E468002C00D02172059C002C30
:101520000BD0AC682401A40F032C2DD0069EA6403E
:10153000341C059EB44664442C60002B07D0AC6874
:10154000A40F032C02D0069EA6409B196B600123BA
:101550008340181C0E4B002A10D098610C4B0029B8
:1015600010D11863AA680B4B134001221343069A4B
:1015700016011E43064BAE609862F0BDD861044B65
:101580000029EED05863EDE7059C2C60D5E7C046F6
:1015900000200C4008C0FFFF154A30B594680301D5
:1015A000E3188C68DC600B78002B11D0012383409A
:1015B00093638822D2000E4C82184D689200155118
:1015C0004A78002A08D10B490A689A430A6030BD5C
:1015D00001238340D363ECE7074A0649A3500A6816
:1015E0009A4301238340181C10430860EFE7C0466C
:1015F00000200C400C300C400810000030B50D4BA2
:10160000002915D1DB68D17800018C0311791818F5
:10161000890493782143147852781D07A4072C433A
:10162000920614431A06231C13430B43836030BDF8
:101630009B68E8E700200C40034B9B6AC340181CE2
:10164000012318407047C04600200C40F8B5012126
:10165000051C1848FFF7E6FB0121802300223F20EC
:10166000154C164EE150164B164F5A60D861586211
:10167000D8625863D8631448D9649A511F50882798
:1016800012487F01DA51C251114FC251114FC2515C
:10169000114FC251114FC2518132FF32A1508022ED
:1016A000120621609A516A689A602A7852011143A1
:1016B0005960F8BD0013020000E100E00C100000CA
:1016C00000200C403F0000800810000004200C4067
:1016D00004110000081100000C110000101100009E
:1016E000F0B5474680B4002811D104232E4A116971
:1016F0000B431361FFF7AAFE041C03F0F1FE201C4C
:10170000FFF7A8FEFEF74AFD04BC9046F0BD274B4C
:10171000274D9846DB6A042711202B60FFF7C6FB94
:10172000214A244E136930703B431361FFF78EFE4C
:10173000041C03F0D5FE201CFFF78CFE84234246D8
:101740004146D4581C4A0120CA5040222968743BA3
:1017500004400B4008400A40034313430F401F431B
:1017600080235B000B4080221F430B1C920313401D
:1017700001D08023DB000D4A31783B4313620529F9
:1017800005D01120FFF740FD0123286818400028EC
:1017900006D0002CB8D000218423044AD150B3E7EE
:1017A0000222024B1A62F4E700ED00E000800C40D8
:1017B000C8010020CC0100200E580000F0B505A99A
:1017C0000C7806A90978072A27D9151C144E083D5C
:1017D000AD000727B446AF40A84065463668934041
:1017E000BE433043286001259540E8439440914032
:1017F0000C4F0A1C3E68064033430B4E3B60336877
:101800000340234333608E23084C5B00E550084BB4
:101810001C68204002431A60F0BD9500054ED8E7D1
:1018200004610040086100400C610040006000401D
:101830001061004000610040F0B54746C40080B42C
:101840009846002A0AD00126C40025188E40AD0013
:10185000002B37D0234B9C4665442E6107291FD8A7
:10186000204B8E009C460F23B3402518AD006544E5
:101870006F689F43131CB3401E1C3E436E60002ADA
:101880000BD14346002B22D101238B40191C164B50
:1018900020189C4680006044416004BC9046F0BD26
:1018A000104B26189C46114BB600CD180F23AD00E7
:1018B000AB406644B7689F43131CAB401D1C3D43BF
:1018C000B560DCE7084B9C4665446E60C6E70123C3
:1018D0008B40191C034B20189C468000604401611A
:1018E000DBE7C0460060004010600040F8FFFF3FAB
:1018F000F8B50023022243631C4B0D1C03630368ED
:10190000041C9343191C6B78013A53405B000B4352
:101910000360AE6868682F7B002E06D10122236821
:1019200093432A7813432360F8BD2268104B1A4072
:101930002260226813403A0213432360002810D02B
:101940002368B300C01A0B4BD95D714301F01AFD37
:10195000236801389B0702D5002800D1013020619F
:10196000DCE70548FFF716FBEAE7C046CFFF0100BA
:10197000FFFCFFFF4856000040810400F0B55F46C1
:1019800056464D464446B34BF0B4984200D0F2E080
:10199000B14B9A685E889446B04A1C799046802282
:1019A0009246403A91463C3A93461978826AC0275B
:1019B000151CFF003D4000D00AE1082900D9DDE0F8
:1019C00047468D007D59AF4607215E8019701C7116
:1019D000920619D5E40064449E4D22895988EE6927
:1019E0008A4200D8EDE06468481C80B25880665492
:1019F000824200D8E5E004236B60012A04D0013A5A
:101A0000904201D104336B60012013E0082119706A
:101A1000F8315E801C710A42F6D08E4A11630922A9
:101A200058781A7000228B4940B24A63012801D1CC
:101A300000205A703CBC90469946A246AB46F0BD89
:101A400062465E801C715088C20600D4AAE06246DD
:101A500006211288120A0A40EA310A43410701D5D9
:101A600001210A43042119707A4B0339596001207E
:101A70005A62DFE75146114200D0B7E049461142B1
:101A800000D1CFE06246016359465288114270D0BE
:101A900007225E801C711A700120CBE7E2006244CD
:101AA0001589B54200D9B2E0624656885A460134DB
:101AB000E4B2324000D07AE001252E4000D0C6E0EA
:101AC000012C00D872E75E801C7108221A70614BED
:101AD000063A5A600120ADE75146114200D085E038
:101AE0004946114200D1ACE04A4602636246528840
:101AF0005849D50600D59BE092073AD507221C71BC
:101B0000E4005E801A7064442389012B00D07BE7D7
:101B100007334B6001208DE762465E801C7151885F
:101B2000CA0636D5624606211288120A0A40EA31F0
:101B30000A4301211970474B01205A62596079E725
:101B40005146114252D14946114233D102225E80A0
:101B50001A701C7101206DE75146114246D1494669
:101B6000114205D106225E801A701C71012061E7C6
:101B7000016305211AE7042040425BE7FB220520B0
:101B80005A70F23A5E801C711A70324B40425D63AB
:101B900050E76246FE20128802408907C9D501211C
:101BA0000A43C6E76246FE2112880A4056E700262D
:101BB0000321FBE66246016352889207D9D50321CF
:101BC000F4E6012A00D080E70821224A51607CE730
:101BD0005E801C71910505D5FD22FD205A700922F9
:101BE0001A701FE752050ED45878F8E78021194A79
:101BF0005E801C7111637F315970F73919700223AF
:101C00000120536016E7FE22FE205A70E7E7526873
:101C1000711C5980915D0F4A1C715162062201208E
:101C20001A7007E704225E801A701C71012001E718
:101C300002225E801A701C7163461B7801204B6281
:101C4000F8E601225E801A701C710120F2E65A80CB
:101C50001C713AE700A00040D001002000560000AF
:101C6000F0B55F4656464D464446F0B4BE4B83B091
:101C7000984243D18368DB0701D5202343604B881A
:101C80009A0702D50A89002A38D05B0702D50B8A49
:101C9000002B33D000220120B44B1A711A705A80E5
:101CA000B14A5870BF3099605060906A800623D462
:101CB000FC24AD4AAE48E4001063506B2043E13C85
:101CC000FF3CA446AB4C5063A0468024A246403C57
:101CD000A1463C3CA34618785E881D790192674670
:101CE000019A946A274000D008E1082800D9C8E08A
:101CF00042468700D759BF46D269D9E704204042FF
:101D000003B03CBC90469946A246AB46F0BD524655
:101D1000224200D000E14A46224200D1D0E04A46A9
:101D2000019802630520DAE708221A70F8325E8013
:101D30001D7114421FD08C490A635878F73A1A7003
:101D40000022894940B24A630128D9D15A70002043
:101D5000D6E75E801D714888C20600D5A3E00A88D8
:101D6000FE210A40810701D501210A430121197092
:101D70007D4B5A6259600120C2E75246224200D090
:101D8000CAE04A46224200D1F6E00198764C02634E
:101D90004888C20600D5DFE08207C3D507221D713F
:101DA000ED005E801A7049190B89012BE3D10733CE
:101DB00063600120A4E75246224200D0ACE04A46CC
:101DC000224200D176E04A460198026348888207A1
:101DD000A8D5032083E707225E801A701D71A20632
:101DE000C9D5ED004919604C0A89B0B2E569824253
:101DF0006FD8012A00D19CE008221A705A4B063A8B
:101E00005A6001207CE75E801D714888C20643D479
:101E10000A88FE210A40410701D501210A43042115
:101E20001970514B0339596001205A6268E75246D4
:101E3000224271D14A46224200D1A3E04A4601988B
:101E400002635A464888024200D16BE707225E804F
:101E50001D711A70012053E7EC000C192789B74255
:101E60006FD85C464E880135EDB234402ED1012248
:101E7000164000D08CE0012D00D830E75E801D7147
:101E8000BAE7FB2205205A70F23A5E801D711A7083
:101E9000354B40425F6333E70A880621120A0A4045
:101EA000EA310A43B7E70A880621120A0A40EA31F2
:101EB0000A435BE702225E801A701D7101201FE752
:101EC00006225E801A701D71012019E7002603208A
:101ED00005E74E68411C89B2598035548A4200D8C2
:101EE00087E704236360012A00D144E7013A914265
:101EF00000D040E704336360012001E75E801D717C
:101F0000A20505D5FD22FD205A7009221A7017E797
:101F1000620512D45878F8E78021134A5E801D715B
:101F200011637F315970F739197002230120536012
:101F3000E6E608210C4A51605EE7FE22FE205A7058
:101F4000E3E76268711C5980915D074A1D71516217
:101F5000062201201A70D3E602225E801D711A70DB
:101F60000B7801206362CBE600A00040D001002086
:101F7000CFFF01002456000001225E801A701D71FF
:101F80000120BDE604225E801A701D710120B7E6B3
:101F90005C801D7130E7C04605238B435B0019430D
:101FA000036CDB0703D40222436C1A42FCD141606C
:101FB0007047C046036C70B5041C0D1CDB0703D4CE
:101FC0000222636C1A42FCD10A236360636C002B0B
:101FD000FCD11C210133236423682A7B8B431343E8
:101FE0006A7B68681343AA7BAE68134323600028AA
:101FF0000AD10E4B9C4204D02B78636000232364EB
:1020000070BD0B48FEF7C6FF4001311C01F0BAF964
:10201000084B2038C0001840236CDB0703D404228F
:10202000636C1A42FCD1E060E6E7C046004008401D
:1020300070071600F87F0000036C10B5DB0703D4AF
:102040000322436C1A42FCD1012382681A4004D057
:1020500002244460046C234210D0002909D080215E
:10206000036849010B430360002A01D00123436048
:1020700010BD0168044B0B400360F5E70224436C7C
:102080001C42FCD1E9E7C046FFEFFFFF002806D065
:10209000012801D000207047024BD868FBE7014BB4
:1020A0009868F8E700000840002804D0012801D112
:1020B000024B19607047024B1960FBE70C000840A7
:1020C0000800084042780378002A01D00222134316
:1020D0008278002A01D004221343014A136070471A
:1020E000000008400123044A1168994311601168F7
:1020F00099430B43136070470000084084B010B54B
:1021000082B00490022007930591069201F004F832
:10211000164C4021201C00F0BDF804AB1B78002BAE
:1021200015D0012B05D0022002B010BC08BC04B0B1
:10213000184740237E215D22009315A869446A4414
:10214000231C00F03BFA0028EDD00020ECE74023F0
:102150002220332111220093684469446A44231CDD
:1021600000F0DCF80028DED00020DDE700040020CD
:1021700000B5C9B283B0002A06D0074A402300F058
:10218000F7FB022003B000BD4023034A00F0F0FB40
:10219000434258410130F5E70004002008B50249E8
:1021A000402200F0A3F808BD0004002038B5041C4C
:1021B00000680D1C002801D002F00EFD281C02F062
:1021C00001FD2060002804D00023012023716571E7
:1021D00038BD0020FCE7C04610B504794279031CE5
:1021E000121BD2B20020032A15D9621C1A711A6878
:1021F000023010551A79541C1C711C68A0541A79AD
:102200001C68501C1871080AA0541A791868541CCC
:102210001C718154012010BD10B504794279031C52
:10222000121BD2B20020032A16D9621C1A71032293
:10223000186802551A791C68501C18716720A05440
:102240001A791C68501C1871080AA0541A79186869
:10225000541C1C718154012010BDC04610B5047976
:102260004279031C121BD2B20020022A10D9621C30
:102270001A710422186802551A791C68501C1871CA
:102280006820A0541A791868541C1C7181540120CC
:1022900010BDC04610B50A21042200230020FFF71C
:1022A000CBFA142000F0B4FF01230A2104220020FD
:1022B000FFF7C2FAFA2000F0ABFF0A4C00215022CF
:1022C000201C02F09CFC00F097FE0222201C064914
:1022D00002F08CFC201C012100F01AFE142000F0FA
:1022E00097FF10BD640400204C560000031C70B51D
:1022F000084C0E1C151C08491A1C201C02F074FD09
:10230000201C02F09BFD321CC1B22B1C201C00F0D3
:1023100091FE70BD6404002050560000F0B54E469A
:1023200045465746E0B41D1C904684B00CAB8F4C1C
:102330001E78102281460F1C201C8D4902F056FC8D
:10234000331C201C0F212A1C00F074FE4346002B76
:1023500000D1EBE0404602F071FD864B9A46102812
:1023600000D1DAE084495246201C02F03DFD201CD9
:1023700002F064FD331CC1B22A1C201C00F05AFE7E
:10238000484602F05BFD7D4B9846102800D1BBE02B
:102390007B494246201C02F027FD201C02F04EFD26
:1023A0002A1CC1B2331C201C00F044FE381C02F071
:1023B00045FD8146202800D19AE0724B984672492B
:1023C0004246201C02F010FD201C02F037FD331C99
:1023D000C1B22A1C201C00F02DFE6C490122201CD9
:1023E00002F002FD201C02F029FD331CC1B22A1CA0
:1023F000201C00F01FFE66491222201C02F0F6FB92
:10240000331C201C11212A1C00F014FE61491122EA
:10241000201C02F0EBFB331C201C10212A1C00F0B6
:1024200009FE5D491122201C02F0E0FB331C2A1C2E
:102430001021201C00F0FEFD02F088FC052101F0B7
:1024400017F9FF22201C0A40544902F0CDFC201C41
:1024500002F0F4FC331CC1B22A1C201C00F0EAFD7F
:102460004F499622201C02F0BFFC201C02F0E6FC23
:10247000331CC1B22A1C201C00F0DCFD49490B2290
:10248000201C02F0B3FB2A1C331C201C0A2100F084
:10249000D1FD0122444B0A271A70444B9A46444B03
:1024A000994651461022201C02F0A0FB2A1C331C26
:1024B000201C0F2100F0BEFD281C311C00F0EEFD99
:1024C000281C494600F0B6FE804600280CD1394849
:1024D000013F00F09DFE002FE3D1404604B01CBC3C
:1024E00090469946A246F0BD642000F091FEF4E7C4
:1024F000244B391C9846181C212202F077FB00233C
:102500004246494653545AE7181C1122494602F0E4
:102510006DFB0023424613743AE7181C1122414612
:1025200002F064FB0023524613741BE72249112278
:10253000201C02F05BFB331C2A1C201C102100F025
:1025400079FD291C684602F071FC684602F076FCB1
:10255000084B9A46102800D004E7181C112269463F
:1025600002F044FB534642461A74FBE66404002022
:1025700098560000EC040020A8560000B404002087
:10258000BC56000040040020D05600002C5700002C
:10259000405700005457000088570000685700005B
:1025A0009C570000B0570000DC010020BC57000021
:1025B000CC5700008813000060560000F8B55F4655
:1025C00056464D464446F0B41D1C93460AAB684C33
:1025D0001E781022071C8946201C664902F006FB63
:1025E000201C0F212A1C331C00F024FD584602F049
:1025F00025FC8246202800D1A2E05F4B98465F4927
:102600004246201C02F0F0FB201C02F017FC2A1CA2
:10261000C1B2331C201C00F00DFD484602F00EFC38
:102620008246202800D197E0554B984642465549AE
:10263000201C02F0D9FB201C02F000FC331CC1B2AC
:102640002A1C201C00F0F6FC381C02F0F7FB4E4B55
:10265000984608286BD04D494246201C02F0C4FB26
:10266000201C02F0EBFB331CC1B22A1C201C00F022
:10267000E1FC47490122201C02F0B6FB201C02F0BD
:10268000DDFB331CC1B22A1C201C00F0D3FC4149E5
:102690001222201C02F0AAFA331C201C11212A1C31
:1026A00000F0C8FC3C491122201C02F09FFA331CA8
:1026B000201C10212A1C00F0BDFC38490B22201CD4
:1026C00002F094FA2A1C331C201C0A2100F0B2FCF0
:1026D0000022334B0A271A70324B9A46324B9946E6
:1026E00051460F22201C02F081FA2A1C331C201CA8
:1026F0000E2100F09FFC281C311C00F0CFFC281C90
:10270000494600F097FD804600280CD12748013F3C
:1027100000F07EFD002FE3D140463CBC9046994638
:10272000A246AB46F8BD642000F072FDF4E7181C29
:102730000922391C02F05AFA0023424613728AE732
:102740000D4B59469846181C212202F04FFA0023DF
:1027500042465146535452E7094B4946181C212220
:10276000984602F043FA00225146114B5A545DE755
:1027700064040020985600000C050020FC56000060
:10278000C8040020E4560000000500201457000093
:102790002C5700004057000054570000B05700006D
:1027A000DC010020D8570000CC570000881300003F
:1027B00040040020F0B55F4656464D46444600238F
:1027C000F0B485B00393544B0C1C9846534B161C25
:1027D0009946534B1E259A46524B534F9B462DE02C
:1027E000201C311C00F05AFC201C504900F022FD36
:1027F000002800D07EE0201C4D4900F01BFD002881
:1028000000D079E0201C4B4900F014FD002842D193
:10281000201C494900F00EFD00284BD1201C4749DF
:1028200000F008FD002865D1201C454900F002FD9C
:10283000002830D1013DEDB2002D3BD0381C02F014
:10284000FDFA221CC1B2331C381C00F0F3FB201C23
:10285000414600F0EFFC0028C2D1201C494600F0A0
:10286000E9FC002826D1201C514600F0E3FC00289A
:1028700011D1201C594600F0DDFC002835D1201C68
:10288000304900F0D7FC002805D1201C2E4900F06B
:10289000D1FC00281DD02D4B1B780096002B11D1A8
:1028A000013D2B482B492C4A231CEDB2FFF786FE35
:1028B000002DC3D1002005B03CBC90469946A246ED
:1028C000AB46F0BD2549264A231C2648FFF726FDC6
:1028D000B0E7201C244900F0ADFC00280ED0039B7B
:1028E0000133DBB20393092BD5D8FA20400000F066
:1028F0008FFC9FE70120DEE70220DCE7201C1B495C
:1029000000F098FC0028C6D1201C0B4900F092FC76
:102910000028C0D0CEE7C046E85700003458000079
:10292000445800005058000064040020EC57000098
:10293000F857000000580000085800001C5800001C
:10294000285800005C58000064580000DC0100209A
:1029500000050020C80400200C05002040040020D1
:10296000EC040020B4040020845800008C580000BF
:1029700070B582B0161C01AA1D1C0C1C00F06EFC68
:10298000031C0020002B0DD00749019A074802F0D4
:102990002BFA1234019802F01FF9E0B2311C2A1C04
:1029A000FFF708FF02B070BD9858000064040020D3
:1029B00000B587B00B49022203A802F017F90823DB
:1029C0008020009303A9022204AB00F0A9F900289B
:1029D00005D06B46187C153843425841C0B207B049
:1029E00000BDC046C0580000F0B585B0E5236A467A
:1029F00002241372051C0F1C0094802002A90122DE
:102A000003AB00F08DF900282AD06B4603265B7BD0
:102A10008020B3431A1C6B461B7B02A91B02D318F0
:102A2000104A5343104A5B0B944663446A462B603A
:102A3000E02313720094012203AB00F071F9002827
:102A40000ED06B465B7BB3431A1C6B461B7B1B0291
:102A5000D318064A5343064A5B13944663443B60CB
:102A600005B0F0BD093D000090E8FFFFCD55000026
:102A7000FE48FFFF034B1A78002A01D000221A708B
:102A80007047C0462D05002008B5C82000F0C0FBE7
:102A900000F0AAF9F9E7C04670B5CAB000F080FBB3
:102AA0004048002100F026F923A9002000F0C2F8D8
:102AB000FA20400000F0ACFB002000F02DFB1420B9
:102AC00000F0A6FBFFF774FF002811D036498F22D3
:102AD00026A802F08BF82AA97F22684602F086F821
:102AE00026982799289A299BFFF708FB00281FD0D2
:102AF000FFF7CAFF21B224A8FFF78EFB0028F7D00A
:102B000024A8311CFFF7AAFB0028F1D029B224A881
:102B1000FFF762FB0028EBD0249825990022FFF7ED
:102B200027FB0128E4D1214B18702148FFF736FB21
:102B3000002000F0F1FA142000F06AFB22A921A87D
:102B4000FFF752FF002000F009FB229800F072FF0F
:102B5000184900F037FE01F0F5FD00F0BDFB01F073
:102B6000BBFDFA2184B24900219800F00BFC23A997
:102B7000C6B2002000F05EF8239800F0A3FF01F039
:102B8000E1FD00220C4B01F00DFB00F0A5FB01F074
:102B9000A3FD102185B224A8FFF708FB0028A9D1C6
:102BA000A6E7C046752A0000C45800002D05002085
:102BB00060EA00000000C8420000B93F00231F2265
:102BC00070B5184E86B003AC01AD17480121EA700C
:102BD0002B706B70AB702B716B7123706370A37073
:102BE000E37023716371A371E3712372FEF71AF925
:102BF000301C291CFDF7ACFF01250423211C301CCF
:102C000063702571FDF7E8FFC0211022074B4900D2
:102C1000736373691D43064B75615A501A6006B0A1
:102C200070BDC0460020004000A204007C1F0000D0
:102C300000E100E010B50323002801D0181C10BDEE
:102C400001220A4C0A4B20705A602378002B08D1CD
:102C50000420084A13698343136130BF2378002B93
:102C6000F8D0034B5B6A0B600023E7E7DD0100202F
:102C70000020004000ED00E0034B9A691A62012237
:102C8000024B1A707047C04600200040DD01002052
:102C900010B5012482B00220092101220023FEF791
:102CA000CBFD02200A2101220023FEF7C5FD00947E
:102CB00001940220092109220023FEF77FFD0094E0
:102CC000019402200A210A220023FEF777FD8E23B9
:102CD0000549064A5B00D1504022054B1A603E3A36
:102CE0001A6002B010BDC046FFFF00000060004047
:102CF00000E100E008B5002905D0012902D10A2130
:102D000000F034F808BD092100F030F8FAE7C046B9
:102D100008B50248FDF71EFB08BDC04610000020A4
:102D200030B587B01C1C0AAB1D7801AB188004209D
:102D30001A81084A588002911D82191C1068049457
:102D4000FDF796FB0123002801D000232370181CF7
:102D500007B030BD1000002008B503480021402214
:102D600001F04DFF08BDC04630050020014B890031
:102D7000C8507047300500208A228E2108B5074BC5
:102D800052009A58064849005850930504D5054BFF
:102D90005B6A002B00D0984708BDC0460060004029
:102DA000AAAA0000300500208A228E2108B5074B10
:102DB00052009A58064849005850530504D5054B0F
:102DC0009B6A002B00D0984708BDC04600600040B9
:102DD000555500003005002008B50221031C0422CF
:102DE0000020FEF729FD08BD0422014B9A617047BF
:102DF0000060004000B5064B83B000930023012023
:102E000001930022034BFEF77BFB03B000BDC046DD
:102E10001C4008407005002000B5124B83B0DB69F0
:102E2000DBB20A2B0ED0104B1A78302A0CD91A7844
:102E30000E4901208A18002151700D4A1070197036
:102E400003B000BD084BF2E71A7801200132D2B27C
:102E50001A701B78054AD318002200920192FEF7DF
:102E60004FFBEDE700400840F8010020700500200E
:102E7000DE010020F0B500248DB0204B04A80470C2
:102E80004360FEF7E3FB1E4D1E4B06A9EB6080235B
:102E90005B034B602B1C01270C332C6101200326A4
:102EA0000C704F708B60FEF777FB6B466A46012013
:102EB00001211E705E709C70DC701C71FEF79EFB21
:102EC00000216A460120FEF799FB0F4B09A92B60F0
:102ED0000E4B6C6000204B600C704F708D60FEF7E5
:102EE0005BFB02AA00200121167054709470D4700C
:102EF0001471FEF783FB0DB0F0BDC0460003002047
:102F0000E0010020192E0000F52D00000100100046
:102F100000B50A4A83B0536C002BFCD101390090F4
:102F20000191002001210022054BFEF7E9FA002063
:102F3000FEF782FB0028FAD103B000BD0040084034
:102F40002840084030B5244885B00121FDF76AFFCC
:102F500022480121FDF766FF0320042104220123FA
:102F6000FEF76AFC0320052101220023FEF764FC22
:102F70006A461B4B6C4623CB23C21B68194D13605A
:102F800019480121FDF74EFF18480221FEF73CF9D0
:102F9000281C0121FDF746FF281C0121FDF77EFEBC
:102FA0000023134D6946281C2370FFF703F8032301
:102FB000281C6B650121FFF73FF8042380216B6318
:102FC0000C4A7D33FF33C900D150281C0521FEF780
:102FD000E3FF05B030BDC04640810400008204001C
:102FE00054590000700716000023020003001C0063
:102FF0000040084000E100E008B5FFF73BFF042176
:10300000042201230320FEF717FC142000F000F92E
:103010000421042200230320FEF70EFC142000F0FC
:10302000F7F81022024BDA67FFF78CFF08BDC046A5
:103030000060004030B5151C134A83B0536C002B60
:10304000FCD10139009001910020012100220F4B99
:10305000FEF756FA0020FEF7EFFA0028FAD10C4CE2
:103060002378002B05D10120FEF73AFB2378002BB3
:10307000F9D0281C074901F0D9FE0023064A237025
:10308000137003B030BDC0460040084028400840DF
:10309000DE01002070050020F801002070B5104B03
:1030A00082B0009300230F4D0193061C2B1C0120BE
:1030B00001210022FEF724FA0B4C2378002B05D1C6
:1030C0000120FEF70DFB2378002BF9D0301C291CC2
:1030D00001F0ACFE0023054A2370137002B070BDEE
:1030E0001C40084070050020DE010020F80100208F
:1030F00008B50220082104220023FEF79DFB0020D2
:10310000092104220023FEF797FB00200821042256
:103110000023FEF791FB08BD012818D0002811D02C
:1031200002280AD0032807D1802280210A4B5200AE
:1031300089009A6519611A6170478022064B520016
:103140001A61F9E78022044B52009A65F4E7802265
:10315000014B92001A61EFE700600040012818D08F
:10316000002811D002280AD0032807D1802280210C
:103170000A4B52008900DA6559615A617047802212
:10318000064B52005A61F9E78022044B5200DA657F
:10319000F4E78022014B92005A61EFE700600040A3
:1031A00008B5104BDB6C1B0E812B07D80E4A0F4B5A
:1031B0001A600F4A0F4B11680B40136001210E4833
:1031C000FDF730FE00F01AF8FFF7C6FD0020FFF70C
:1031D00003FEFFF75DFDFFF78BFFFFF7EFFCFFF747
:1031E00097FD08BDB081E00F0500000418600C4099
:1031F000E4800C40FFFFFFFE0082040008B5FDF7ED
:10320000DDF90248FDF7A8F908BDC046A405002075
:10321000074B021C1868002300B583B000930021FF
:10322000FDF718FA0120FEF75BFA03B000BDC046B7
:10323000A405002038B5051C081C0C1C01F0FEFD7F
:10324000002305E0E95CE25C914205D10133DBB289
:103250008342F7D3012038BD0020FCE7F0B54F468C
:103260004646C0B487B001AC151C221C0E1C194B7D
:10327000814683CB83C2196811601B791371730077
:10328000581C984601F09EFC2860002820D000239E
:1032900042468354002E1BD0013EF6B201364A4608
:1032A00076000F2700E0286811780909615CC15495
:1032B000107829683840205CC91802334870013200
:1032C000B342F0D1012007B00CBC90469946F0BD46
:1032D0000020F8E764590000F8B5254A4B005B0D63
:1032E0009A18071C0C1C132A15DC002A37DB214B0B
:1032F000051C13411C1C0C4004430E1C002C07D061
:10330000802424031441002064189C43051C261CBF
:10331000281C311CF8BD332A0EDD8023051C0E1C31
:10332000DB009A42F4D1381C211C3A1C231C00F00B
:1033300011FC051C0E1CEBE70F4A0E1C9D18012208
:103340005242EA40051C0242E2D00C4DEB1A012524
:103350009D402818874200D94C1C9043D6E7C90FDE
:10336000CC070020531CD1D1054B1C43CEE7C046EF
:1033700001FCFFFFFFFF0F00EDFBFFFF3204000029
:103380000000F03F002243088B4274D303098B42B4
:103390005FD3030A8B4244D3030B8B4228D3030C25
:1033A0008B420DD3FF22090212BA030C8B4202D3C7
:1033B0001212090265D0030B8B4219D300E0090AEF
:1033C000C30B8B4201D3CB03C01A5241830B8B42F8
:1033D00001D38B03C01A5241430B8B4201D34B03E1
:1033E000C01A5241030B8B4201D30B03C01A524146
:1033F000C30A8B4201D3CB02C01A5241830A8B42CB
:1034000001D38B02C01A5241430A8B4201D34B02B3
:10341000C01A5241030A8B4201D30B02C01A524117
:10342000CDD2C3098B4201D3CB01C01A52418309CB
:103430008B4201D38B01C01A524143098B4201D305
:103440004B01C01A524103098B4201D30B01C01A30
:103450005241C3088B4201D3CB00C01A52418308AA
:103460008B4201D38B00C01A524143088B4201D3D7
:103470004B00C01A5241411A00D201465241104637
:103480007047FFE701B5002000F0FCF802BDC04620
:103490000029F7D003B5FFF775FF0EBC4243891A28
:1034A0001847C04603460B437FD4002243088B4293
:1034B00074D303098B425FD3030A8B4244D3030BBB
:1034C0008B4228D3030C8B420DD3FF22090212BA80
:1034D000030C8B4202D31212090265D0030B8B42FC
:1034E00019D300E0090AC30B8B4201D3CB03C01AE6
:1034F0005241830B8B4201D38B03C01A5241430BC1
:103500008B4201D34B03C01A5241030B8B4201D3B0
:103510000B03C01A5241C30A8B4201D3CB02C01A1B
:103520005241830A8B4201D38B02C01A5241430A93
:103530008B4201D34B02C01A5241030A8B4201D382
:103540000B02C01A5241CDD2C3098B4201D3CB0129
:10355000C01A524183098B4201D38B01C01A5241D8
:1035600043098B4201D34B01C01A524103098B42DC
:1035700001D30B01C01A5241C3088B4201D3CB00C7
:10358000C01A524183088B4201D38B00C01A5241AA
:1035900043088B4201D34B00C01A5241411A00D25A
:1035A00001465241104670475DE0CA0F00D04942C3
:1035B000031000D34042534000229C4603098B4233
:1035C0002DD3030A8B4212D3FC22890112BA030ABB
:1035D0008B420CD3890192118B4208D3890192113D
:1035E0008B4204D389013AD0921100E08909C309C2
:1035F0008B4201D3CB01C01A524183098B4201D3C4
:103600008B01C01A524143098B4201D34B01C01AAE
:10361000524103098B4201D30B01C01A5241C30826
:103620008B4201D3CB00C01A524183088B4201D395
:103630008B00C01A5241D9D243088B4201D34B00B0
:10364000C01A5241411A00D20146634652415B10F2
:10365000104601D34042002B00D5494270476346D3
:103660005B1000D3404201B5002000F00BF802BD12
:103670000029F8D003B5FFF715FF0EBC4243891AA5
:103680001847C0467047C0461C2101231B049842BE
:1036900001D3000C10391B0A984201D3000A0839E3
:1036A0001B09984201D30009043902A2105C40189A
:1036B0007047C0460403020201010101000000003E
:1036C00000000000002B11D1002A0FD1002900D1E9
:1036D000002802D00021C943081C07B4024802A1F7
:1036E0004018029003BDC0469DFFFFFF03B468462B
:1036F00001B5029800F04CF8019B9E4602B00CBC4C
:103700007047C046F0B54F46464605042D0C2C1CAC
:10371000C0B41704160C3F0C9946030C7C43754348
:103720005F4373437D19260CAD199C46AF4203D904
:1037300080235B029846C4444B46514343432404D0
:103740002E0C240C2D0466442C1959188919201CA0
:103750000CBC90469946F0BDF0B583B0161C1F1CFA
:103760000090019101F042F8041C0D1C221C2B1C3E
:10377000301C391CFFF7C6FF009A019B121A8B41BF
:103780000899201C0A604B60291C03B0F0BDC0469C
:10379000F0B5141C83B01D1C0090019101F01EF9BE
:1037A000221C2B1C061C0F1CFFF7ACFF009A019B70
:1037B000121A8B410899301C0A604B60391C03B007
:1037C000F0BDC046F0B556464D465F464446F0B49F
:1037D00043024500C70F83B08A465C0A2E0EB946E5
:1037E00041D0FF2E26D080231B042343DC0000237E
:1037F00098469B467F3E53465B025D0A53465A00FD
:10380000DB0F120E9A4639D0FF2A33D080231B04D7
:103810002B43DD0000237F3A5146B21A46467940D9
:10382000081C01921E430F2E00D976E07E4AB60096
:103830009659B746002C30D108239846063B9B4644
:10384000D9E780230021DB03FF245B02E4055B0A48
:10385000C90723430B43181C03B03CBC9046994650
:10386000A246AB46F0BD002C28D104239846033B6A
:103870009B46C0E7002D1FD1022302E0002D11D18D
:103880000123B21A50464646784001921E430F2E3D
:1038900027D86649B60089598F460C239846093BBC
:1038A0009B46A8E7281CFFF7EFFE7622431F5242F3
:1038B0009D40121A0023AFE70323ADE7201CFFF75A
:1038C000E3FE431F9C4076235B421E1A002398466A
:1038D0009B4690E70025D1469B465B464846022B17
:1038E0006FD10121FF2401400023AEE77E23019A1E
:1038F0005B429B1A1B2B6DDD01214B4619400024B6
:103900000023A2E78023DB031C4249D18023DB0391
:1039100023435B025B0A391C96E763016D01AB42EE
:1039200037D389461A2001215B1B01241E1C490044
:103930005B00002E01DBAB4201D35B1B214301384E
:103940000028F3D1581E83410B431D1C019C7F347A
:10395000002CCBDD6B0704D00F232B40042B00D0B1
:1039600004352B0104D5019A314B8032141C1D40C3
:10397000FE2C07DD4B460121FF241940002364E79C
:10398000251CAAE701214A46AB015B0AE4B21140BB
:103990005BE7019A8946013A01921B200021C4E7A6
:1039A0001D4207D023435B025B0A391C4CE700250C
:1039B0006302ABD58023DB032B435B025B0A5146DA
:1039C00042E7032B25D0012BC0D101210024014067
:1039D00000233AE7291CD9402B1C019A9E329340C0
:1039E0005D1EAB410B435A0704D00F221A40042A34
:1039F00000D004335A0105D54B460121012419405A
:103A0000002322E701214A469B015B0A1140002462
:103A10001BE7802301214A46DB032B435B020A405C
:103A20005B0A111C10E7C04678590000B859000025
:103A3000FFFFFFF770B5041E39D0C50F00D0444218
:103A4000201CFFF721FE9E23261C1B1A962B07DC49
:103A5000082801DD083884406402640AD8B21EE0F8
:103A6000992B0ADD0522211C121AD1400A1C011CC7
:103A70001B318E40711E8E411643052801DD421F09
:103A800096400F4C3440720704D00F221640042E8B
:103A900000D0043462010ED4A401640AD8B26402D6
:103AA000C005640AED0704432C43201C70BD0025AB
:103AB00000200024F3E7024B1C409F231B1AEBE776
:103AC000FFFFFFFB10B5041E35D0FFF7DDFD9E2183
:103AD000091A962909DC082830DD021C231C083A43
:103AE00093405B025B0AC8B220E099290CDD0522F5
:103AF000231C121AD3401A1C031C1B339C40231C8A
:103B00005C1EA34113431C1C052801DD431F9C4080
:103B10000F4B2340620704D00F221440042C00D026
:103B200004335A010ED49B015B0AC8B25B025B0AE4
:103B3000C005184310BD00200023F7E763025B0AAD
:103B4000C8B2F3E79F21024A091A1340EBE7C046C7
:103B5000FFFFFFFBF0B5454657464E4694464C00E6
:103B60000A03C90FE0B488460E1C1903470FC500AD
:103B7000480A6146490F01436046520A1743C00094
:103B80005A00640D520DDB0F8446984500D1A7E022
:103B9000A01A002800DC01E1002A3DD163460B4356
:103BA00000D0D4E06B0700D188E00F232B40042B1A
:103BB00000D183E02A1DAA42AD4180236D427F19C6
:103BC0001B043B404646151C002B00D17CE0CC4B2F
:103BD00001349C4200D1FDE03A1CCA4BED081A406A
:103BE0005007640552020543120B640D00211203B5
:103BF0000B0D1B056405120B1A436308C24CF60734
:103C000014401C43640064083443281C211C1CBC61
:103C100090469946A246F0BDB94B9C42C2D0802343
:103C20001B041943382800DDECE01F2800DD21E1EA
:103C300020220E1C6346121A9640C3403343664648
:103C40009640321C561EB24113430A1CC240EB1A66
:103C50009D42B6411D1CBA1A7642971B3B0200D406
:103C600097E07A02560A002E00D1B6E0301CFFF72A
:103C70000BFD031C083B1F2B00DDB7E09E40371CEB
:103C800028262A1C361AF240161C9D403E439C42B0
:103C900000DDB2E01C1B621C1F2A00DDD8E01F23E0
:103CA000291C1C1B331CA540A340D1406C1EA54100
:103CB000D64019430D43371C002473E780231B04AF
:103CC0003B40464600D082E78D4BED087807054320
:103CD000FA089C4232D012036405120B640D85E78A
:103CE000A31A002B00DC94E0002A3CD0844A9442C2
:103CF00000D157E7802212041143382B00DC05E184
:103D000063461943481E81410022C8B24019A842A7
:103D10009B41051CD2195B42D7183B0239D5784B21
:103D200001349C4200D14CE10120764A6B083A40B4
:103D300028401843D5070543570833E72B1C134386
:103D400048D080231B031A431203120B4EE701389D
:103D5000002878D16346EE1AB5429B417A1A5B423D
:103D6000D71A351C7AE7021C0A4300D11AE7013B37
:103D7000002B00D0F2E04019A8429B41CA195B42D7
:103D8000D718051CC9E7131C334300D118E1171CD1
:103D9000351C46466B0700D007E795E700287AD127
:103DA000621C5205520D012A00DCFBE06246AA1A91
:103DB0009542B6419146781A7242861A320200D470
:103DC00093E06246551BAC458041CF1B40423E1AF2
:103DD000984648E70022002508E7281CFFF754FC16
:103DE0002030031C083B1F2B00DC47E728388540A8
:103DF0002E1C00259C4200DC4CE7424AE41A164087
:103E0000371CCFE6634619434B1E99410022CBB2C3
:103E10001DE7002B00D0F2E0601C43055B0D012B79
:103E200000DCA4E0364B984200D121E163465C19E6
:103E3000AC429B41CF195B42FA186408D507254371
:103E40005708041CAEE62E4B9C4200D0EAE6A9E6D9
:103E5000211C331C1F39CB40191C202A00D182E0C1
:103E60003F231C1BA64035436E1EB54100270D4362
:103E700000248EE7031C0E1C203BDE40202874D05B
:103E800040231B1A99400B1C62461343591E8B4159
:103E900000223343DBE6002C50D0194CA24200D163
:103EA000A8E08024240440422743382800DDD9E0DC
:103EB0001F2800DD39E120243E1C241AA640B0460C
:103EC0002E1CA146C640444626434C46A5406C1EC7
:103ED000A541C74035436046451BCF1BAC458941D2
:103EE00049427F1A141C9846B8E64B464D46334368
:103EF00000D0B8E60026002700240025E4E6C046EE
:103F0000FF070000FFFF7FFFFFFF0F801F2B5BDC21
:103F10002022081CD21A9040814660469246D84022
:103F20004A4610438146524660469040021C501E4D
:103F30008241484610430A1CDA40E7E63C1C2C4309
:103F400058D0C043002851D16046451BAC45804144
:103F5000CF1B40423F1A141C98467FE68F4A94427A
:103F600000D0CAE61EE600267DE700238CE73B1C56
:103F70002B43002C00D0BDE0002B00D1F5E06346C0
:103F80000B4300D10EE663465B19AB428041CA1970
:103F9000404217183A0200D4FCE0814A1D1C174029
:103FA0000134FFE53A1C2A43002C51D1002A00D0ED
:103FB00085E062460A4303D00F1C65469846F1E54A
:103FC0000026002700257FE6181C0A1C2038C24066
:103FD000202B00D1A7E04020C01A8140081C634676
:103FE0001843411E8841104300228FE66B4CA242C9
:103FF00000D05AE70F1C6546141C9846D2E5002CE9
:104000003AD1381C284371D0DB43002B18D06348C9
:1040100082426BD0382B00DD9DE01F2B00DDA7E036
:1040200020203C1CC01A8440A1462C1C8246DC4047
:104030004846044350468540681E8541DF4025437D
:10404000654465459B417F185B42FF18141C64E67C
:10405000002A19D162460A4377D00F1C654698465C
:104060004E4C9FE53D436F1EBD410027EDB232E748
:10407000041C0027002527E64848824236D08020CD
:1040800000045B420743C5E762460A4349D08024E7
:10409000ED087807FA0824032843224209D0CE0805
:1040A000264206D162464F07381CD2081043984674
:1040B000321CD200470F1743C500384C72E56246E8
:1040C0000A4300D16EE56246AE1AB5429241781AB3
:1040D0005242821A100200D455E66246551BAC4586
:1040E0008041CA1B4042171A98465BE50F1C654683
:1040F000141C57E5002B34D063460B4311D08024A9
:10410000ED087807FA08240328432242D1D0CB08CF
:104110002342CED162464F07381CD20810431A1CE6
:10412000C7E71E4C3EE5002059E7041C3E1C203C1E
:10413000E640341C20282BD04026301A87403D43CF
:104140006F1EBD4100272543C5E680270026FF03DB
:10415000124C0025B8E53D436F1EBD410027EDB26E
:104160006EE70F1C65460D4C1CE50F1C654619E5F6
:104170001C1C381C203CE040041C202B0CD0402090
:10418000C31A9F403D436F1EBD410027254357E79B
:104190000027D4E71D1CFCE50027F3E7FF0700001C
:1041A000FFFF7FFFF0B55F4656464D464446F0B4EC
:1041B000051C061C080387B099464F00030BCC0F63
:1041C00092469B467F0D019467D06C4B9F4236D040
:1041D00080205B4640031843C0006B0F1843684BB8
:1041E00083469C4600239846EE00674400934B4666
:1041F00049461D03C90F5B0052462D0B5B0D8946D6
:1042000000D16EE05D498B4264D080205C49400360
:104210008C4600210543ED00500F0543D200634456
:104220004846FF187B1C9A46009B604002900B4357
:104230000F2B00D9ACE053489B00C3589F465B4608
:104240001D4300D082E00823009300239B460233E5
:1042500000269846CBE7029B01934346022B59D197
:10426000012400250026019B1C40444B00212D0306
:104270000A0D12052D0B1543434A1B0515401D431E
:104280006D00E4076D082543301C291C07B03CBCB9
:1042900090469946A246AB46F0BD2B434ED05B46B6
:1042A000002B00D185E15846FFF7EEF9021C2823C8
:1042B000291C9B1A161C5846D940083EB0400B1CBE
:1042C000B54003439B462E1C0023304F0093BF1A7A
:1042D00098468CE7514629432ED100250022022121
:1042E0009EE75146294323D0002D00D154E1281CDC
:1042F000FFF7CAF9031C28215046C91A1A1CC840E6
:104300005146083A914095400A1C05431F48002138
:10431000C31A85E7032B00D1C2E1012B00D06DE168
:104320004446019B00251C40E4B2002300269DE783
:1043300000250022012173E7032171E70423009384
:1043400000239B4601330026984650E70C23009338
:10435000093B98464BE7802500242D030026074B98
:1043600084E74B46AB46161C0193884675E7029BD3
:10437000AB46161C019388466FE7C046FF07000056
:1043800001FCFFFFF8590000FFFF0F800DFCFFFF4D
:10439000330C3604360C9C46331C140C1204120CDD
:1043A0005343984663465343994663466343019398
:1043B000331C41466343090C4B445B18994505D9AE
:1043C000802040028146019949440191190C0391D2
:1043D00041460904090C1B045B1804932B0C9846F6
:1043E000331C2D04290C4B4360460093434665461D
:1043F00058435E43009B4D431B0C9946AE194E44F7
:104400008446B54203D980235B029946CC44350CDF
:104410002B1C0398634484460593009B36041B04BD
:104420001B0CF3189C446046039058460504060C88
:10443000280C84465043351C8146604665434443FE
:104440004846000C8346724314195C44A24203D9C7
:104450008022520293465D44220CAD184A46120453
:10446000120C24044046A41862464A437143464352
:1044700060460096464670438046100C8446884449
:10448000E044414505D9802149028C4600996144A8
:104490000091019803998446614499429B415B4293
:1044A00099460598434684461204120C1B049B1837
:1044B00063449C46AB4683429B4140460A19CC4428
:1044C000A2428941E344CC45B6415C46000C80469B
:1044D000494276425B426418334398448C42894196
:1044E000AB459B4149425B4219430D1C009B45442F
:1044F000EE187602E50D2E43B346049B56021E438A
:10450000731E9E415B46D20D324366021643DB01A9
:104510000AD50123334076081E435B46DB071E4362
:104520005B465B089B465746634BFB18002B5ADDE6
:10453000720709D00F223240042A05D0321DB24240
:10454000B6417642B344161C5A46D20106D55A46A5
:104550005A4B1A4080239346DB00FB18584A93427B
:1045600034DD0124029B00251C400026554B7DE6CE
:1045700080205B460003034208D0054206D1054374
:104580002D032D0B4C46161C4E4B6FE65D46054326
:104590002D032D0B4B4B69E65046FFF775F8031CB6
:1045A0002033272B00DCA6E655460838854000223C
:1045B000ACE6281CFFF768F8021C2032272A00DC32
:1045C00075E6083885400026AB467DE65A46F60873
:1045D000520716435A4601245502029A5B052D0BD9
:1045E0005B0D144042E6384DED1B382D0ADD0124E9
:1045F000029B00251C400026002337E6019B5746FE
:10460000029391E71F2D25DC304B321C9C466744FA
:10461000BE405B46BB40371CEA407E1EB741134399
:104620003B431E1C5B46EB401D1C730709D00F2348
:104630003340042B05D0331DB342B6417642AD1949
:104640001E1C2B0220D50124029B00251C400026A5
:1046500001230BE65A461E4BDB1BDA40131C202DB0
:104660001CD01C4A94465A466744BA40171C3E4325
:10467000721E96411E4307230025334007D00F23A7
:1046800000253340042BD6D16B076D022D0B01247E
:10469000F6081E43029B1C400023E7E50027E6E7DF
:1046A00080255B4601242D031D43019B2D032340E0
:1046B0001C1C2D0B034BD9E5FF030000FFFFFFFE81
:1046C000FE070000FF07000002FCFFFF1E040000C1
:1046D000E2FBFFFF3E0400000B0330B5134C1A0B46
:1046E0004B00051C5B0DC90F0020A34210DD1048D4
:1046F00083420EDC80200F4C40030243E41A1F2C3F
:104700000ADD0D48C31ADA40131C484243405818CA
:1047100030BD0A4BC818FBE7281CE040084CA446F3
:1047200063449A40131C0343EFE7C046FE030000B6
:104730001D0400003304000013040000FFFFFF7F8E
:10474000EDFBFFFF4200120E511C38B5C9B2430207
:104750005D0AC40F012915DDE02189008C466D0733
:104760001B0B62440021281C0D0D2D052B431C4DF5
:1047700052052B40520813435B00E4075B082343B8
:10478000191C38BD002A15D1002D1FD0281CFEF79A
:104790007BFF0A281DDC0B232A1C1B1ADA40131C82
:1047A000021C153295400F4A1B03121A52051B0BAF
:1047B000520DD7E7002D06D080221B0B12031343A6
:1047C0006D07094ACEE7084A0023CBE70022002301
:1047D000C8E7031C0B3B9D402B1C0025E3E7C046AC
:1047E000FFFF0F8089030000FF070000F0B544467B
:1047F0005F4656464D46F0B41C1C85B0002900DAD1
:10480000A9E00F1C0021061C8846101C191C002C56
:1048100000DA97E0341C3D1C82468946B94273D8C1
:1048200070D04946504600F085F98346391C301C4B
:1048300000F080F95B46181A031C8346203B9C4617
:1048400000D59CE00023002251460092019363466C
:104850009940019151468140019B0091BB4200D992
:1048600083E000D17EE0009A019B341C3D1CA41A19
:104870009D416346002B00DA9AE00026002702964D
:10488000039701369E400396012686400296002833
:1048900000D171E00099019AD30799464B464E0822
:1048A0001E435708002301220CE0AF4201D1A6426B
:1048B0000AD8A41BBD4124196D410138A4185D41DB
:1048C000002806D0AF42F0D9013824196D410028E4
:1048D000F8D12022029E039F5B46524236196F4157
:1048E00099185AD4281CC8402C1C5B46DC4000296F
:1048F00068DB041C8C40231C59468840021CB61AF5
:104900009F4103E0B0428CD90026002741464B1E50
:104910009941002300910193009A019B0025544284
:104920009D41331C6340181C3B1C6B40191C009BB1
:10493000019CC018614105B03CBC90469946A24616
:10494000AB46F0BD4346DB430C1C9846131C0021CC
:104950005842A1415EE7002746428F41012149426A
:10496000884652E7B14200D87DE70026002702962C
:104970000397002800D08DE7029E039FC6E7202101
:104980005346091ACB400022191C002300920193C0
:104990004B4683400B4301935CE75A4620239B1A06
:1049A0002A1C9A40201C131C5A46D04018439BE7EF
:1049B00020260027331A0026029603970127DF409E
:1049C000039761E75B4620215D46C91A031CAC4092
:1049D000CB40191C231C0B438EE7C046F0B545465F
:1049E0004E465746E0B4041C82B00D1C91469846D2
:1049F0008B4262D85FD04146484600F09BF8291CA4
:104A0000061C201C00F096F82023311A5B428A46CF
:104A1000C81865D44B4683401F1C4B468B401E1C58
:104A2000AF4258D855D0A41BBD41002800DA77E02A
:104A3000002200230092019301328240019201235F
:104A40008B40009300293CD0FB07984640467208F3
:104A50007B080243012600270CE0AB4201D1A242B1
:104A60000AD8A41A9D4124196D410139A4197D4128
:104A7000002906D0AB42F0D9013924196D41002933
:104A8000F8D12022009801995346524200196941F9
:104A90009E183AD42F1CF7405346DD40002E29DBE8
:104AA0003C1CB440231C5446A7403A1C801A994130
:104AB0000090019105E082429DD9002300240093DB
:104AC00001940098019902B01CBC90469946A246F8
:104AD000F0BDA342A7D90022002300920193B1E7C1
:104AE00020224B46521AD3401A1C43468B401F1CAF
:104AF000174392E7534620245646E41A3B1CB54020
:104B0000E3401C1C2B1C2343CDE7524620239B1A59
:104B10002A1C9A40271C131C5246D7401F43BBE750
:104B200020230022581A0023009201930132C24030
:104B3000019284E710B5002903D1FEF7A5FD2030CE
:104B400002E0081CFEF7A0FD10BDC046084B10B5E2
:104B5000041C002B02D0002100E000BF054B1868A8
:104B6000836A002B00D09847201C00F0A9FCC046A7
:104B7000000000003C5A00000E4B70B500251E1CC2
:104B80000D4CE41AA410A54204D0AB00F35898478A
:104B90000135F8E700F096FC084B00251E1C084C78
:104BA000E41AA410A54204D0AB00F358984701358D
:104BB000F8E770BD940000209400002094000020CD
:104BC0009800002008B5034B011C186800F066F837
:104BD00008BDC0468800002008B5034B011C1868BA
:104BE00000F016F808BDC04688000020002310B56C
:104BF000934203D0CC5CC4540133F9E710BD031CCD
:104C00008218934202D019700133FAE7704700000E
:104C100030B500293ED004390B68002B00DAC918E2
:104C20001D4A1368141C002B02D14B60116031E047
:104C300099420DD208680A189A4203D11368C31822
:104C40000B6053684B60216024E08A4203D8131C38
:104C50005A68002AF9D11D685C198C420BD1096889
:104C6000691858181960904214D1106852680918D0
:104C700019605A600EE08C4202D90C23036009E0EF
:104C800008680C18944203D114685268001908602F
:104C90004A60596030BDC04600020020032370B551
:104CA000CC1C9C430834051C0C2C01D20C2405E0C0
:104CB000002C03DA0C2300202B6042E08C42F9D355
:104CC000204A1368101C191C002913D00A68121BF3
:104CD0000DD40B2A02D90A608B181FE08B4202D137
:104CE0005A6802601BE04A685A600B1C17E00B1CF4
:104CF0004968E9E7144E3368002B03D1281C00F003
:104D000061F83060281C211C00F05CF8031C421C78
:104D1000D0D00322C61C964386420AD11C60181CC0
:104D200007210B301A1D8843821A0AD0514299502C
:104D300007E0311A281C00F045F8431CBAD0331C98
:104D4000ECE770BD00020020FC010020154B10B5FF
:104D50001C68A36B002B15D11820FFF733FF124BF3
:104D6000A0630380114B01224380114B8380114BC0
:104D7000C380114B038105234381063383810023C4
:104D800002614361A46B0D4A206961690C4BFEF717
:104D9000B9FC01220023801859412061616148005B
:104DA000400810BD880000200E330000CDABFFFF8F
:104DB000341200006DE6FFFFECDEFFFF2D7F954C07
:104DC0002DF4515838B50023064C051C081C2360EF
:104DD00000F068FB431C03D12368002B00D02B603C
:104DE00038BDC046A80500200EB410B59DB002A97C
:104DF000029008610B48822488604861012040428B
:104E00001FABC881084804CBA400006801938C81C3
:104E100000F07CF80023029A13701DB010BC08BC8F
:104E200003B01847FFFFFF7F88000020031C0A78AB
:104E300001311A700133002AF9D170470023C25C96
:104E40000133002AFBD1581E70470000F0B58E6870
:104E500085B0071C0C1C03920193B34245D39023E9
:104E60008A89DB001A423DD003250969236801982D
:104E70005B1A029363695D43EB0F5D19029B6D1032
:104E800001331B189D4200D21D1C381C53050FD541
:104E9000291CFFF703FF061E13D0029A2169FFF7B2
:104EA000A5FEA289184B134080221343A38111E071
:104EB0002A1C00F0C6FA061E0CD1381C2169FFF727
:104EC000A7FE0C23402201203B60A38940421343EC
:104ED000A38117E0029B2661F61826606561019E9A
:104EE000ED1AA560019BB34200D2019E321C2068DE
:104EF000039900F092FA0020A3689B1BA36023682B
:104F00009E19266005B0F0BD7FFBFFFFF0B59FB096
:104F1000029005938B890E1C171C1B0610D50B697C
:104F2000002B0DD14021FFF7B9FE30603061002821
:104F300004D10C23029A01381360D0E0402373613E
:104F4000002306AD6B6120336B761033AB763C1CCF
:104F50002378002B03D1E31B049312D003E0252B0D
:104F6000F9D00134F4E7049B0298311C3A1CFFF796
:104F70006DFF431C00D1ACE06A69049B9446634416
:104F80006B612378002B00D1A3E001220023524261
:104F90006A6002A95432521801342B60EB60AB6096
:104FA0001370AB654F4F2178381C052200F02AFAA8
:104FB000002808D0C01B01278740381C2B6801340B
:104FC00018432860EEE72B68DA0604D55322202127
:104FD00002A8121811701A0704D553222B2102A817
:104FE0001218117022782A2A01D0099B0EE0059A26
:104FF000111D12680591002A01DB099204E052425A
:10500000EA60022213432B60013409E02278303A2F
:10501000092A04D80A214B4301349B18F6E7099367
:1050200023782E2B18D163782A2B09D1059B0234C3
:105030001A1D1B680592002B0DDA01235B420AE062
:10504000002301342278303A092A04D80A214B433C
:1050500001349B18F6E70793234F2178381C03226D
:1050600000F0D0F9002807D0C01B40278740381C2B
:105070002B6801341843286021781C480622671CDD
:10508000297600F0BFF9002812D0194B002B06D169
:105090000722059B073393430833059314E005ABC0
:1050A00000930298291C321C124B00E000BF07E05D
:1050B00005AB00930298291C321C0E4B00F08AF8B5
:1050C0000390039B013304D06B69039A9B186B61B7
:1050D0003DE7B3890B985B0601D5012040421FB024
:1050E000F0BDC046405A0000465A00004A5A00002F
:1050F000000000004D4E0000F7B5171C01930A692F
:105100008B6800900C1C934200DA131C221C3B603D
:1051100043321278002A01D001333B6023689B069A
:1051200002D53B6802333B60062523681D401ED034
:10513000231C43331B785A1E9341226892061CD5C8
:105140003020E1184031C870211C5A1C45310978C3
:10515000A21840320233D1700FE0221C01230098C4
:1051600001991932089EB047431C0ED00135E368FF
:105170003A689B1A9D42F0DBDAE7221C00980199FD
:105180004332089DA847431C02D10120404220E041
:1051900006232068E1683A6803400025042B03D108
:1051A0008D1AEB43DB171D40A3682269934201DD92
:1051B0009B1AED180027AF420ADA221C012300983F
:1051C00001991A32089EB047431CDED00137F2E73E
:1051D0000020FEBDF0B58BB006920A1C4332079347
:1051E000059004920A7E0C1C109B6E2A00D1A8E048
:1051F00011D8632A22D009D8002A00D1B2E0582A57
:1052000000D0C2E045310A707C4A4FE0642A1DD0CC
:10521000692A1BD0B9E0732A00D1A7E009D86F2A08
:1052200029D0702A00D0B0E0202209680A43226009
:1052300037E0752A1FD0782A33D0A6E00E1C1A68F2
:105240004236111D196013683370A1E021681A6895
:10525000080606D4490604D5111D19600023D55E41
:1052600002E0111D19601568002D3BDA2D23049A08
:105270006D42137036E021681A68080606D44906A4
:1052800004D51568111D1960ADB202E0111D196039
:1052900015685A4B227E03930A276F2A1DD10827CF
:1052A0001BE0221C782145321170554A196803927F
:1052B000081D226818600D68100602D4500600D53B
:1052C000ADB2D30702D520231A4322601027002D48
:1052D00003D1202322689A432260231C00224333F7
:1052E0001A7002E00A27454B03936368A360002B02
:1052F00003DB0422216891432160002D02D1049E2A
:10530000002B0ED0049E281C391CFEF7C1F8039B0D
:10531000013E5B5C281C3370391CFEF733F8051E18
:10532000F1D1082F09D12368DB0706D5636822690C
:10533000934202DC3023013E3370049B9B1B2361AC
:105340002BE009681A68080607D4490605D5111D1F
:1053500019601368A28A1A8004E0111D196013688D
:1053600062691A600023049E236116E01A68111D09
:10537000196016680021301C626800F043F80028AC
:1053800001D0801B6060636803E0261C42363270E7
:10539000012323610023049A1370079B059800934F
:1053A000211C069B09AAFFF7A7FE431C02D101207E
:1053B000404221E0236905980699321C079DA847C1
:1053C000431CF4D023689B0705D4099BE0689842EE
:1053D00012DA181C10E00025E368099A9B1A9D4216
:1053E000F3DA221C0123059806991932079EB0476B
:1053F000431CDCD00135EFE70BB0F0BD515A000083
:10540000625A0000C9B28218904204D003788B42DD
:1054100002D00130F8E70020704710B5814208D271
:105420008B18984205D29B1A013A09D3995C815492
:10543000FAE70023934203D0CC5CC4540133F9E76C
:1054400010BDF8B5061C0C1C151C002904D1111C3C
:10545000FFF724FC041C18E0002A03D1FFF7D8FB57
:105460002C1C12E000F013F8A8420ED2301C291CAC
:10547000FFF714FC071E07D0211C2A1CFFF7B6FB00
:10548000301C211CFFF7C4FB3C1C201CF8BD0B1F6B
:105490001A68101F002A04DA891804390B68D0181A
:1054A00004387047044A1368002B03D018181060A2
:1054B000181C7047014BF9E704020020B0050020DA
:1054C000FEE7C046F8B5C046F8BC08BC9E4670472B
:1054D000F8B5C046F8BC08BC9E4670470000000006
:1054E00001B40248844601BC604700BF8D00002023
:1054F000010000007C0C0000780C0000640C00002F
:10550000500C0000800C0000800C00003C0C0000DF
:10551000320D0000B00C0000320D0000320D000012
:105520005A0D0000720D0000BC0D0000340D00008B
:10553000580E0000780E0000680E0000700E00008B
:10554000580E0000580E00007C0E0000820E000075
:10555000360E0000580E0000740E0000640F0000AC
:10556000E80E0000460F0000120F0000300F000090
:10557000640F0000BC0E0000C00E0000A612000068
:10558000F4120000E8120000E8120000D812000037
:10559000A6120000A6120000A8120000A612000029
:1055A0007E130000D6130000BE130000A6120000F8
:1055B000A6120000AC130000A6120000A612000004
:1055C000A6120000A6120000A6120000A013000000
:1055D000A6120000A6120000F8130000F01300004D
:1055E000021400001A120000A6120000A612000009
:1055F000A6120000A6120000A612000096130000DA
:10560000181B0000D81A0000401B0000401A0000C0
:10561000741A00009C1A0000581B0000C8190000F2
:105620000C1A0000521D00007A1D0000B61D00007B
:10563000061E00002E1E0000581E00000E1D000059
:10564000D61D0000281D00000809110855000000A3
:1056500073797320736C65657020256C750D0A0075
:105660006D616320676574206465766575690D0AF0
:105670000000000073797320676574207665720DF1
:105680000A0000007379732067657420617070658B
:1056900075690D0A000000006D6163207265736515
:1056A00074203836380D0A006D61632073657420EC
:1056B0006465766575692025730D0A006D61632048
:1056C000736574206170706575692025730D0A001B
:1056D0006D616320736574206170706B657920253E
:1056E000730D0A006D6163207365742061707073BF
:1056F0006B65792025730D0A000000006D61632041
:10570000736574206E776B736B65792025730D0A52
:10571000000000006D61632073657420646576612C
:105720006464722025730D0A000000006D6163201F
:10573000736574207077726964782025690D0A009A
:105740006D61632073657420616472206F66660DFD
:105750000A0000006D616320736574206172206F20
:1057600066660D0A000000006D6163207365742099
:1057700064722025690D0A006D61632067657420DD
:1057800064720D0A000000006D616320736574206F
:10579000616472206F6E0D0A000000006D6163206D
:1057A000736574206261742025690D0A0000000091
:1057B0006D616320736176650D0A00006D61632081
:1057C0006A6F696E206F7461610D0A0061636365C1
:1057D00070746564000000006D6163206A6F696E1B
:1057E000206162700D0A00006F6B00006D61635FE5
:1057F00074785F6F6B0000006D61635F727800000A
:105800006D61635F65727200696E76616C69645F79
:10581000646174615F6C656E0000000072616469B0
:105820006F5F74785F6F6B00726164696F5F657240
:1058300072000000696E76616C69645F706172610C
:105840006D0000006E6F745F6A6F696E65640000C2
:105850006E6F5F667265655F6368000073696C6593
:105860006E7400006672616D655F636F756E74655E
:10587000725F6572725F72656A6F696E5F6E656591
:105880006465640062757379000000006D61635F98
:1058900070617573656400006D61632074782075B4
:1058A0006E636E6620312025730D0A006D616320E2
:1058B000747820636E6620312025730D0A00000085
:1058C000FCC90000003030443130393844314145A2
:1058D0004630413532003730423344353745463063
:1058E0003030364341360032413542384636423454
:1058F00037384444324334433244323539433938FB
:1059000032373441374443000000000000000000FB
:105910000000000000000000000000000000000087
:105920000000000000000000000000000000000077
:105930000000000000000000000000000000000067
:105940000000000000000000000000000000000057
:10595000000000000500000000000000802500009D
:105960000000000030313233343536373839616267
:1059700063646566000000001A390000E238000028
:10598000FE380000D6380000FE3800004238000023
:10599000FE380000D6380000E2380000E23800008F
:1059A00042380000D63800008039000080390000FD
:1059B0008039000004390000E2380000E2380000BD
:1059C000CA390000D4380000CA390000423800004B
:1059D000CA390000D4380000E2380000E238000084
:1059E00042380000D43800008039000080390000BF
:1059F00080390000AE390000904300006E43000083
:105A00006E43000062430000564200005642000010
:105A10005643000062430000564200005643000017
:105A200056420000624300005A4200005A42000001
:105A30005A4200007045000043000000280000208A
:105A4000232D302B2000686C4C0065666745464767
:105A500000303132333435363738394142434445EA
:105A60004600303132333435363738396162636459
:085A7000656600000000000063
:085A78007CA6FF7F0100000085
:105A80000080000000366E01809FD500006CDC02B3
:105A900000A0004003070306010000000000000012
:105AA000486B010000000000000000000000000042
:105AB00000000000000000000000000000000000E6
:105AC0000000000000000000385A00000000000044
:105AD00000000000000000000000000000000000C6
