S01D000045464D33322D524E323438332D4C6F52612D4E6F64652E733337AE
S1130000002000206D01000099010000990100000A
S11300109901000099010000990100009901000074
S11300209901000099010000990100009901000064
S11300309901000099010000990100009901000054
S11300400D150000990100009901000099010000BC
S1130050AD22000099010000F52A0000990100007A
S11300609901000099010000990100009901000024
S11300706109000099010000990100009901000044
S11300809901000099010000990100009901000004
S11300909901000010B5064C2378002B07D1054BBD
S11300A0002B02D0044800E000BF0123237010BDE0
S11300B00001002000000000A852000008B5084B11
S11300C0002B03D00748084900E000BF0748036835
S11300D0002B00D108BD064B002BFBD09847F9E755
S11300E000000000A8520000040100208400002049
S11300F000000000164B002B00D1144B9D464022FB
S113010092029A1A924600218B460F461348144ACB
S1130110121A04F09CF90F4B002B00D098470E4B99
S1130120002B00D098470020002104000D000D484A
S1130130002802D00C4800E000BF04F045F920007C
S1130140290002F0F1FB04F029F9C0460000080080
S1130150002000200000000000000000000100203A
S11301602C05002000000000000000000648804725
S11301700649074A074B9B1A03DD043BC858D05075
S1130180FBDCFFF7B7FF000035030000B4520000AA
S11301900000002088000020FEE7C046284B10B570
S11301A0DA6A284B134080225201934233D019D982
S11301B080229201934212D08022D204934218D119
S11301C021481F4B19685C68C903490F013103F0CA
S11301D0C5F80F231C40E0401C4B186010BD1C4B9D
S11301E01868EEE780221201934202D1194B186875
S11301F0E7E7134BDA68E023DB0013408022920028
S1130200934215D00AD8002B16D0013AFF3A9342F4
S113021010D11148D5E780200002D2E7C022920015
S113022093420BD00132FF32934203D10B48C8E70B
S11302300B48C6E70020C4E70A48C2E70A48C0E7FB
S113024000800C40003C000400366E0108000020D1
S1130250000000200400002040B56400406F40010D
S1130260C0D8A700804F1200809FD5000048704777
S113027000366E0108B5254BDA6A254B13408022FF
S1130280520193422DD013D98022920193420CD073
S11302908022D204934212D11E481C4B1968C90310
S11302A0490F013103F05AF808BD1B4B1868F4E7F5
S11302B080221201934202D1184B1868EDE7134BC8
S11302C0DA68E023DB00134080229200934215D0C9
S11302D00AD8002B16D0013AFF3A934210D11048A5
S11302E0DBE780200002D8E7C022920093420BD0C3
S11302F00132FF32934203D10A48CEE70A48CCE7E1
S11303000020CAE70948C8E70948C6E700800C404E
S1130310003C000400366E010000002004000020B0
S113032040B56400406F4001C0D8A700804F120060
S1130330809FD5007047C046802000027047C046A9
S1130340FA2080007047C046014B18687047C046C9
S11303500000002030B5041C85B04048012100F0A5
S1130360B1FD3F4B22689A4201D005B030BD3D48F3
S1130370012100F0A7FD207961790A22012301F00F
S113038033FBA079E1790A22012301F02DFB01233B
S1130390191C6079344D8140081CAC461D1C22791F
S11303A0D1008A1831499200511808616079624479
S11303B0854055601D1C607985400D611D1C607968
S11303C0854055601D1C607985400D611D1C607958
S11303D0854055601D1C607985400D611D1C607948
S11303E0854055601D1C607985400D611D1C607938
S11303F0854055601D1C607985400D611D1C607928
S1130400854055601D1C607985400D611D1C607917
S1130410854055601D1C607985400D611D1C607907
S1130420854055601D1C60798540181C0D616179FB
S1130430884003215060227A206812020A438263B2
S11304406A4613705370236969460293E368019303
S1130450237D137301F024FB87E7C0464081040029
S113046000A0004000B204001060004000600040A2
S113047038B5051C01F0CCFC012809D1054C02E07B
S1130480013C002C04D0281C01F050FB0128F7D0BB
S113049040B238BDE0930400A023F0B557469A4615
S11304A000234E46051C9946C0B42A4C83B0A2448E
S11304B04B466377237F002B10D0226863682E1C81
S11304C00027002B12D1AA4210D8E17F002912D1B3
S11304D02177A369002B01D0012363772834544585
S11304E0E6D103B00CBC91469A46F0BD921BBB41C9
S11304F022606360F2E7A068E16800900191281C23
S1130500391C801A9941009A019B03F0C7F800989E
S11305100199801A99412369206061606269002B06
S11305200FDD94469C4463466361F32BD1D90122C9
S11305300023801859416346F43B20606160636185
S1130540C7E7D31A9C466361F32BC2D901225242F6
S1130550D317EEE72001002010B5041C00F0CEFFF5
S1130560134B9A7F002A1DD046229A5C002A1BD086
S11305706E229A5C002A09D096229A5C0321002AF2
S113058005D00C4C00F0BEFF201C10BD0221002C35
S11305900CD08A005218D2009B1801229A7721604D
S11305A00024EFE70021F2E70121F0E7024CE9E73C
S11305B020010020011000F0041000F01A4B10B5C7
S11305C01C78002C2ED10122184801211A7000F049
S11305D079FC1748022100F067FE1648082100F054
S11305E0ADFB0121134800F06DFC134801F042FEFD
S11305F00721124BDA698A43DA61996101F04AFEF4
S11306008022C0210E4B520149005A500D481A60F5
S11306100021A02203F01BFF0B4B1C700B4B1C7022
S11306200B4B1C60002010BD1D01002000230200A4
S113063002001A0060061000404D0000000008404F
S113064000E100E0200100201E0100201C01002028
S1130650C0010020F0B55F4656464D464446F0B40E
S11306609B4683B0041C0E1C151C032807D9B248F2
S113067003B03CBC90469946A246AB46F0BD00F0A0
S11306803DFFAE4B00909946A3001F19FF004F4455
S11306909846BB7F002B49D0002D4BD0A84BFA22A3
S11306A05B6812019A465B46BB610023690CE80350
S11306B080185941FA220023520102F0EFFFB8607A
S11306C0F960012E3DD001225242D31712184B413A
S11306D0BA60FB600120002180185941434601257E
S11306E01B19DB004B440C9A186059601D77DE77A8
S11306F01A62944B1B78002B13D1934E3368013349
S113070002D0336801333360904D2B78002B24D012
S11307103368012B3ED03368002B02D03368013B91
S11307203360009800F0EEFE0020A1E700F0EAFE3E
S113073087489DE75B46002BF3D0201C0C99D847D3
S1130740EFE7FA239B005D43F4234343ED1A7A2336
S11307503D617B61021C0B1CBCE753467D4A1B02B6
S11307601B0A13600222764B9A61031C002902D1F2
S1130770794A904200D9784B53441902090A00205F
S113078001F06AFD02236E4AD1690B43D361012350
S11307902B70C0E74444E400231C00214B44197728
S11307A08B465146090288466A4F01933A68120201
S11307B002206349CB698343CB614346981A674B54
S11307C0000AC3185A1E93415B421840FFF764FEA7
S11307D04B465B7F002B00D095E045234A46D35C13
S11307E0002B00D08AE06D234A46D35C002B00D056
S11307F07FE095234A46D35C002B73D15B46002BE4
S113080002D1019A0133137701239C464B461B7F87
S1130810E344002B62D04B464A461B68526844218D
S11308204846415C002905D04946C96A806A8A4223
S113083076D873D06C214846415C002905D04946DE
S1130840496D006D8A4270D86DD094214846415C50
S1130850002905D04946C96F806F8A425BD858D0B9
S113086000212970591C63D0002A35D13A4A934299
S113087032D8344A11785246002901D14246120A2C
S113088002243A6053442E4A19029461090A002052
S1130890904601F0E1FC01232B704346DB691C43C5
S11308A04346DC61264B00205B689A461B0298464F
S11308B03B681C0243461C1B01F0C0FC3A68000262
S11308C012022B78801A240A000A002B00D122E796
S11308D0844200D96CE71EE71F4BCAE701235B4241
S11308E01A1C9CE79823D158083BD35803209847F7
S11308F084E70220116F936E98477AE70120916C88
S1130900136C98476FE74B460020196A9B69984718
S113091063E78342A4D9031C0A1CA1E7834289D953
S1130920031C0A1C86E783428FD9031C0A1C8CE72C
S1130930511C99D1B6E7C046021000F020010020F6
S1130940000008401E010020C00100201C010020FE
S1130950031000F0C40100209BFFFF00010000FF12
S1130960F0B55F4656464D464446F0B4724F83B0E8
S113097000F0C4FDFA693B6901901340191C03227D
S11309809143B9619B0700D48DE001236B4A7C68D5
S11309901370220290466A4A4646924602229346C1
S11309A0684B694D99461B681B025946FA69F01A4F
S11309B08A43FA61000AFFF76FFD6B7F002B00D0BA
S11309C087E04523EB5C002B00D08BE06D23EB5CD0
S11309D0002B00D08FE09523EB5C002B00D071E05E
S11309E02B7F002B6AD029686B684422AA5C002AFA
S11309F006D0EA6AA86A934200D984E000D17FE075
S1130A006C22AA5C002A06D06A6D286D934200D934
S1130A107FE000D17AE09422AA5C002A06D0EA6F33
S1130A20A86F934200D97AE000D175E000225046C5
S1130A3002704A1C00D17AE0002B3DD1434B99420D
S1130A403AD83E4B1A78231C002A00D1330A4A466E
S1130A5013605B4661180902BB61090A002001F0BA
S1130A60FBFB0123524613705A46FB691343FB6197
S1130A704B467C681B6826021B02F31A1B0A0020E3
S1130A80984601F0DBFB4B4652461B6800021B02F2
S1130A901278C01A000A002A01D0804585D80023A4
S1130AA0264A0198137000F02DFD03B03CBC90461B
S1130AB09946A246AB46F0BD2449C2E7012149420A
S1130AC00B1C92E79823E958083BEB5803209847FE
S1130AD086E7AB690020296A98474523EB5C002B25
S1130AE000D173E72B6C0120A96C98476D23EB5C54
S1130AF0002B00D16FE70220296FAB6E98476AE79D
S1130B00814200D87CE7011C131C79E7814200D89C
S1130B1081E7011C131C7EE7814200D886E7011C93
S1130B20131C5046002202704A1C00D084E75A1C51
S1130B3000D081E79CE7C046000008401E01002069
S1130B401C010020C4010020200100209BFFFF00A5
S1130B5070B50E79051C0C1C1C48002E23D100F026
S1130B6069FA1B4B1B499C46604402F0F7FB0028C2
S1130B7023D10A236B602278FE2113066278C9030D
S1130B8012011A43A3781A43101CE3781B040B4088
S1130B901A1C031C134362793343002A01D0082230
S1130BA013432B6070BD00F045FA084800F042FA88
S1130BB0FE233602DB011E40DBE7FE260138F60188
S1130BC07F28D6D800020640D3E7C04640810400FF
S1130BD03F5DC600405DC60002234360294B70B5EB
S1130BE08C78456B984223D04B781A050B781B07F9
S1130BF01343CA78120113430A79120213438A7900
S1130C00002A02D0802252041343CA79002A01D058
S1130C10042213434A79002A01D0022213430A7A98
S1130C20002A01D00122134324042343C36070BD6E
S1130C30062C25D8144AA300D3589F467F22134B71
S1130C401B681340124A2A4013430E4A5363CBE7EE
S1130C50104A136812685B005B0E1E0253025B0E9F
S1130C603343EFE70B4A7F26136812681640FE22CF
S1130C70D20113403343E5E7074AEAE7064AF2E7BD
S1130C800023DFE700200040444D0000BC81E00F5A
S1130C908080FFFFB881E00FB481E00F38B5124BBC
S1130CA0051E9D420BD8114CA04219D8FA25ED011E
S1130CB0002908D10E4800F0BDF9011C03E01D1CF9
S1130CC00C4C0029F6D00819291C02F047FB031C20
S1130CD00020002B03D0013B7F307F2B02D938BD8D
S1130CE0441EEEE7D8B2FAE7405DC600FF7C000080
S1130CF0408104003F5DC60008B5002808D00C4BB5
S1130D000C499C46604402F029FB0138C0B208BD7E
S1130D10094800F08FF9031C0020002BF7D0044A87
S1130D200449981802F01AFB0138C0B2EFE7C04634
S1130D303F420F0040420F004081040038B50306D3
S1130D401B0F072B45D8564A9B00D3580C1C9F46B3
S1130D50FFF78CFA534B544ADD6BDA635A68534BF2
S1130D600021984206D9524B0131984202D90723F7
S1130D701340191C07204B4A536883430B435360A9
S1130D80002D01D00023D3634A4A013C11684A4B29
S1130D90A4030B40211C19431160FFF7FFF9414BD9
S1130DA0414ADC6BDA635A68404B0021984206D909
S1130DB03F4B0131984202D907231340191C0720E5
S1130DC0384A536883430B435360002C01D00023FB
S1130DD0D36338BD394B9842FBD1364A536DDB0798
S1130DE058D5201C02F03CFC1F223249101A0B6F0C
S1130DF01C3A934318430867EBE7081C02F030FCE5
S1130E001F222C49101A8B68103A934318438860A8
S1130E10DFE7FFF72BFA234B234ADD6BDA635A68CB
S1130E20224B0021984203D9214B0131984228D802
S1130E3007201C4A536883430B435360002D01D0A1
S1130E400023D363201C02F00BFC1F221949101A43
S1130E504B68103A9343184348609EE7184B9842F6
S1130E60B7D1144A536DDB070FD5201C02F0F8FBF1
S1130E701F221049101A8B6E103A93431843886648
S1130E80A7E707231340191CD2E70421136D194265
S1130E90FCD1EAE74021136D1942FCD1A1E7C04619
S1130EA0604D000000000C40711B00000024F400A1
S1130EB00048E80100800C40FF3FFEFF7007160069
S1130EC060061000030530B51B0F0A2B14D8164A10
S1130ED09B00D3589F468025144C6D00144AC003D0
S1130EE0536DC00EDB0708D5012281408240081CE7
S1130EF0236893431843206030BD136D2B42F3D015
S1130F00136D2B42F9D1EFE70A4CC003C00EEBE797
S1130F10094CFAE7094CF8E7094CF6E70125094CB6
S1130F20DCE71025084CD9E7804D000064800C40B4
S1130F3000800C4044800C4040800C4078800C4081
S1130F4008800C4058800C4060800C400F231840EF
S1130F50072857D8334B80001B589F4607207047FB
S1130F60314BD86AE023DB02184080239B0298426D
S1130F704AD08023DB02984252D02C4B9C466044DA
S1130F80434258410130EAE7274BDA6A284B1340C1
S1130F9080225201934237D03CD980220220920110
S1130FA09342DCD080220930D2049342D7D005206A
S1130FB0D5E70C211C4A936A0B40082B28D00C2B34
S1130FC024D0042B20D0936ADB0219D50C20C6E769
S1130FD03020154B9B6A1840102815D02038434206
S1130FE058410130BBE703210F4A936A0B40022B9F
S1130FF00ED0032B0AD0012B06D0936ADB03E5D471
S11310000120ACE70020AAE70320A8E70620A6E712
S11310100220A4E780220420120193429FD0C6E755
S11310200A209CE7AC4D000000800C400000FFFF4C
S1131030003C000408B5F8239B031840E0231B037D
S1131040984200D1ACE02CD9D0235B03984200D164
S113105093E03ED880235B03984200D16AE0B0233A
S11310605B0398425CD18248FFF770FF814A936A20
S11310701B079B0F022B00D1F1E0032B00D1B5E03D
S1131080012B00D1E7E0926A0023120D02D0FFF792
S113109057F9031C0320774A126F1040C340181CF1
S11310A047E080239B02984264D060D98023DB020E
S11310B0984237D0C0231B03984231D16E48FFF7C2
S11310C045FF072800D19BE0092829D1FFF7D2F872
S11310D02FE0E0235B03984212D088239B039842BD
S11310E01ED16648FFF732FF032800D16AE000D81A
S11310F06BE00928EAD00A2812D1614B186818E07D
S11311005B48FFF723FF5B4A936A1B079B0F022B85
S11311105DD0032B66D0012B54D0936A1B0D3CD1B8
S1131120002006E0FFF7A6F80F22524B9B681340FD
S1131130D84008BD5348FFF709FF03214D4A936A7D
S11311400B40022B00D17EE0032B53D0012B00D1A6
S11311507DE0926A0023120C02D0FFF7F1F8031C21
S11311600F20444A926E1040C340181CE1E7002847
S1131170ACD0D5E7FFF712F8DBE74248FFF7E6FE0D
S113118003213C4A936A0B40022B20D0032B29D025
S1131190012B17D0936A1B0CC2D0FFF7D1F8C8E714
S11311A0E0218022334BC9005B6992000B409342DB
S11311B03BD00FD8002B21D0013AFF3A9342AFD154
S11311C03148B6E7FFF7B8F8B3E70228A8D1FFF72C
S11311D0BBF8AEE7C022920093422DD08B429FD140
S11311E02A48A6E7FEF7DAFF4008A2E7FEF7D6FF93
S11311F043084FE7FEF7D2FF4308B1E7244898E7D6
S11312001C4B5A69E023DB00134080229200934276
S11312100BD0CFD9C022920093420DD0E022D2004D
S1131220934200D07CE7194883E71A4BDB6C1B0E12
S1131230122B1AD918487CE7164BDB6C1B0E122BA9
S113124011D9164875E7FFF77FF8031C88E7FFF705
S113125073F8031C84E7FFF76FF8031C1AE7FFF722
S113126073F8031C16E70E4863E70E4861E7C046AF
S113127003001C0000800C4006000C000733220011
S11312800C00002002001A00C0D8A700406F4001E3
S1131290809FD500B081E00F40B56400804F1200FC
S11312A040420F00C0CF6A0038B50F23184007280A
S11312B049D8824A8300D3589F460122012401233E
S11312C07F490B62012393401A1C7E490B68134229
S11312D0FCD0FEF7CBFF7C4B7C4ADD6BDA635A68AB
S11312E07B4B0021984206D97A4B0131984202D9AE
S11312F007231340191C0720734A536883430B4385
S11313005360002D01D00023D3636D4B5C62FEF764
S113131045FF6D4B6D4ADC6BDA635A686C4B0021F8
S1131320984206D96B4B0131984202D907231340E6
S1131330191C0720644A536883430B435360002CF1
S113134001D00023D36338BD03293AD00A2953D0EE
S11313500229F8D180225A4B52005A491A62921833
S11313600B681342FCD040238021554A4902536242
S1131370D36A0B42FCD0E6E7022911D0032931D00D
S11313800129E0D1002015E00C29DCD8524B89005A
S11313905B589F460B29D6D8504B89005B589F4613
S11313A08022474B520047491A6292180B68134235
S11313B0FCD020203021424A936A8B43034393623A
S11313C0C1E740223E4B3F491A6240320B681A4241
S11313D0FCD0602380213A4A89025362D36A0B42CB
S11313E0FCD0B0E74022364B36491A6240320B68D3
S11313F01A42FCD01020DDE78022314BD2001A6261
S113140080223049D2030B681342FCD08023802110
S11314102B4AC9025362D36A0B42FCD093E70024DF
S113142000220021022840D025492D4A8B6A13400E
S113143023438B6287E7802316220524DB003FE7E2
S113144080248022640352020021EBE70423254A0E
S11314500C2411680B43136003210022E2E74022AD
S1131460174B18491A6240320B681A42FCD0042404
S113147000220121D6E78022114B520011491A6241
S113148092180B681342FCD0082400220221C9E7F9
S113149007220324402313E78023092204245B004A
S11314A00EE70322022404230AE705480E4B846A4C
S11314B00A4323401A43826245E7C046CC4D0000EC
S11314C000800C402C800C4000000C40711B00007C
S11314D00024F4000048E801EC4D0000204E000018
S11314E0F3FFEFFF40800C40FCFFFEFFEFF31080A2
S11314F072B67047002800D162B67047EFF31080CF
S113150072B67047002800D162B67047F0B55746EE
S11315104E4645468023E0B41E4F5B01FA581E4BED
S11315200126FB581340BA6B141C1C409343994684
S113153002239A460025002C1FD0184B98462642B9
S113154017D0331C4146AB40BA687B502B01D318EB
S1131550DB68002B0DD00122197A4A401A721A68EE
S11315609446002A05D04A1E9141281CC9B25A68E3
S1131570E04764080135002CE1D15346012B03D028
S113158001234C469A46D5E71CBC90469946A24690
S1131590F0BDC04600200C400C10000008100000F4
S11315A0F0B5234E0701B4683C19251C002901D16C
S11315B0F5687D19E468002C00D02172059C002C8C
S11315C00BD0AC682401A40F032C2DD0069EA6409A
S11315D0341C059EB44664442C60002B07D0AC68D0
S11315E0A40F032C02D0069EA6409B196B60012316
S11315F08340181C0E4B002A10D098610C4B002914
S113160010D11863AA680B4B134001221343069AA6
S113161016011E43064BAE609862F0BDD861044BC0
S11316200029EED05863EDE7059C2C60D5E7C04651
S113163000200C4008C0FFFF154A30B59468030130
S1131640E3188C68DC600B78002B11D001238340F5
S113165093638822D2000E4C82184D689200155173
S11316604A78002A08D10B490A689A430A6030BDB7
S113167001238340D363ECE7074A0649A3500A6871
S11316809A4301238340181C10430860EFE7C046C7
S113169000200C400C300C400810000030B50D4BFD
S11316A0002915D1DB68D17800018C031179181851
S11316B0890493782143147852781D07A4072C4396
S11316C0920614431A06231C13430B43836030BD54
S11316D09B68E8E700200C40034B9B6AC340181C3E
S11316E0012318407047C04600200C40F8B5012182
S11316F0051C1848FFF7E6FB0121802300223F2048
S1131700154C164EE150164B164F5A60D86158626C
S1131710D8625863D8631448D9649A511F508827F3
S113172012487F01DA51C251114FC251114FC251B7
S1131730114FC251114FC2518132FF32A150802248
S1131740120621609A516A689A602A7852011143FC
S11317505960F8BD0013020000E100E00C10000025
S113176000200C403F0000800810000004200C40C2
S113177004110000081100000C11000010110000F9
S1131780F0B5474680B4002811D104232E4A1169CC
S11317900B431361FFF7AAFE041C03F0C9FA201CD3
S11317A0FFF7A8FEFEF7FAFC04BC9046F0BD274BF9
S11317B0274D9846DB6A042711202B60FFF7C6FBF0
S11317C0214A244E136930703B431361FFF78EFEA8
S11317D0041C03F0ADFA201CFFF78CFE8423424660
S11317E04146D4581C4A0120CA5040222968743BFF
S11317F004400B4008400A40034313430F401F4377
S113180080235B000B4080221F430B1C9203134078
S113181001D08023DB000D4A31783B431362052954
S113182005D01120FFF740FD012328681840002847
S113183006D0002CB8D000218423044AD150B3E749
S11318400222024B1A62F4E700ED00E000800C4033
S1131850C8010020CC0100200E580000F8B5002873
S11318601AD184223C4B3D4C99589C50A024A4008E
S11318701C62C90767D598500423394A11690B4380
S11318801361FFF733FE041C03F052FA201CFFF728
S113189031FEFEF783FCF8BD2F4C324DE36A112074
S11318A02B60FFF753FB84232C492F4EE2583070F2
S11318B0E150A02189002162D20748D50022E250DC
S11318C00423274A11690B431361FFF70FFE041C1D
S11318D003F02EFA201CFFF70DFE84221E491F4838
S11318E001238C58885040212868743A1C400240D7
S11318F0034001401A430A43042101400A43802162
S1131900490001400A438021171C021C89030A4034
S113191001D08022D20010493A430A623178052965
S113192005D01120FFF7C0FC01232A681340002BC7
S113193002D10222084B1A62002CACD0002184236D
S1131940054AD150A7E7064A0421136997E7044AD8
S113195004211369B7E7C04600800C400E5800000C
S113196000ED00E0C8010020CC010020F0B505A97D
S11319700C7806A90978072A27D9151C144E083DA6
S1131980AD000727B446AF40A8406546366893408B
S1131990BE433043286001259540E843944091407C
S11319A00C4F0A1C3E68064033430B4E3B603368C1
S11319B00340234333608E23084C5B00E550084BFF
S11319C01C68204002431A60F0BD9500054ED8E71C
S11319D004610040086100400C6100400060004068
S11319E01061004000610040F0B54746C40080B477
S11319F09846002A0AD00126C40025188E40AD005E
S1131A00002B37D0234B9C4665442E6107291FD8F1
S1131A10204B8E009C460F23B3402518AD0065442F
S1131A206F689F43131CB3401E1C3E436E60002A24
S1131A300BD14346002B22D101238B40191C164B9A
S1131A4020189C4680006044416004BC9046F0BD70
S1131A50104B26189C46114BB600CD180F23AD0031
S1131A60AB406644B7689F43131CAB401D1C3D4309
S1131A70B560DCE7084B9C4665446E60C6E701230D
S1131A808B40191C034B20189C4680006044016164
S1131A90DBE7C0460060004010600040F8FFFF3FF5
S1131AA0F8B50023022243631C4B0D1C0363036837
S1131AB0041C9343191C6B78013A53405B000B439D
S1131AC00360AE6868682F7B002E06D1012223686C
S1131AD093432A7813432360F8BD2268104B1A40BD
S1131AE02260226813403A0213432360002810D076
S1131AF02368B300C01A0B4BD95D714301F02EFC6F
S1131B00236801389B0702D5002800D101302061E9
S1131B10DCE70548FFF78EFAEAE7C046CFFF01008D
S1131B20FFFCFFFF984E000040810400F0B55F46C3
S1131B3056464D464446B34BF0B4984200D0F2E0CA
S1131B40B14B9A685E889446B04A1C7990468022CC
S1131B509246403A91463C3A93461978826AC027A5
S1131B60151CFF003D4000D00AE1082900D9DDE042
S1131B7047468D007D59AF4607215E8019701C7160
S1131B80920619D5E40064449E4D22895988EE6971
S1131B908A4200D8EDE06468481C80B258806654DC
S1131BA0824200D8E5E004236B60012A04D0013AA4
S1131BB0904201D104336B60012013E008211970B5
S1131BC0F8315E801C710A42F6D08E4A11630922F4
S1131BD058781A7000228B4940B24A63012801D117
S1131BE000205A703CBC90469946A246AB46F0BDD4
S1131BF062465E801C715088C20600D4AAE0624628
S1131C0006211288120A0A40EA310A43410701D523
S1131C1001210A43042119707A4B033959600120C8
S1131C205A62DFE75146114200D0B7E049461142FB
S1131C3000D1CFE06246016359465288114270D008
S1131C4007225E801C711A700120CBE7E200624417
S1131C501589B54200D9B2E0624656885A46013425
S1131C60E4B2324000D07AE001252E4000D0C6E034
S1131C70012C00D872E75E801C7108221A70614B37
S1131C80063A5A600120ADE75146114200D085E082
S1131C904946114200D1ACE04A460263624652888A
S1131CA05849D50600D59BE092073AD507221C7106
S1131CB0E4005E801A7064442389012B00D07BE722
S1131CC007334B6001208DE762465E801C715188AA
S1131CD0CA0636D5624606211288120A0A40EA313B
S1131CE00A4301211970474B01205A62596079E770
S1131CF05146114252D14946114233D102225E80EB
S1131D001A701C7101206DE75146114246D14946B3
S1131D10114205D106225E801A701C71012061E710
S1131D20016305211AE7042040425BE7FB220520FA
S1131D305A70F23A5E801C711A70324B40425D63F5
S1131D4050E76246FE20128802408907C9D5012166
S1131D500A43C6E76246FE2112880A4056E7002677
S1131D600321FBE66246016352889207D9D5032119
S1131D70F4E6012A00D080E70821224A51607CE77A
S1131D805E801C71910505D5FD22FD205A70092243
S1131D901A701FE752050ED45878F8E78021194AC3
S1131DA05E801C7111637F315970F73919700223F9
S1131DB00120536016E7FE22FE205A70E7E75268BE
S1131DC0711C5980915D0F4A1C71516206220120D9
S1131DD01A7007E704225E801A701C71012001E763
S1131DE002225E801A701C7163461B7801204B62CC
S1131DF0F8E601225E801A701C710120F2E65A8016
S1131E001C713AE700A00040D0010020504E0000B1
S1131E10F0B55F4656464D464446F0B4BE4B83B0DB
S1131E20984243D18368DB0701D5202343604B8864
S1131E309A0702D50A89002A38D05B0702D50B8A93
S1131E40002B33D000220120B44B1A711A705A802F
S1131E50B14A5870BF3099605060906A800623D4AC
S1131E60FC24AD4AAE48E4001063506B2043E13CCF
S1131E70FF3CA446AB4C5063A0468024A246403CA1
S1131E80A1463C3CA34618785E881D7901926746BA
S1131E90019A946A274000D008E1082800D9C8E0D4
S1131EA042468700D759BF46D269D9E70420404249
S1131EB003B03CBC90469946A246AB46F0BD5246A0
S1131EC0224200D000E14A46224200D1D0E04A46F4
S1131ED0019802630520DAE708221A70F8325E805E
S1131EE01D7114421FD08C490A635878F73A1A704E
S1131EF00022894940B24A630128D9D15A7000208E
S1131F00D6E75E801D714888C20600D5A3E00A8822
S1131F10FE210A40810701D501210A4301211970DC
S1131F207D4B5A6259600120C2E75246224200D0DA
S1131F30CAE04A46224200D1F6E00198764C026398
S1131F404888C20600D5DFE08207C3D507221D7189
S1131F50ED005E801A7049190B89012BE3D1073318
S1131F6063600120A4E75246224200D0ACE04A4616
S1131F70224200D176E04A460198026348888207EB
S1131F80A8D5032083E707225E801A701D71A2067C
S1131F90C9D5ED004919604C0A89B0B2E56982429D
S1131FA06FD8012A00D19CE008221A705A4B063AD5
S1131FB05A6001207CE75E801D714888C20643D4C4
S1131FC00A88FE210A40410701D501210A43042160
S1131FD01970514B0339596001205A6268E752461F
S1131FE0224271D14A46224200D1A3E04A460198D6
S1131FF002635A464888024200D16BE707225E809A
S11320001D711A70012053E7EC000C192789B7429F
S11320106FD85C464E880135EDB234402ED1012292
S1132020164000D08CE0012D00D830E75E801D7191
S1132030BAE7FB2205205A70F23A5E801D711A70CD
S1132040354B40425F6333E70A880621120A0A408F
S1132050EA310A43B7E70A880621120A0A40EA313C
S11320600A435BE702225E801A701D7101201FE79C
S113207006225E801A701D71012019E700260320D4
S113208005E74E68411C89B2598035548A4200D80C
S113209087E704236360012A00D144E7013A9142AF
S11320A000D040E704336360012001E75E801D71C6
S11320B0A20505D5FD22FD205A7009221A7017E7E2
S11320C0620512D45878F8E78021134A5E801D71A6
S11320D011637F315970F73919700223012053605D
S11320E0E6E608210C4A51605EE7FE22FE205A70A3
S11320F0E3E76268711C5980915D074A1D71516262
S1132100062201201A70D3E602225E801D711A7025
S11321100B7801206362CBE600A00040D0010020D0
S1132120CFFF0100744E000001225E801A701D7101
S11321300120BDE604225E801A701D710120B7E6FD
S11321405C801D7130E7C04605238B435B00194357
S1132150036CDB0703D40222436C1A42FCD14160B6
S11321607047C046036C70B5041C0D1CDB0703D418
S11321700222636C1A42FCD10A236360636C002B55
S1132180FCD11C210133236423682A7B8B43134332
S11321906A7B68681343AA7BAE68134323600028F4
S11321A00AD10E4B9C4204D02B7863600023236435
S11321B070BD0B48FEF73EFF4001311C01F0CEF824
S11321C0084B2038C0001840236CDB0703D40422DA
S11321D0636C1A42FCD1E060E6E7C0460040084068
S11321E070071600F87F0000436C002BFCD101221D
S11321F00264E9324260054A0360C36003614361DB
S113220083634263C363436503647047F907000053
S1132210036CDB0703D40122436C1A42FCD100296E
S113222004D10268044B13400360704780220368A2
S1132230520113430360F8E7FFEFFFFF002806D0C5
S1132240012801D000207047024BD868FBE7014BFE
S11322509868F8E700000840002804D0012801D15C
S1132260024B19607047024B1960FBE70C000840F1
S11322700800084042780378002A01D00222134360
S11322808278002A01D004221343014A1360704764
S1132290000008400123044A116899431160116841
S11322A099430B431360704700000840034B9A693D
S11322B01A620122024B1A707047C0460020004087
S11322C0DC01002070B5042086B00A21042200231A
S11322D0FFF78AFB00231F22174E03AC01AD1748FA
S11322E00121EA702B706B70AB702B716B712370D2
S11322F06370A370E37023716371A371E37123723C
S1132300FEF7E0FD301C291CFEF722FC0125042306
S1132310211C301C63702571FEF75EFCC021102265
S1132320074B4900736373691D43064B75615A502B
S11323301A6006B070BDC0460020004000A2040030
S11323407C1F000000E100E008B5FEF737F9024801
S1132350FEF702F908BDC04600040020074B021C2A
S11323601868002300B583B000930021FEF772F9CA
S11323700120FFF705FA03B000BDC04600040020A9
S1132380F0B5012187B02848FEF79CFD00251F23E6
S113239003AE01AF0020FB703D707D70BD703D71D8
S11323A07D7135707570B570F57035717571B57175
S11323B0F5713572FEF7A0FC0021F8701B48FEF79A
S11323C06DFC1B4C3871391C201CFEF7C1FB082323
S11323D0201C311C3371B570FEF7FEFB01238022F3
S11323E0201C6360520283681342FCD0104B5E6A67
S11323F0104B1868DC680002000E01F0D7FD240DB4
S1132400051CA01B01F0D2FD0B4901F0C7F9011C0A
S1132410281C01F02DFC094901F0F8FA01F0A6FD91
S113242000B207B0F0BDC04600A20400801A060046
S113243000200040B081E00FD7A3C8C000002041B5
S113244000B5064B83B000930023012001930022C2
S1132450034BFFF7A5F803B000BDC0461C4008407D
S11324600404002000B5124B83B0DB69DBB20A2BF5
S11324700ED0104B1A78302A0CD91A780E49012044
S11324808A18002151700D4A1070197003B000BDF4
S1132490084BF2E71A7801200132D2B21A701B7885
S11324A0054AD318002200920192FFF779F8EDE76C
S11324B000400840F801002004040020DD01002051
S11324C0F0B500248DB0204B04A804704360FFF7DE
S11324D00DF91E4D1E4B06A9EB6080235B034B6078
S11324E02B1C01270C332C61012003260C704F7028
S11324F08B60FFF7A1F86B466A46012001211E702C
S11325005E709C70DC701C71FFF7C8F800216A468D
S11325100120FFF7C3F80F4B09A92B600E4B6C6029
S113252000204B600C704F708D60FFF785F802AA95
S113253000200121167054709470D4701471FFF748
S1132540ADF80DB0F0BDC04600030020E00100204E
S113255065240000412400000100100000B50A4A6F
S113256083B0536C002BFCD1013900900191002001
S113257001210022054BFFF713F80020FFF7ACF808
S11325800028FAD103B000BD0040084028400840AC
S113259030B5254885B00121FEF794FC234801217C
S11325A0FEF790FC0320042104220123FFF71CFA08
S11325B00320052101220023FFF716FA6A461C4B6B
S11325C06C4623CB23C21B681A4D13601A480121A1
S11325D0FEF778FC19480221FEF766FE281C01214B
S11325E0FEF770FC281C0121FEF7A8FB00232370D2
S11325F09623134D5B01281C69460293FFF7B2FD35
S11326000323281C6B650121FFF702FE04238021AC
S11326106B630C4A7D33FF33C900D150281C05215C
S1132620FFF792FD05B030BD408104000082040034
S11326309C4E0000700716000023020003001C00DB
S11326400040084000E100E008B504210422012311
S11326500320FFF7C9F91420FFF780FE04220023AA
S113266003200421FFF7C0F91420FFF777FE10229E
S1132670014BDA6708BDC0460060004030B5151C48
S1132680134A83B0536C002BFCD1013900900191A3
S11326900020012100220F4BFEF782FF0020FFF7EC
S11326A01BF80028FAD10C4C2378002B05D101200B
S11326B0FFF766F82378002BF9D0281C074901F0AE
S11326C0DDFF0023064A2370137003B030BDC046FB
S11326D00040084028400840DD0100200404002098
S11326E0F801002070B5104B82B0009300230F4D09
S11326F00193061C2B1C012001210022FEF750FF30
S11327000B4C2378002B05D10120FFF739F82378EF
S1132710002BF9D0301C291C01F0B0FF0023054A1E
S11327202370137002B070BD1C40084004040020E4
S1132730DD010020F8010020F0B5444656464D4620
S11327405F463023F0B489B003AC23809A46042357
S11327500126638002AD0B3301AF211C2B7081462F
S113276065602681E7602682FDF782FE0023984695
S1132770002802D13B78332B07D0404609B03CBC3B
S113278090469946A246AB46F0BD5346238020238B
S11327902B702F236B7002239B4623814346211CFD
S11327A04846238266806560E760FDF761FE534614
S11327B0238023232B705D336B705B462381434658
S11327C0211C4846238266806560E760FDF750FE61
S11327D0534623801F232B7000236B705B46238199
S11327E04346211C4846238266806560E760FDF706
S11327F03FFE5346238020232B702F236B705B46B0
S1132800238143464846211C238266806560E76035
S1132810FDF72EFE01239846AFE7C046F0B54446C7
S11328205F4656464D463023F0B48BB005AC9B460C
S11328302380012398466380242304AD2B70183B26
S113284002266B70002303AF211C99468246238223
S113285065602681E760FDF70BFE5B4623804346F7
S1132860638030232B700A236B704B46211C504627
S1132870238265602681E760FDF7FAFD5B462380CD
S11328804346638031232B7000236B704B46211C1D
S11328905046238265602681E760FDF7E9FD5B46CB
S11328A023804346638032232B70123B6B704B466C
S11328B0211C5046238265602681E760FDF7D8FD20
S11328C05B4623804346638033232B702F3B6B701E
S11328D04B46211C5046238265602681E760FDF744
S11328E0C7FD0220012101220023FFF77DF84B469A
S11328F0009343460220019301210122FFF736F899
S11329008E23074A5B00D65000204022054B1A60F4
S11329100BB03CBC90469946A246AB46F0BDC046BF
S11329200060004000E100E0F0B55F464D464446DB
S11329305646F0B4ABB00EAB99464A46604B1DAF59
S113294023CB23C223CB23C2002304AD2A1C1D9313
S11329507B60BB60FB603B617B61BB61FB613B6295
S11329607B62BB62FB623B86564B43CB43C2196816
S113297009AE11601B791371321C534B13CB13C274
S1132980196811601B79137114AB984642464F4B7A
S113299013CB13C213CB13C203CB03C21B78137024
S11329A04B4BDB6C1B0E812B07D84A4A4A4B1A60EF
S11329B04A4A4B4B11680B40136001214948FEF70A
S11329C081FAFFF7C1FC6420FFF7C8FC4846FDF715
S11329D0C1FC0422012308210220FFF705F80E9808
S11329E0FFF7AAFE0E98FFF719FFFFF76BFC3221E1
S11329F0381C00F093F8FA204000FFF7AFFC381CB5
S1132A00322100F0FFF800283BD0374B374E984670
S1132A1080239946364C02AD3378002B20D04023D6
S1132A209A464A46434651469950FFF7A9FC01236A
S1132A302B7066336B70030AAB7000239B46E870FF
S1132A403221381C2B7100F0B5F83A1C3223281CB3
S1132A50082100F017FC5B465246337043461A6067
S1132A600120404200F092F81420FFF777FC012087
S1132A70FEF7F4FE20780A21013000F0E5FD217014
S1132A80CAE73223301C009341462A1C3B1C00F049
S1132A90D3F80028B9D1154E154C012040423378A3
S1132AA000F074F81420FFF759FC0120FEF7D6FE5D
S1132AB020780A21013000F0C7FD2170EDE7C046FF
S1132AC0AC4E0000C44E0000D84E0000EC4E000096
S1132AD0B081E00F0500000418600C40E4800C4055
S1132AE0FFFFFFFE0082040000E100E0FA01002085
S1132AF0F9010020064B1B689B0707D58E23022192
S1132B00044A5B00D1500122034B1A707047C0463F
S1132B106460004000600040FA01002010B51848CD
S1132B20FFF762FB1420FFF719FC0A21042200239B
S1132B300020FEF759FF1420FFF710FC01230A219F
S1132B4004220020FEF750FFFA20FFF707FC0D4C8B
S1132B5000215022201C01F07AFCFFF7B1FCFFF7A2
S1132B6073FDFFF715FD0222201C074901F066FCE6
S1132B70201C0121FFF7F2FC1420FFF7EFFB10BD2E
S1132B80004008405C040020104F000010B5074CC2
S1132B90021C0749201C01F04FFD201C01F076FDAA
S1132BA0C1B2201CFFF7DAFC10BDC0465C04002053
S1132BB0144F000070B50D1C061C0F48FFF714FBE2
S1132BC0012300200A210422FEF70EFFFFF73CFD3B
S1132BD0FFF7DEFC094C0222201C094901F02EFCFF
S1132BE0201C0121FFF7BAFC301C291CFFF77AFDD9
S1132BF01E20FFF7B3FB70BD004008405C040020BA
S1132C00104F000070B5041C0E1C094D0949281C06
S1132C10112201F013FC281C331C1021221CFFF785
S1132C202DFD3023E07983428041404270BDC0468F
S1132C305C0400206C4F0000F0B54E4645465746F4
S1132C40E0B41D1C904684B00CAB8D4C1E78102251
S1132C5081460F1C201C8B4901F0F0FB331C201C07
S1132C600F212A1CFFF70AFD4346002B00D1E7E0A1
S1132C70404601F00BFD844B9A46102800D1D6E063
S1132C8082495246201C01F0D7FC201C01F0FEFCB6
S1132C90331CC1B22A1C201CFFF7F0FC484601F08B
S1132CA0F5FC7B4B9846102800D1B7E079494246A1
S1132CB0201C01F0C1FC201C01F0E8FC2A1CC1B25C
S1132CC0331C201CFFF7DAFC381C01F0DFFC8146C2
S1132CD0202800D196E0704B984670494246201C4B
S1132CE001F0AAFC201C01F0D1FC331CC1B22A1C47
S1132CF0201CFFF7C3FC6A490122201C01F09CFC44
S1132D00201C01F0C3FC331CC1B22A1C201CFFF799
S1132D10B5FC64491222201C01F090FB331C201CDA
S1132D2011212A1CFFF7AAFC5F491122201C01F083
S1132D3085FB331C10212A1C201CFFF79FFC01F08B
S1132D402DFC5A490522201C01F076FC201C01F0C0
S1132D509DFC331CC1B22A1C201CFFF78FFC544974
S1132D601122201C01F06AFB331C201C10212A1C98
S1132D70FFF784FC4F499622201C01F05DFC201CC7
S1132D8001F084FC331CC1B22A1C201CFFF776FC22
S1132D9049490B22201C01F051FB2A1C331C201C26
S1132DA00A21FFF76BFC0122444B0A271A70444B9B
S1132DB09A46444B994651461022201C01F03EFB92
S1132DC02A1C331C201C0F21FFF758FC281C311C23
S1132DD0FFF788FC281C494600F072FA8046002858
S1132DE00CD13948013FFFF7B9FA002FE3D140462F
S1132DF004B01CBC90469946A246F0BD6420FFF77F
S1132E00ADFAF4E7244B391C9846181C212201F032
S1132E1015FB00234246494653545EE7181C112211
S1132E20494601F00BFB0023424613743EE7181C8D
S1132E301122414601F002FB0023524613741FE79E
S1132E4022491122201C01F0F9FA331C2A1C201CEF
S1132E501021FFF713FC291C684601F00FFC68469B
S1132E6001F014FC084B9A46102800D008E7181CFF
S1132E701122694601F0E2FA534642461A74FFE60B
S1132E805C0400205C4F0000E4040020804F00003C
S1132E90AC040020944F000038040020A84F000028
S1132EA004500000185000002C5000004050000056
S1132EB0605000007450000088500000FB010020A6
S1132EC094500000A450000088130000244F000018
S1132ED0F8B55F4656464D464446F0B41D1C93462D
S1132EE00AAB684C1E781022071C8946201C6649D0
S1132EF001F0A4FA201C0F212A1C331CFFF7BEFB8F
S1132F00584601F0C3FB8246202800D1A2E05F4B63
S1132F1098465F494246201C01F08EFB201C01F0BC
S1132F20B5FB2A1CC1B2331C201CFFF7A7FB484683
S1132F3001F0ACFB8246202800D197E0554B98461F
S1132F4042465549201C01F077FB201C01F09EFBF2
S1132F50331CC1B22A1C201CFFF790FB381C01F063
S1132F6095FB4E4B984608286BD042464C49201C92
S1132F7001F062FB201C01F089FB331CC1B22A1C46
S1132F80201CFFF77BFB47490122201C01F054FB66
S1132F90201C01F07BFB331CC1B22A1C201CFFF750
S1132FA06DFB41491222201C01F048FA331C201CFD
S1132FB011212A1CFFF762FB3C491122201C01F05D
S1132FC03DFA331C201C10212A1CFFF757FB3849FB
S1132FD00B22201C01F032FA2A1C331C201C0A216B
S1132FE0FFF74CFB0022334B0A271A70324B9946E9
S1132FF0324B984649460F22201C01F01FFA201C30
S11330000E212A1C331CFFF739FB281C311CFFF747
S113301069FB281C414600F053F9002809D03220EE
S1133020FFF79CF901203CBC90469946A246AB466A
S1133030F8BD3220013FFFF791F9002FDAD10020CB
S1133040F1E7181C0922391C01F0F8F90023424663
S113305013728AE70D4B59469846181C212201F039
S1133060EDF9002342465146535452E7094B494671
S1133070181C2122984601F0E1F900225146104B18
S11330805A545DE75C0400205C4F000004050020F6
S1133090D44F0000C0040020BC4F0000F8040020FE
S11330A0EC4F000004500000185000002C500000A9
S11330B088500000FB010020B0500000A450000024
S11330C038040020F0B55F4656464D46444600237A
S11330D0F0B485B00393554B0C1C9846544B161C06
S11330E09946544B1E259A46534B544F9B4638E001
S11330F0201C311CFFF7F6FA201C514900F0E0F8BF
S1133100002800D082E0201C4E4900F0D9F80028A5
S113311000D07DE0201C4C4900F0D2F8002811D1E9
S1133120201C4A4900F0CCF8002843D1201C48490F
S113313000F0C6F8002869D1201C464900F0C0F808
S1133140002837D0444B1B780096002B3AD14348D3
S11331504349444A231CFFF7BBFE013DEDB2002D59
S113316028D0381C01F092FA221CC1B2331C381C3E
S1133170FFF784FA201C414600F0A2F80028B7D1DA
S1133180201C494600F09CF8002813D1201C51460D
S113319000F096F80028D5D1201C594600F090F88C
S11331A0002816D0FA20013D8000EDB2FFF7D6F8D2
S11331B0002DD6D1002005B03CBC90469946A246CD
S11331C0AB46F0BD2849294A231C2948FFF734FDA2
S11331D0C3E7201C274900F073F80028B2D1201C53
S11331E0254900F06DF80028ACD1201C234900F0DB
S11331F067F800280ED0039B0133DBB20393092B3D
S1133200A0D8FA204000FFF7A9F8A6E70120D2E7EA
S11332100220D0E7201C1A4900F052F8002891D16E
S1133220201C0A4900F04CF8C4E7C046C050000016
S11332300C5100001C510000285100005C040020C7
S1133240C4500000D0500000D8500000E0500000EE
S1133250F450000000510000FB010020F80400209D
S1133260C00400200405002038040020E4040020E9
S1133270AC040020345100003C5100005C510000BB
S11332806451000070B50C1C1D1C161C82B001AAF0
S1133290490800F029F8019A0749084801F0CCF9D7
S11332A01234019801F0C0F8E0B2311C2A1CFFF777
S11332B009FF02B070BDC046705100005C040020DC
S11332C038B5051C081C0C1C01F0E0F9002305E0CE
S11332D0E95CE25C914205D10133DBB28342F7D36E
S11332E0012038BD0020FCE7F0B54F464646C0B487
S11332F087B001AD161C2A1C0C1C174B814683CBCE
S113330083C2196811601B7913716300581C9846B5
S113331001F080F8306000281CD00023424683541A
S1133320002C17D04B4600220F2719191C782409AA
S11333302C5D84541C7830683C402C5D80184470AB
S11333400133023230688B42F0D107B00CBC904696
S11333509946F0BD0020F8E7985100000022430888
S11333608B4274D303098B425FD3030A8B4244D349
S1133370030B8B4228D3030C8B420DD3FF2209028B
S113338012BA030C8B4202D31212090265D0030B4A
S11333908B4219D300E0090AC30B8B4201D3CB0340
S11333A0C01A5241830B8B4201D38B03C01A524182
S11333B0430B8B4201D34B03C01A5241030B8B4284
S11333C001D30B03C01A5241C30A8B4201D3CB026F
S11333D0C01A5241830A8B4201D38B02C01A524154
S11333E0430A8B4201D34B02C01A5241030A8B4257
S11333F001D30B02C01A5241CDD2C3098B4201D36F
S1133400CB01C01A524183098B4201D38B01C01AEC
S1133410524143098B4201D34B01C01A5241030963
S11334208B4201D30B01C01A5241C3088B4201D312
S1133430CB00C01A524183088B4201D38B00C01ABF
S1133440524143088B4201D34B00C01A5241411AE6
S113345000D20146524110467047FFE701B50020F3
S113346000F0FCF802BDC0460029F7D003B5FFF711
S113347075FF0EBC4243891A1847C04603460B43E6
S11334807FD4002243088B4274D303098B425FD359
S1133490030A8B4244D3030B8B4228D3030C8B4285
S11334A00DD3FF22090212BA030C8B4202D312126B
S11334B0090265D0030B8B4219D300E0090AC30B40
S11334C08B4201D3CB03C01A5241830B8B4201D3ED
S11334D08B03C01A5241430B8B4201D34B03C01AD6
S11334E05241030B8B4201D30B03C01A5241C30A4E
S11334F08B4201D3CB02C01A5241830A8B4201D3BF
S11335008B02C01A5241430A8B4201D34B02C01AA8
S11335105241030A8B4201D30B02C01A5241CDD24D
S1133520C3098B4201D3CB01C01A524183098B4298
S113353001D38B01C01A524143098B4201D34B0181
S1133540C01A524103098B4201D30B01C01A5241E4
S1133550C3088B4201D3CB00C01A524183088B426B
S113356001D38B00C01A524143088B4201D34B0054
S1133570C01A5241411A00D20146524110467047C6
S11335805DE0CA0F00D04942031000D340425340CB
S113359000229C4603098B422DD3030A8B4212D38B
S11335A0FC22890112BA030A8B420CD389019211BD
S11335B08B4208D3890192118B4204D389013AD0FA
S11335C0921100E08909C3098B4201D3CB01C01ACF
S11335D0524183098B4201D38B01C01A52414309E2
S11335E08B4201D34B01C01A524103098B4201D3D0
S11335F00B01C01A5241C3088B4201D3CB00C01A3D
S1133600524183088B4201D38B00C01A5241D9D254
S113361043088B4201D34B00C01A5241411A00D2D5
S11336200146634652415B10104601D34042002BD1
S113363000D54942704763465B1000D3404201B550
S1133640002000F00BF802BD0029F8D003B5FFF705
S113365015FF0EBC4243891A1847C0467047C0463E
S11336601C2101231B04984201D3000C10391B0AAE
S1133670984201D3000A08391B09984201D3000972
S1133680043902A2105C40187047C04604030202C9
S1133690010101010000000000000000002B11D115
S11336A0002A0FD1002900D1002802D00021C943EB
S11336B0081C07B4024802A14018029003BDC0468A
S11336C09DFFFFFF03B4684601B5029800F04CF873
S11336D0019B9E4602B00CBC7047C046F0B54F46F5
S11336E0464605042D0C2C1CC0B41704160C3F0CC4
S11336F09946030C7C4375435F4373437D19260C41
S1133700AD199C46AF4203D980235B029846C4445A
S11337104B465143434324042E0C240C2D0466448D
S11337202C1959188919201C0CBC90469946F0BDD7
S1133730F0B583B0161C1F1C0090019100F07EFCB4
S1133740041C0D1C221C2B1C301C391CFFF7C6FF4B
S1133750009A019B121A8B410899201C0A604B6045
S1133760291C03B0F0BDC046F0B5141C83B01D1C69
S11337700090019100F05AFD221C2B1C061C0F1C0A
S1133780FFF7ACFF009A019B121A8B410899301C79
S11337900A604B60391C03B0F0BDC046F0B5564614
S11337A04D465F464446F0B443024500C70F83B01C
S11337B08A465C0A2E0EB94641D0FF2E26D08023BD
S11337C01B042343DC00002398469B467F3E53465C
S11337D05B025D0A53465A00DB0F120E9A4639D03B
S11337E0FF2A33D080231B042B43DD0000237F3AC0
S11337F05146B21A46467940081C01921E430F2EC8
S113380000D976E07E4AB6009659B746002C30D1EE
S113381008239846063B9B46D9E780230021DB0317
S1133820FF245B02E4055B0AC90723430B43181C0E
S113383003B03CBC90469946A246AB46F0BD002C72
S113384028D104239846033B9B46C0E7002D1FD193
S1133850022302E0002D11D10123B21A504646463C
S1133860784001921E430F2E27D86649B600895925
S11338708F460C239846093B9B46A8E7281CFFF774
S1133880EFFE7622431F52429D40121A0023AFE7F7
S11338900323ADE7201CFFF7E3FE431F9C40762380
S11338A05B421E1A002398469B4690E70025D146AA
S11338B09B465B464846022B6FD10121FF24014001
S11338C00023AEE77E23019A5B429B1A1B2B6DDD1E
S11338D001214B46194000240023A2E78023DB0387
S11338E01C4249D18023DB0323435B025B0A391C5E
S11338F096E763016D01AB4237D389461A20012153
S11339005B1B01241E1C49005B00002E01DBAB4243
S113391001D35B1B214301380028F3D1581E834196
S11339200B431D1C019C7F34002CCBDD6B0704D0A2
S11339300F232B40042B00D004352B0104D5019A0E
S1133940314B8032141C1D40FE2C07DD4B460121F7
S1133950FF241940002364E7251CAAE701214A46F5
S1133960AB015B0AE4B211405BE7019A8946013A74
S113397001921B200021C4E71D4207D023435B02B0
S11339805B0A391C4CE700256302ABD58023DB03BB
S11339902B435B025B0A514642E7032B25D0012BE4
S11339A0C0D101210024014000233AE7291CD94059
S11339B02B1C019A9E3293405D1EAB410B435A0768
S11339C004D00F221A40042A00D004335A0105D52A
S11339D04B46012101241940002322E701214A46D4
S11339E09B015B0A114000241BE7802301214A4606
S11339F0DB032B435B020A405B0A111C10E7C04641
S1133A00AC510000EC510000FFFFFFF7F0B55F463A
S1133A1056464D464446F0B445024600C40F83B0B2
S1133A200F1C6D0A360EA34645D0FF2E25D08023E9
S1133A301B041D4300239A46ED007F3E01937B0245
S1133A405B0A98467800FB0F000E994640D0FF2889
S1133A5038D0802342461B041343DB0098460023DE
S1133A607F384A46019F30186240411C1F430F2F84
S1133A7069D87D4EBF00F659B746002D45D10823BD
S1133A800193063B9A46DAE793465346022B2FD11D
S1133A905B46012400251C40FF236D02DB056D0AF3
S1133AA0E4071D432543281C03B03CBC90469946BB
S1133AB0A246AB46F0BD002D2CD104230193033B59
S1133AC09A46BCE743465A4253410322D31AC8E7F5
S1133AD042460123002AC4D04046FFF7C1FD4246B6
S1133AE0431F9A4076235B42181A90460023B8E796
S1133AF0032B00D1ADE0012B00D08CE05B46544693
S1133B001C40E4B200230025C7E70C230193093BC2
S1133B109A4694E7281CFFF7A3FD7626431F9D4091
S1133B2000237642361A01939A4688E780250024BA
S1133B30ED03FF23B1E74546CB469A46A5E7454644
S1133B4093469A46A1E743462C041B0C9C46230C3F
S1133B50444626041C1C360C2F0C7443351C664644
S1133B607D4373437743EB18260C9E19B54203D962
S1133B7080235B029C46674424043304240C1B19F1
S1133B809D016C1EA5419B0E360C2B43BD19AD0146
S1133B901D432B0104D5012368081D400543081C5F
S1133BA0031C7F33002B2CDD690704D00F2129402F
S1133BB0042900D00435290103D52C4B1D40031CD6
S1133BC08033FE2B17DD0124FF231440002564E716
S1133BD08020C003054209D04346034206D145462E
S1133BE005436D026D0A4C46FF2356E705436D02FB
S1133BF06D0AFF2351E70124AD016D0ADBB21440C5
S1133C004BE77E235B421B1A1B2B07DD0124002399
S1133C101440002541E7081C5A46C1E79E30291C80
S1133C208540D940681E85410D436B0704D00F239E
S1133C302B40042B00D004356B0104D5012401234F
S1133C401440002529E70124AD016D0A1440002326
S1133C5023E78023DB031D4301245B466D022340DD
S1133C601C1C6D0AFF2318E72C520000FFFFFFF70E
S1133C70F8B54A00430244004D02C00F240E061C4E
S1133C809B09120EC90FAD09FF2A00D175E0012767
S1133C907940884250D0A01A002800DC8FE0002A26
S1133CA01ED1002D00D075E05A0704D00F221A400F
S1133CB0042A00D0043380220120D2041A40304068
S1133CC0002A32D00134FF2C00D184E09B015B0A2E
S1133CD0E4B25B02E4055B0A2343C0071843F8BD62
S1133CE0FF2CE1D08022D20415431B287ADD012564
S1133CF05B1B5A015DD59B019F09381CFFF7B0FC83
S1133D0005388740844269DC001B1F243A1C431C8D
S1133D10201ADA408740131C7C1EA74100243B4331
S1133D20C2E7131E45D100230020DB08FF2C28D056
S1133D305B025B0AE4B2CCE7A11A00295BDD002A2E
S1133D402ED0FF2CB0D08022D20415431B2974DC62
S1133D502F1C2022CF40511A8D40691E8D413D43B6
S1133D605B195A0125D50134FF2C74D001217E4AF8
S1133D70194013405B080B4396E7002D00D088E7F9
S1133D8085E7002B27D08022D20313435B025B0A12
S1133D90FF249EE701380028AAD0FF2CA5D183E791
S1133DA0002D00D180E701390029D9D0FF2CCDD1D5
S1133DB07AE75A0700D079E701203040B5E70028B8
S1133DC025D1621CD2B2012A55DD5F1B7A012DD5A3
S1133DD0EF1A0E1C91E7FF2400237AE7624B241AA2
S1133DE03B4061E7291C2022C140101A8540681E0F
S1133DF085410D437CE7002946D1621CD1B20129DB
S1133E002BDDFF2A26D0EB185B08141C4CE7002C92
S1133E1015D0FF2A1AD08024E404404223431B28EF
S1133E204DDD0123EB1A141C0E1C62E7002F00D099
S1133E3063E700230020002477E7012590E7002BA7
S1133E4039D0C0430028EDD0FF2AE8D12B1CFF2431
S1133E500E1C29E7FF24002367E7002C5AD1002B0E
S1133E607FD0002D00D11FE75B195A01A1D53E4A2E
S1133E700134134018E7002C15D1002B2FD1002D4D
S1133E805ED02B1C0E1C0FE7002C21D1002B54D02C
S1133E90C943002904D0FF2A4CD01B2958DD012333
S1133EA05B19141C5DE7002B23D1002D4BD02B1C78
S1133EB00E1CFF24F8E62B1C141C0E1CF4E61E1C1E
S1133EC02024C640201A8340581E83413343A9E767
S1133ED0FF2A2FD08024E40449422343DDE7002D48
S1133EE000D1E1E65A1B500100D41AE7EB1A0E1C6C
S1133EF0DAE6FF24002D00D1D6E68022DB08D203C7
S1133F00134204D0ED08154201D12B1C0E1CDB001A
S1133F10FF24C9E6002B0DD0FF24002D00D1C3E6F9
S1133F208022DB08D2031342F1D0ED081542EED112
S1133F302B1CECE72B1CFF24B6E62B1C141CB3E64D
S1133F40231C0020F1E6802300209B04FF24ECE6E0
S1133F501F1C2024CF40611A8B40591E8B413B43C8
S1133F609EE72B1CA0E6C046FFFFFFFB4202510A5E
S1133F704200C30F120E00207E2A0DDD9D2A0CDCA8
S1133F80802000040143952A0ADC9620821AD1403D
S1133F900A1C58424240D0187047034A9818FBE75D
S1133FA0963A91400A1CF4E7FFFFFF7F70B5041EA8
S1133FB039D0C50F00D04442201CFFF751FB9E238B
S1133FC0261C1B1A962B07DC082801DD08388440C0
S1133FD06402640AD8B21EE0992B0ADD0522211C72
S1133FE0121AD1400A1C011C1B318E40711E8E41D5
S1133FF01643052801DD421F96400F4C34407207DA
S113400004D00F221640042E00D0043462010ED4D2
S1134010A401640AD8B26402C005640AED0704432B
S11340202C43201C70BD002500200024F3E7024B24
S11340301C409F231B1AEBE7FFFFFFFBF0B5444630
S11340405F4656464D46F0B41C1C85B0002900DA84
S1134050A9E00F1C0021061C8846101C191C002C0A
S113406000DA97E0341C3D1C82468946B94273D875
S113407070D04946504600F085F98346391C301CFF
S113408000F080F95B46181A031C8346203B9C46CB
S113409000D59CE000230022514600920193634620
S11340A09940019151468140019B0091BB4200D946
S11340B083E000D17EE0009A019B341C3D1CA41ACD
S11340C09D416346002B00DA9AE000260027029601
S11340D0039701369E4003960126864002960028E7
S11340E000D171E00099019AD30799464B464E08D6
S11340F01E435708002301220CE0AF4201D1A6421F
S11341000AD8A41BBD4124196D410138A4185D418E
S1134110002806D0AF42F0D9013824196D41002897
S1134120F8D12022029E039F5B46524236196F410A
S113413099185AD4281CC8402C1C5B46DC40002922
S113414068DB041C8C40231C59468840021CB61AA8
S11341509F4103E0B0428CD90026002741464B1E04
S11341609941002300910193009A019B0025544238
S11341709D41331C6340181C3B1C6B40191C009B65
S1134180019CC018614105B03CBC90469946A246CA
S1134190AB46F0BD4346DB430C1C9846131C002180
S11341A05842A1415EE7002746428F41012149421E
S11341B0884652E7B14200D87DE7002600270296E0
S11341C00397002800D08DE7029E039FC6E72021B5
S11341D05346091ACB400022191C00230092019374
S11341E04B4683400B4301935CE75A4620239B1ABA
S11341F02A1C9A40201C131C5A46D04018439BE7A3
S113420020260027331A0026029603970127DF4051
S1134210039761E75B4620215D46C91A031CAC4045
S1134220CB40191C231C0B438EE7C046F0B5454612
S11342304E465746E0B4041C82B00D1C9146984685
S11342408B4262D85FD04146484600F09BF8291C57
S1134250061C201C00F096F82023311A5B428A4683
S1134260C81865D44B4683401F1C4B468B401E1C0C
S1134270AF4258D855D0A41BBD41002800DA77E0DE
S11342800022002300920193013282400192012313
S11342908B40009300293CD0FB07984640467208A7
S11342A07B080243012600270CE0AB4201D1A24265
S11342B00AD8A41A9D4124196D410139A4197D41DC
S11342C0002906D0AB42F0D9013924196D410029E7
S11342D0F8D12022009801995346524200196941AD
S11342E09E183AD42F1CF7405346DD40002E29DB9C
S11342F03C1CB440231C5446A7403A1C801A9941E4
S11343000090019105E082429DD90023002400938E
S113431001940098019902B01CBC90469946A246AB
S1134320F0BDA342A7D90022002300920193B1E774
S113433020224B46521AD3401A1C43468B401F1C62
S1134340174392E7534620245646E41A3B1CB540D3
S1134350E3401C1C2B1C2343CDE7524620239B1A0D
S11343602A1C9A40271C131C5246D7401F43BBE704
S113437020230022581A0023009201930132C240E4
S1134380019284E710B5002903D1FFF769F92030C1
S113439002E0081CFFF764F910BDC046084B10B5D5
S11343A0041C002B02D0002100E000BF054B18685C
S11343B0836A002B00D09847201C00F0A9FCC0465B
S11343C000000000705200000E4B70B500251E1C4A
S11343D00D4CE41AA410A54204D0AB00F35898473E
S11343E00135F8E700F096FC084B00251E1C084C2C
S11343F0E41AA410A54204D0AB00F3589847013541
S1134400F8E770BD7C0000207C0000207C000020C8
S11344108000002008B5034B011C186800F066F802
S113442008BDC0467000002008B5034B011C186885
S113443000F016F808BDC04670000020002310B537
S1134440934203D0CC5CC4540133F9E710BD031C80
S11344508218934202D019700133FAE770470000C2
S113446030B500293ED004390B68002B00DAC91896
S11344701D4A1368141C002B02D14B60116031E0FB
S113448099420DD208680A189A4203D11368C318D6
S11344900B6053684B60216024E08A4203D8131CEC
S11344A05A68002AF9D11D685C198C420BD109683D
S11344B0691858181960904214D110685268091884
S11344C019605A600EE08C4202D90C23036009E0A3
S11344D008680C18944203D11468526800190860E3
S11344E04A60596030BDC04600020020032370B505
S11344F0CC1C9C430834051C0C2C01D20C2405E074
S1134500002C03DA0C2300202B6042E08C42F9D308
S1134510204A1368101C191C002913D00A68121BA6
S11345200DD40B2A02D90A608B181FE08B4202D1EA
S11345305A6802601BE04A685A600B1C17E00B1CA7
S11345404968E9E7144E3368002B03D1281C00F0B6
S113455061F83060281C211C00F05CF8031C421C2C
S1134560D0D00322C61C964386420AD11C60181C74
S113457007210B301A1D8843821A0AD051429950E0
S113458007E0311A281C00F045F8431CBAD0331C4C
S1134590ECE770BD00020020FC010020154B10B5B3
S11345A01C68A36B002B15D11820FFF733FF124BA7
S11345B0A0630380114B01224380114B8380114B74
S11345C0C380114B03810523438106338381002378
S11345D002614361A46B0D4A206961690C4BFFF7CA
S11345E07DF801220023801859412061616148004F
S11345F0400810BD700000200E330000CDABFFFF5B
S1134600341200006DE6FFFFECDEFFFF2D7F954CBA
S11346102DF4515838B50023064C051C081C2360A2
S113462000F068FB431C03D12368002B00D02B60EF
S113463038BDC046280500200EB410B59DB002A9AF
S1134640029008610B48822488604861012040423E
S11346501FABC881084804CBA400006801938C8177
S113466000F07CF80023029A13701DB010BC08BC43
S113467003B01847FFFFFF7F70000020031C0A7877
S113468001311A700133002AF9D170470023C25C4A
S11346900133002AFBD1581E70470000F0B58E6824
S11346A085B0071C0C1C03920193B34245D390239D
S11346B08A89DB001A423DD00325096923680198E1
S11346C05B1A029363695D43EB0F5D19029B6D10E6
S11346D001331B189D4200D21D1C381C53050FD5F5
S11346E0291CFFF703FF061E13D0029A2169FFF766
S11346F0A5FEA289184B134080221343A38111E025
S11347002A1C00F0C6FA061E0CD1381C2169FFF7DA
S1134710A7FE0C23402201203B60A389404213439F
S1134720A38117E0029B2661F61826606561019E4D
S1134730ED1AA560019BB34200D2019E321C206891
S1134740039900F092FA0020A3689B1BA3602368DE
S11347509E19266005B0F0BD7FFBFFFFF0B59FB04A
S1134760029005938B890E1C171C1B0610D50B6930
S1134770002B0DD14021FFF7B9FE306030610028D5
S113478004D10C23029A01381360D0E040237361F2
S1134790002306AD6B6120336B761033AB763C1C83
S11347A02378002B03D1E31B049312D003E0252BC1
S11347B0F9D00134F4E7049B0298311C3A1CFFF74A
S11347C06DFF431C00D1ACE06A69049B94466344CA
S11347D06B612378002B00D1A3E001220023524215
S11347E06A6002A95432521801342B60EB60AB604A
S11347F01370AB654F4F2178381C052200F02AFA5C
S1134800002808D0C01B01278740381C2B680134BE
S113481018432860EEE72B68DA0604D553222021DA
S113482002A8121811701A0704D553222B2102A8CA
S11348301218117022782A2A01D0099B0EE0059AD9
S1134840111D12680591002A01DB099204E052420D
S1134850EA60022213432B60013409E02278303AE3
S1134860092A04D80A214B4301349B18F6E709931B
S113487023782E2B18D163782A2B09D1059B023477
S11348801A1D1B680592002B0DDA01235B420AE016
S1134890002301342278303A092A04D80A214B43F0
S11348A001349B18F6E70793234F2178381C032221
S11348B000F0D0F9002807D0C01B40278740381CDF
S11348C02B6801341843286021781C480622671C91
S11348D0297600F0BFF9002812D0194B002B06D11D
S11348E00722059B073393430833059314E005AB74
S11348F000930298291C321C124B00E000BF07E011
S113490005AB00930298291C321C0E4B00F08AF868
S11349100390039B013304D06B69039A9B186B616A
S11349203DE7B3890B985B0601D5012040421FB0D7
S1134930F0BDC046745200007A5200007E5200005E
S1134940000000009D460000F7B5171C01930A699A
S11349508B6800900C1C934200DA131C221C3B60F1
S113496043321278002A01D001333B6023689B064E
S113497002D53B6802333B60062523681D401ED0E8
S1134980231C43331B785A1E9341226892061CD57C
S11349903020E1184031C870211C5A1C4531097877
S11349A0A21840320233D1700FE0221C0123009878
S11349B001991932089EB047431C0ED00135E368B3
S11349C03A689B1A9D42F0DBDAE7221C00980199B1
S11349D04332089DA847431C02D10120404220E0F5
S11349E006232068E1683A6803400025042B03D1BC
S11349F08D1AEB43DB171D40A3682269934201DD46
S1134A009B1AED180027AF420ADA221C01230098F2
S1134A1001991A32089EB047431CDED00137F2E7F1
S1134A200020FEBDF0B58BB006920A1C43320793FA
S1134A30059004920A7E0C1C109B6E2A00D1A8E0FB
S1134A4011D8632A22D009D8002A00D1B2E0582A0A
S1134A5000D0C2E045310A707C4A4FE0642A1DD080
S1134A60692A1BD0B9E0732A00D1A7E009D86F2ABC
S1134A7029D0702A00D0B0E0202209680A432260BD
S1134A8037E0752A1FD0782A33D0A6E00E1C1A68A6
S1134A904236111D196013683370A1E021681A6849
S1134AA0080606D4490604D5111D19600023D55EF5
S1134AB002E0111D19601568002D3BDA2D23049ABC
S1134AC06D42137036E021681A68080606D4490658
S1134AD004D51568111D1960ADB202E0111D1960ED
S1134AE015685A4B227E03930A276F2A1DD1082783
S1134AF01BE0221C782145321170554A1968039233
S1134B00081D226818600D68100602D4500600D5EE
S1134B10ADB2D30702D520231A4322601027002DFB
S1134B2003D1202322689A432260231C00224333AA
S1134B301A7002E00A27454B03936368A360002BB5
S1134B4003DB0422216891432160002D02D1049EDD
S1134B50002B0ED0049E281C391CFEF785FC039BF9
S1134B60013E5B5C281C3370391CFEF7F7FB051E05
S1134B70F1D1082F09D12368DB0706D563682269C0
S1134B80934202DC3023013E3370049B9B1B236160
S1134B902BE009681A68080607D4490605D5111DD3
S1134BA019601368A28A1A8004E0111D1960136841
S1134BB062691A600023049E236116E01A68111DBD
S1134BC0196016680021301C626800F043F8002860
S1134BD001D0801B6060636803E0261C423632709B
S1134BE0012323610023049A1370079B0598009303
S1134BF0211C069B09AAFFF7A7FE431C02D1012032
S1134C00404221E0236905980699321C079DA84774
S1134C10431CF4D023689B0705D4099BE0689842A1
S1134C2012DA181C10E00025E368099A9B1A9D42C9
S1134C30F3DA221C0123059806991932079EB0471E
S1134C40431CDCD00135EFE70BB0F0BD855200000A
S1134C5096520000C9B28218904204D003788B4265
S1134C6002D00130F8E70020704710B5814208D225
S1134C708B18984205D29B1A013A09D3995C815446
S1134C80FAE70023934203D0CC5CC4540133F9E720
S1134C9010BDF8B5061C0C1C151C002904D1111CF0
S1134CA0FFF724FC041C18E0002A03D1FFF7D8FB0B
S1134CB02C1C12E000F013F8A8420ED2301C291C60
S1134CC0FFF714FC071E07D0211C2A1CFFF7B6FBB4
S1134CD0301C211CFFF7C4FB3C1C201CF8BD0B1F1F
S1134CE01A68101F002A04DA891804390B68D018CE
S1134CF004387047044A1368002B03D01818106056
S1134D00181C7047014BF9E704020020300500200D
S1134D10FEE7C046F8B5C046F8BC08BC9E467047DE
S1134D20F8B5C046F8BC08BC9E46704700000000B9
S1134D3001B40248844601BC604700BF75000020EE
S1134D40010000007C0C0000780C0000640C0000E2
S1134D50500C0000800C0000800C00003C0C000093
S1134D60D20D0000500D0000D20D0000D20D000045
S1134D70FA0D0000120E00005C0E0000D40D0000BD
S1134D80F80E0000180F0000080F0000100F0000BC
S1134D90F80E0000F80E00001C0F0000220F0000A7
S1134DA0D60E0000F80E0000140F000004100000DE
S1134DB0880F0000E60F0000B20F0000D00F0000C3
S1134DC0041000005C0F0000600F00004613000098
S1134DD09413000088130000881300007813000067
S1134DE04613000046130000481300004613000059
S1134DF01E140000761400005E1400004613000028
S1134E00461300004C140000461300004613000033
S1134E10461300004613000046130000401400002F
S1134E20461300004613000098140000901400007C
S1134E30A2140000BA12000046130000461300003A
S1134E404613000046130000461300003614000009
S1134E50C81C0000881C0000F01C0000F01B0000AF
S1134E60241C00004C1C0000081D0000781B0000DE
S1134E70BC1B0000021F00002A1F0000661F000068
S1134E80B61F0000DE1F000008200000BE1E000048
S1134E90861F0000D81E0000080911080500000044
S1134EA000000000802500000000000000A0004079
S1134EB0030703060100000000000000486B010026
S1134EC00000000030303337374541394142423524
S1134ED043434338000000003730423344353745FC
S1134EE0443030304139333100000000423338441B
S1134EF03133454531343337453444333735433022
S1134F003833304435373437374534340000000003
S1134F105500000073797320736C65657020256CEF
S1134F20750D0A006D61632067657420646576659C
S1134F3075690D0A00000000737973206765742099
S1134F407665720D0A00000073797320676574201A
S1134F506170706575690D0A000000006D61632061
S1134F607265736574203836380D0A006D616320EC
S1134F70676574207374617475730D0A0000000012
S1134F806D61632073657420646576657569202599
S1134F90730D0A006D616320736574206170706520
S1134FA075692025730D0A006D6163207365742093
S1134FB06170706B65792025730D0A006D61632043
S1134FC073657420617070736B65792025730D0AA5
S1134FD0000000006D616320736574206E776B734D
S1134FE06B65792025730D0A000000006D61632054
S1134FF073657420646576616464722025730D0A98
S1135000000000006D61632073657420707772691D
S113501064782025690D0A006D616320736574202E
S1135020616472206F66660D0A0000006D61632082
S1135030736574206172206F66660D0A00000000BB
S11350406D6163207365742064722025690D0A0004
S11350506D6163206765742064720D0A00000000AE
S11350606D61632073657420616472206F6E0D0A34
S1135070000000006D616320736574206261742018
S113508025690D0A000000006D6163207361766577
S11350900D0A00006D6163206A6F696E206F746190
S11350A0610D0A006163636570746564000000004B
S11350B06D6163206A6F696E206162700D0A000081
S11350C06F6B00006D61635F74785F6F6B0000004D
S11350D06D61635F727800006D61635F6572720079
S11350E0696E76616C69645F646174615F6C656E3E
S11350F000000000726164696F5F74785F6F6B0019
S1135100726164696F5F657272000000696E766136
S11351106C69645F706172616D0000006E6F745F32
S11351206A6F696E656400006E6F5F667265655FC5
S11351306368000073696C656E7400006672616D6B
S1135140655F636F756E7465725F6572725F7265B9
S11351506A6F696E5F6E6565646564006275737914
S1135160000000006D61635F706175736564000029
S11351706D616320747820756E636E66203120251E
S1135180730D0A006D616320747820636E662031AC
S11351902025730D0A0000003031323334353637A0
S11351A0383961626364656600000000F23800000B
S11351B0BA380000D6380000AE380000D6380000F7
S11351C01A380000D6380000AE380000BA380000A3
S11351D0BA3800001A380000AE3800005839000010
S11351E05839000058390000DC380000BA38000093
S11351F0BA380000A2390000AC380000A23900001F
S11352001A380000A2390000AC380000BA38000097
S1135210BA3800001A380000AC38000058390000D1
S1135220583900005839000086390000463B000018
S11352303E3B00003E3B0000363B0000883A000045
S1135240883A00002C3B0000363B0000883A0000FE
S11352502C3B0000883A0000363B00008A3A0000EC
S11352608A3A00008A3A0000D03B00004300000064
S113527010000020232D302B2000686C4C00656644
S11352806745464700303132333435363738394193
S113529042434445460030313233343536373839A9
S10F52A0616263646566000000000000A9
S10B52AC48AEFF7F0100000081
S11352B40080000000366E01809FD500006CDC0283
S11352C400000000000000000000000000000000D6
S11352D400000000000000000000000000000000C6
S11352E46C520000000000000000000000000000F8
S11352F400000000000000000000000000000000A6
S11353040000000000000000000000000000000095
S11353140000000000000000000000000000000085
S11353241000002030BF04231B687047BD00000038
S10B53349500000000000000D8
S903016D8E
